:100000000C942A000C943F000C943F000C943F0089
:100010000C943F000C943F000C943F000C943F0064
:100020000C943F000C943F000C943F000C943F0054
:100030000C943F000C943F000C943F000C943F0044
:100040000C943F000C943F000C943F000C943F0034
:100050000C943F0011241FBECFE5D8E0DEBFCDBF1A
:1000600011E0A0E6B0E0E0E6F4E402C005900D92F5
:10007000AC33B107D9F70E9492200C942E220C9435
:100080000000CF93DF9300D0CDB7DEB789836A83BA
:100090008981883068F58A818823A9F08BE390E014
:1000A0002BE330E0F9012081622F2981422F50E0BB
:1000B00021E030E002C0220F331F4A95E2F7262BE1
:1000C000FC012083C1C08BE390E02BE330E0F90119
:1000D00060812981422F50E021E030E002C0220FF0
:1000E000331F4A95E2F720952623FC012083ACC0FC
:1000F00089818830B0F18981803198F58A8188239F
:10010000C1F088E390E028E330E0F9012081622F1C
:100110002981222F30E0A9014850510921E030E027
:1001200002C0220F331F4A95E2F7262BFC012083E1
:100130008BC088E390E028E330E0F90160812981F9
:10014000222F30E0A9014850510921E030E002C0DF
:10015000220F331F4A95E2F720952623FC012083C6
:1001600073C089818031B0F18981883198F58A81A5
:100170008823C1F085E390E025E330E0F901208198
:10018000622F2981222F30E0A9014051510921E03D
:1001900030E002C0220F331F4A95E2F7262BFC0104
:1001A000208352C085E390E025E330E0F9016081CF
:1001B0002981222F30E0A9014051510921E030E08E
:1001C00002C0220F331F4A95E2F720952623FC0137
:1001D00020833AC089818831B0F18981803298F5D5
:1001E0008A818823C1F082E390E022E330E0F901C4
:1001F0002081622F2981222F30E0A9014851510925
:1002000021E030E002C0220F331F4A95E2F7262B8F
:10021000FC01208319C082E390E022E330E0F90181
:1002200060812981222F30E0A9014851510921E044
:1002300030E002C0220F331F4A95E2F720952623B3
:10024000FC01208301C000000F900F90DF91CF913F
:100250000895CF93DF931F92CDB7DEB7898389814D
:100260008830C8F489E390E0FC018081282F30E0D9
:100270008981482F50E081E090E002C0880F991FEB
:100280004A95E2F799278223932321E0892B09F4E9
:1002900020E0822F67C089818830F8F08981803121
:1002A000E0F486E390E0FC018081282F30E0898132
:1002B000882F90E0AC014850510981E090E002C0E5
:1002C000880F991F4A95E2F799278223932321E00B
:1002D000892B09F420E0822F45C089818031F8F014
:1002E00089818831E0F483E390E0FC018081282F4C
:1002F00030E08981882F90E0AC014051510981E0C4
:1003000090E002C0880F991F4A95E2F7992782234F
:10031000932321E0892B09F420E0822F23C08981D7
:100320008031F8F089818831E0F480E390E0FC01CD
:100330008081282F30E08981882F90E0AC014851DE
:10034000510981E090E002C0880F991F4A95E2F7B9
:1003500099278223932321E0892B09F420E0822F1F
:1003600001C080E00F90DF91CF910895CF93DF938C
:1003700000D0CDB7DEB789836A838981883068F57C
:100380008A818823A9F08AE390E02AE330E0F9012A
:100390002081622F2981422F50E021E030E002C00D
:1003A000220F331F4A95E2F7262BFC012083C0C0A1
:1003B0008AE390E02AE330E0F90160812981422F4D
:1003C00050E021E030E002C0220F331F4A95E2F7EF
:1003D00020952623FC012083ABC089818830B0F1B1
:1003E0008981803198F58A818823C1F087E390E084
:1003F00027E330E0F9012081622F2981222F30E0AC
:10040000A9014850510921E030E002C0220F331FFA
:100410004A95E2F7262BFC0120838AC087E390E00F
:1004200027E330E0F90160812981222F30E0A90122
:100430004850510921E030E002C0220F331F4A9595
:10044000E2F720952623FC01208372C08981803148
:10045000B0F18981883198F58A818823C1F084E3DD
:1004600090E024E330E0F9012081622F2981222FDE
:1004700030E0A9014051510921E030E002C0220FD3
:10048000331F4A95E2F7262BFC01208351C084E3F9
:1004900090E024E330E0F90160812981222F30E0EF
:1004A000A9014051510921E030E002C0220F331F61
:1004B0004A95E2F720952623FC01208339C08981E3
:1004C0008831B0F18981803298F58A818823C1F022
:1004D00081E390E021E330E0F9012081622F29815E
:1004E000222F30E0A9014851510921E030E002C03B
:1004F000220F331F4A95E2F7262BFC01208318C0F8
:1005000081E390E021E330E0F90160812981222F2D
:1005100030E0A9014851510921E030E002C0220F2A
:10052000331F4A95E2F720952623FC01208300C063
:1005300000000F900F90DF91CF910895CF93DF933C
:10054000CDB7DEB76C970FB6F894DEBF0FBECDBF48
:1005500061E081E00E94B60161E082E00E94B601A4
:1005600061E083E00E94B60161E084E00E94B60190
:1005700061E085E00E94B60161E086E00E94B6017C
:1005800061E087E00E94B60160E083E00E944100E4
:100590008BE390E02BE330E0F9012081277FFC0121
:1005A000208380E090E0A0E0B0E489839A83AB836D
:1005B000BC8320E030E04AE755E469817A818B8191
:1005C0009C810E949921DC01CB018B8B9C8BAD8B94
:1005D000BE8B20E030E040E85FE36B897C898D8949
:1005E0009E890E94132188232CF481E090E0988F4B
:1005F0008F8B3FC020E03FEF4FE757E46B897C894A
:100600008D899E890E94942118164CF520E030E0D7
:1006100040E251E469817A818B819C810E94992119
:10062000DC01CB01BC01CD010E941821DC01CB0112
:10063000988F8F8B0FC080E991E09A8F898F898D79
:100640009A8D0197F1F79A8F898F8F89988D0197ED
:10065000988F8F8B8F89988D892B69F714C06B8940
:100660007C898D899E890E941821DC01CB01988F9D
:100670008F8B8F89988D9C8F8B8F8B8D9C8D019705
:10068000F1F79C8F8B8F83E390E00E94D70382E386
:1006900090E00E94D70388E290E00E94D7038EE0AA
:1006A00090E00E94D70381E090E00E94D70386E0AB
:1006B00090E00E94D70380E090E0A0E0B0E48D835A
:1006C0009E83AF83B88720E030E04AE755E46D8130
:1006D0007E818F8198850E949921DC01CB018987D9
:1006E0009A87AB87BC8720E030E040E85FE369850C
:1006F0007A858B859C850E94132188232CF481E0C8
:1007000090E09E878D873FC020E03FEF4FE757E4A2
:1007100069857A858B859C850E94942118164CF5F5
:1007200020E030E040E251E46D817E818F81988548
:100730000E949921DC01CB01BC01CD010E9418214E
:10074000DC01CB019E878D870FC080E991E0988BFB
:100750008F878F8598890197F1F7988B8F878D8583
:100760009E8501979E878D878D859E85892B69F74C
:1007700014C069857A858B859C850E941821DC01CF
:10078000CB019E878D878D859E859A8B898B8989E4
:100790009A890197F1F79A8B898B00006C960FB6B6
:1007A000F894DEBF0FBECDBFDF91CF9108950F93B8
:1007B0001F93CF93DF93CDB7DEB7C754D1090FB6E0
:1007C000F894DEBF0FBECDBF9E01295B3F4FF901FC
:1007D0008083CE01895B9F4FFC018081882F90E050
:1007E0008071992721E0892B09F420E0822F682F5E
:1007F00084E00E944100CE01895B9F4FFC01808113
:10080000882F90E08072992721E0892B09F420E05D
:10081000822F682F85E00E944100CE01895B9F4FA7
:10082000FC018081882F90E08074992721E0892B3A
:1008300009F420E0822F682F86E00E944100CE015B
:10084000895B9F4FFC018081881F8827881F682F44
:1008500087E00E94410080E090E0A0E0B0E489835E
:100860009A83AB83BC8320E030E04AE755E469819A
:100870007A818B819C810E949921DC01CB019E01B0
:10088000235C3F4FF90180839183A283B38320E0EF
:1008900030E040E85FE3CE01CD96FC0160817181DC
:1008A000828193810E94132188234CF4CE018F5BB7
:1008B0009F4F21E030E0FC013183208367C020E0BE
:1008C0003FEF4FE757E4CE01CD96FC016081718187
:1008D000828193810E94942118160CF046C020E07A
:1008E00030E040E251E469817A818B819C810E94F1
:1008F0009921DC01CB018E010F5B1F4FBC01CD01A3
:100900000E941821DC01CB01F8019183808324C06F
:10091000CE018D5B9F4F20E931E0FC0131832083C4
:10092000CE018D5B9F4FFC01808191810197F1F792
:100930009E012D5B3F4FF90191838083CE018F5B38
:100940009F4F9E012F5B3F4FF90120813181215044
:100950003109FC0131832083CE018F5B9F4FFC0165
:1009600080819181892BA1F62BC08E010F5B1F4FD7
:10097000CE01CD96FC0160817181828193810E94BC
:100980001821DC01CB01F80191838083CE018B5BC0
:100990009F4F9E012F5B3F4FF90120813181FC0168
:1009A00031832083CE018B5B9F4FFC01808191813D
:1009B0000197F1F79E012B5B3F4FF90191838083F3
:1009C0008BE390E02BE330E0F90120812D7FFC01E7
:1009D00020838BE390E02BE330E0F90120812B7F33
:1009E000FC0120838BE390E02BE330E0F9012081D0
:1009F0002860FC01208380E090E0A0E0B0E48D83DB
:100A00009E83AF83B88720E030E04AE755E46D81EC
:100A10007E818F8198850E949921DC01CB018BAB6F
:100A20009CABADABBEAB20E030E040E85FE36BA930
:100A30007CA98DA99EA90E94132188232CF481E012
:100A400090E098AF8FAB3FC020E03FEF4FE757E417
:100A50006BA97CA98DA99EA90E94942118164CF51A
:100A600020E030E040E251E46D817E818F81988505
:100A70000E949921DC01CB01BC01CD010E9418210B
:100A8000DC01CB0198AF8FAB0FC080E991E09AAF4A
:100A900089AF89AD9AAD0197F1F79AAF89AF8FA968
:100AA00098AD019798AF8FAB8FA998AD892B69F757
:100AB00014C06BA97CA98DA99EA90E941821DC01F4
:100AC000CB0198AF8FAB8FA998AD9CAF8BAF8BAD9F
:100AD0009CAD0197F1F79CAF8BAF8BE390E02BE3DC
:100AE00030E0F9012081277FFC01208380E090E045
:100AF000A0E0B0E489879A87AB87BC8720E030E02C
:100B00004AE755E469857A858B859C850E94992101
:100B1000DC01CB0189A79AA7ABA7BCA720E030E0F6
:100B200040E85FE369A57AA58BA59CA50E941321E7
:100B300088232CF481E090E09EA78DA73FC020E0A1
:100B40003FEF4FE757E469A57AA58BA59CA50E94C6
:100B5000942118164CF520E030E040E251E469851C
:100B60007A858B859C850E949921DC01CB01BC0193
:100B7000CD010E941821DC01CB019EA78DA70FC0DB
:100B800080E991E098AB8FA78FA598A90197F1F71D
:100B900098AB8FA78DA59EA501979EA78DA78DA524
:100BA0009EA5892B69F714C069A57AA58BA59CA57C
:100BB0000E941821DC01CB019EA78DA78DA59EA5C3
:100BC0009AAB89AB89A99AA90197F1F79AAB89AB3E
:100BD000CE01895B9F4FFC018081882F90E081705E
:100BE000992721E0892B09F420E0822F682F84E0E7
:100BF0000E944100CE01895B9F4FFC018081882FBC
:100C000090E08270992721E0892B09F420E0822F5F
:100C1000682F85E00E944100CE01895B9F4FFC0157
:100C20008081882F90E08470992721E0892B09F436
:100C300020E0822F682F86E00E944100CE01895B70
:100C40009F4FFC018081882F90E08870992721E0D8
:100C5000892B09F420E0822F682F87E00E94410051
:100C60008BE390E02BE330E0F90120812860FC0168
:100C7000208380E090E0A0E0B0E48D879E87AF877E
:100C8000B88B20E030E04AE755E46D857E858F859E
:100C900098890E949921DC01CB018F8F98A3A9A389
:100CA000BAA320E030E040E85FE36F8D78A189A12E
:100CB0009AA10E94132188232CF481E090E09CA348
:100CC0008BA33FC020E03FEF4FE757E46F8D78A143
:100CD00089A19AA10E94942118164CF520E030E0D9
:100CE00040E251E46D857E858F8598890E94992127
:100CF000DC01CB01BC01CD010E941821DC01CB013C
:100D00009CA38BA30FC080E991E09EA38DA38DA12E
:100D10009EA10197F1F79EA38DA38BA19CA10197A2
:100D20009CA38BA38BA19CA1892B69F714C06F8D09
:100D300078A189A19AA10E941821DC01CB019CA372
:100D40008BA38BA19CA198A78FA38FA198A5019796
:100D5000F1F798A78FA38BE390E02BE330E0F90144
:100D60002081277FFC01208380E090E0A0E0B0E4B8
:100D7000898B9A8BAB8BBC8B20E030E04AE755E443
:100D800069897A898B899C890E949921DC01CB0130
:100D90008D8B9E8BAF8BB88F20E030E040E85FE317
:100DA0006D897E898F89988D0E94132188232CF468
:100DB00081E090E09A8F898F3FC020E03FEF4FE7BE
:100DC00057E46D897E898F89988D0E949421181629
:100DD0004CF520E030E040E251E469897A898B8962
:100DE0009C890E949921DC01CB01BC01CD010E94AC
:100DF0001821DC01CB019A8F898F0FC080E991E027
:100E00009C8F8B8F8B8D9C8D0197F1F79C8F8B8F97
:100E1000898D9A8D01979A8F898F898D9A8D892BCB
:100E200069F714C06D897E898F89988D0E94182179
:100E3000DC01CB019A8F898F898D9A8D9E8F8D8F42
:100E40008D8D9E8D0197F1F79E8F8D8F0000C95B70
:100E5000DF4F0FB6F894DEBF0FBECDBFDF91CF914D
:100E60001F910F910895CF93DF93CDB7DEB7E99728
:100E70000FB6F894DEBF0FBECDBF89AF89AD882F06
:100E800090E08071992721E0892B09F420E0822FDE
:100E9000682F84E00E94410089AD882F90E0807225
:100EA000992721E0892B09F420E0822F682F85E023
:100EB0000E94410089AD882F90E08074992721E03D
:100EC000892B09F420E0822F682F86E00E944100E0
:100ED00089AD881F8827881F682F87E00E944100FE
:100EE0008BE390E02BE330E0F90120812260FC01EC
:100EF00020838BE390E02BE330E0F90120812B7F0E
:100F0000FC0120838BE390E02BE330E0F9012081AA
:100F10002860FC01208380E090E0A0E0B0E48983B9
:100F20009A83AB83BC8320E030E04AE755E46981D3
:100F30007A818B819C810E949921DC01CB018FA752
:100F400098ABA9ABBAAB20E030E040E85FE36FA517
:100F500078A989A99AA90E94132188232CF481E0F9
:100F600090E09CAB8BAB3FC020E03FEF4FE757E4F6
:100F70006FA578A989A99AA90E94942118164CF501
:100F800020E030E040E251E469817A818B819C81EC
:100F90000E949921DC01CB01BC01CD010E941821E6
:100FA000DC01CB019CAB8BAB0FC080E991E09EAB29
:100FB0008DAB8DA99EA90197F1F79EAB8DAB8BA947
:100FC0009CA901979CAB8BAB8BA99CA9892B69F73A
:100FD00014C06FA578A989A99AA90E941821DC01DB
:100FE000CB019CAB8BAB8BA99CA998AF8FAB8FA986
:100FF00098AD0197F1F798AF8FAB8BE390E02BE3BF
:1010000030E0F9012081277FFC01208380E090E01F
:10101000A0E0B0E48D839E83AF83B88720E030E00A
:101020004AE755E46D817E818F8198850E949921E0
:10103000DC01CB018DA39EA3AFA3B8A720E030E0D5
:1010400040E85FE36DA17EA18FA198A50E941321C6
:1010500088232CF481E090E09AA789A73FC020E084
:101060003FEF4FE757E46DA17EA18FA198A50E94A5
:10107000942118164CF520E030E040E251E46D81F7
:101080007E818F8198850E949921DC01CB01BC0172
:10109000CD010E941821DC01CB019AA789A70FC0BE
:1010A00080E991E09CA78BA78BA59CA50197F1F700
:1010B0009CA78BA789A59AA501979AA789A789A517
:1010C0009AA5892B69F714C06DA17EA18FA198A55F
:1010D0000E941821DC01CB019AA789A789A59AA5AE
:1010E0009EA78DA78DA59EA50197F1F79EA78DA719
:1010F00089AD882F90E08170992721E0892B09F430
:1011000020E0822F682F84E00E94410089AD882F63
:1011100090E08270992721E0892B09F420E0822F4A
:10112000682F85E00E94410089AD882F90E084708F
:10113000992721E0892B09F420E0822F682F86E08F
:101140000E94410089AD882F90E08870992721E0A6
:10115000892B09F420E0822F682F87E00E9441004C
:101160008BE390E02BE330E0F90120812860FC0163
:10117000208380E090E0A0E0B0E489879A87AB8785
:10118000BC8720E030E04AE755E469857A858B85A5
:101190009C850E949921DC01CB018B8F9C8FAD8FA8
:1011A000BE8F20E030E040E85FE36B8D7C8D8D8D5D
:1011B0009E8D0E94132188232CF481E090E098A357
:1011C0008F8F3FC020E03FEF4FE757E46B8D7C8D62
:1011D0008D8D9E8D0E94942118164CF520E030E0F4
:1011E00040E251E469857A858B859C850E9499212E
:1011F000DC01CB01BC01CD010E941821DC01CB0137
:1012000098A38F8F0FC080E991E09AA389A389A149
:101210009AA10197F1F79AA389A38F8D98A10197BD
:1012200098A38F8F8F8D98A1892B69F714C06B8D30
:101230007C8D8D8D9E8D0E941821DC01CB0198A3A1
:101240008F8F8F8D98A19CA38BA38BA19CA10197BD
:10125000F1F79CA38BA38BE390E02BE330E0F90143
:101260002081277FFC01208380E090E0A0E0B0E4B3
:101270008D879E87AF87B88B20E030E04AE755E442
:101280006D857E858F8598890E949921DC01CB012F
:10129000898B9A8BAB8BBC8B20E030E040E85FE31E
:1012A00069897A898B899C890E94132188232CF46F
:1012B00081E090E09E8B8D8B3FC020E03FEF4FE7B9
:1012C00057E469897A898B899C890E949421181630
:1012D0004CF520E030E040E251E46D857E858F855D
:1012E00098890E949921DC01CB01BC01CD010E94AB
:1012F0001821DC01CB019E8B8D8B0FC080E991E022
:10130000988F8F8B8F89988D0197F1F7988F8F8B9E
:101310008D899E8901979E8B8D8B8D899E89892BC6
:1013200069F714C069897A898B899C890E94182180
:10133000DC01CB019E8B8D8B8D899E899A8F898F45
:10134000898D9A8D0197F1F79A8F898F0000E99620
:101350000FB6F894DEBF0FBECDBFDF91CF910895D9
:10136000CF93DF9300D000D0CDB7DEB78B836C83F3
:1013700080E8898380EC8A838B81882F90E09E01AE
:101380002F5F3F4F820F931FFC0190818C81890F4B
:101390000E94D70300000F900F900F900F90DF91E5
:1013A000CF910895CF93DF93CDB7DEB763970FB694
:1013B000F894DEBF0FBECDBF998B888B6A8B4B8BA9
:1013C0006B898A890E94B00980E090E0A0E2B1E4D4
:1013D0008A839B83AC83BD8320E030E04AE755E4F9
:1013E0006A817B818C819D810E949921DC01CB01E6
:1013F0008E839F83A887B98720E030E040E85FE3D1
:101400006E817F81888599850E94132188232CF421
:1014100081E090E09B878A873FC020E03FEF4FE765
:1014200057E46E817F81888599850E9494211816E2
:101430004CF520E030E040E251E46A817B818C8110
:101440009D810E949921DC01CB01BC01CD010E944C
:101450001821DC01CB019B878A870FC080E991E0CE
:101460009D878C878C859D850197F1F79D878C875B
:101470008A859B8501979B878A878A859B85892B8F
:1014800069F714C06E817F81888599850E94182133
:10149000DC01CB019B878A878A859B859F878E8706
:1014A0008E859F850197F1F79F878E8719820EC0E1
:1014B0008981882F90E028893989820F931FFC0148
:1014C00080810E94330789818F5F89838981882F7A
:1014D00090E028893989820F931FFC01808188233D
:1014E00039F7000063960FB6F894DEBF0FBECDBF8C
:1014F000DF91CF910895CF93DF93CDB7DEB76C978F
:101500000FB6F894DEBF0FBECDBF80E40E94D703B4
:1015100080E00E94330788E00E94330780E00E9449
:10152000330780E00E94330783E00E94330784E0A2
:101530000E94330788E00E94330780E00E9433074F
:1015400080E090E0A0EAB0E489839A83AB83BC8317
:1015500020E030E04AE755E469817A818B819C8103
:101560000E949921DC01CB018B8B9C8BAD8BBE8BB8
:1015700020E030E040E85FE36B897C898D899E89BB
:101580000E94132188232CF481E090E0988F8F8BA8
:101590003FC020E03FEF4FE757E46B897C898D899E
:1015A0009E890E94942118164CF520E030E040E21C
:1015B00051E469817A818B819C810E949921DC01AF
:1015C000CB01BC01CD010E941821DC01CB01988F19
:1015D0008F8B0FC080E991E09A8F898F898D9A8DCA
:1015E0000197F1F79A8F898F8F89988D0197988F3E
:1015F0008F8B8F89988D892B69F714C06B897C89B3
:101600008D899E890E941821DC01CB01988F8F8BD8
:101610008F89988D9C8F8B8F8B8D9C8D0197F1F787
:101620009C8F8B8F88E40E94D70380E00E94330751
:1016300082E00E94330780E00E94330780E00E942E
:10164000330788E10E94330784E00E94330782E079
:101650000E94330780E00E94330780E090E0A0E220
:10166000B1E48D839E83AF83B88720E030E04AE702
:1016700055E46D817E818F8198850E949921DC01DE
:10168000CB0189879A87AB87BC8720E030E040E8B0
:101690005FE369857A858B859C850E941321882369
:1016A0002CF481E090E09E878D873FC020E03FEFE3
:1016B0004FE757E469857A858B859C850E94942144
:1016C00018164CF520E030E040E251E46D817E8157
:1016D0008F8198850E949921DC01CB01BC01CD014D
:1016E0000E941821DC01CB019E878D870FC080E905
:1016F00091E0988B8F878F8598890197F1F7988B68
:101700008F878D859E8501979E878D878D859E8588
:10171000892B69F714C069857A858B859C850E9421
:101720001821DC01CB019E878D878D859E859A8B44
:10173000898B89899A890197F1F79A8B898B0000A7
:101740006C960FB6F894DEBF0FBECDBFDF91CF9180
:101750000895CF93DF93CDB7DEB76C970FB6F894AB
:10176000DEBF0FBECDBF80E090E0A0E0B0E4898393
:101770009A83AB83BC8320E030E04AE755E469817B
:101780007A818B819C810E949921DC01CB018B8B1A
:101790009C8BAD8BBE8B20E030E040E85FE36B8933
:1017A0007C898D899E890E94132188232CF481E0F5
:1017B00090E0988F8F8B3FC020E03FEF4FE757E4DA
:1017C0006B897C898D899E890E94942118164CF51D
:1017D00020E030E040E251E469817A818B819C8194
:1017E0000E949921DC01CB01BC01CD010E9418218E
:1017F000DC01CB01988F8F8B0FC080E991E09A8F2D
:10180000898F898D9A8D0197F1F79A8F898F8F89AA
:10181000988D0197988F8F8B8F89988D892B69F779
:1018200014C06B897C898D899E890E941821DC01F6
:10183000CB01988F8F8B8F89988D9C8F8B8F8B8D01
:101840009C8D0197F1F79C8F8B8F80E40E94D703CA
:1018500080E00E94330784E00E94330780E00E940A
:10186000330780E00E94330788E00E94330784E05A
:101870000E94330783E00E94330780E00E94330711
:1018800080E090E0A0EAB0E48D839E83AF83B887C8
:1018900020E030E04AE755E46D817E818F819885B4
:1018A0000E949921DC01CB0189879A87AB87BC878D
:1018B00020E030E040E85FE369857A858B859C8590
:1018C0000E94132188232CF481E090E09E878D876D
:1018D0003FC020E03FEF4FE757E469857A858B856D
:1018E0009C850E94942118164CF520E030E040E2DF
:1018F00051E46D817E818F8198850E949921DC0160
:10190000CB01BC01CD010E941821DC01CB019E87D7
:101910008D870FC080E991E0988B8F878F8598899C
:101920000197F1F7988B8F878D859E8501979E870C
:101930008D878D859E85892B69F714C069857A8589
:101940008B859C850E941821DC01CB019E878D87A9
:101950008D859E859A8B898B89899A890197F1F764
:101960009A8B898B88E40E94D70380E00E9433071A
:1019700084E00E94330780E00E94330780E00E94E9
:10198000330782E00E94330784E00E94330788E136
:101990000E94330780E00E94330700006C960FB668
:1019A000F894DEBF0FBECDBFDF91CF9108950F93A6
:1019B0001F93CF93DF93CDB7DEB7C653D1400FB699
:1019C000F894DEBF0FBECDBF19821A8240E060E0FE
:1019D00080E690E00E94D20940E061E080E790E07C
:1019E0000E94D2099E01295A3F4F80E090E0AAEF61
:1019F000B4E4F90180839183A283B3838E01055AF5
:101A00001F4FCE01895A9F4F20E030E04AE755E44E
:101A1000FC0160817181828193810E949921DC01A6
:101A2000CB01F80180839183A283B383CE01855AD1
:101A30009F4F20E030E040E85FE3FC01608171816E
:101A4000828193810E94132188234CF4CE01815A14
:101A50009F4F21E030E0FC01318320836DC0CE0137
:101A6000855A9F4F20E03FEF4FE757E4FC0160812C
:101A70007181828193810E94942118160CF04AC0D2
:101A8000CE01895A9F4F20E030E040E251E4FC0152
:101A900060817181828193810E949921DC01CB0157
:101AA0008E01015A1F4FBC01CD010E941821DC019B
:101AB000CB01F8019183808324C0CE018F599F4FC1
:101AC00020E931E0FC0131832083CE018F599F4F03
:101AD000FC01808191810197F1F79E012F593F4FC1
:101AE000F90191838083CE01815A9F4F9E01215A33
:101AF0003F4FF9012081318121503109FC013183AF
:101B00002083CE01815A9F4FFC0180819181892BD6
:101B1000A1F62CC08E01015A1F4FCE01855A9F4F4E
:101B2000FC0160817181828193810E941821DC0116
:101B3000CB01F80191838083CE018D599F4F9E0187
:101B4000215A3F4FF90120813181FC0131832083EB
:101B5000CE018D599F4FFC01808191810197F1F752
:101B60009E012D593F4FF9019183808300008AE047
:101B70000E942901882329F484E10E9429018823F5
:101B8000B1F38AE00E942901882309F0CAC081E0EC
:101B90000E94D7030E947B0A80E80E94D70380E05E
:101BA0000E94330781E00E94330780E090E8ABE3B6
:101BB000B5E48B839C83AD83BE838E010B591F4F8D
:101BC00020E030E04AE755E46B817C818D819E8185
:101BD0000E949921DC01CB01F80180839183A283CB
:101BE000B383CE018B599F4F20E030E040E85FE3A4
:101BF000FC0160817181828193810E94132188237D
:101C00004CF4CE0187599F4F21E030E0FC01318335
:101C1000208369C0CE018B599F4F20E03FEF4FE7F3
:101C200057E4FC0160817181828193810E9494213B
:101C300018160CF046C020E030E040E251E46B8121
:101C40007C818D819E810E949921DC01CB018E01D6
:101C500007591F4FBC01CD010E941821DC01CB01A7
:101C6000F8019183808324C0CE0185599F4F20E9DC
:101C700031E0FC0131832083CE0185599F4FFC0167
:101C8000808191810197F1F79E0125593F4FF9011C
:101C900091838083CE0187599F4F9E0127593F4FE3
:101CA000F9012081318121503109FC0131832083E8
:101CB000CE0187599F4FFC0180819181892BA1F62C
:101CC0002CC08E0107591F4FCE018B599F4FFC012D
:101CD00060817181828193810E941821DC01CB0196
:101CE000F80191838083CE0183599F4F9E0127592C
:101CF0003F4FF90120813181FC0131832083CE01E6
:101D000083599F4FFC01808191810197F1F79E01DA
:101D100023593F4FF901918380838A818F5F8A83A2
:101D2000C9C081E00E94D7030E94A90B80E80E94ED
:101D3000D70380E00E94330781E00E94330780E0F0
:101D400090E8ABE3B5E48F839887A987BA878E01C3
:101D500001591F4F20E030E04AE755E46F81788554
:101D600089859A850E949921DC01CB01F801808345
:101D70009183A283B383CE0181599F4F20E030E04D
:101D800040E85FE3FC0160817181828193810E9460
:101D9000132188234CF4CE018D589F4F21E030E071
:101DA000FC013183208369C0CE0181599F4F20E01F
:101DB0003FEF4FE757E4FC0160817181828193819D
:101DC0000E94942118160CF046C020E030E040E25A
:101DD00051E46F81788589859A850E949921DC017B
:101DE000CB018E010D581F4FBC01CD010E9418215F
:101DF000DC01CB01F8019183808324C0CE018B5894
:101E00009F4F20E931E0FC0131832083CE018B58C4
:101E10009F4FFC01808191810197F1F79E012B5822
:101E20003F4FF90191838083CE018D589F4F9E01D2
:101E30002D583F4FF9012081318121503109FC019A
:101E400031832083CE018D589F4FFC018081918189
:101E5000892BA1F62CC08E010D581F4FCE01815940
:101E60009F4FFC0160817181828193810E941821C2
:101E7000DC01CB01F80191838083CE0189589F4F0B
:101E80009E012D583F4FF90120813181FC013183A2
:101E90002083CE0189589F4FFC0180819181019759
:101EA000F1F79E0129583F4FF90191838083898181
:101EB0008F5F898381E00E94D70380E090E0AAE7EA
:101EC000B4E48B8B9C8BAD8BBE8B8E010D571F4F5B
:101ED00020E030E04AE755E46B897C898D899E8952
:101EE0000E949921DC01CB01F80180839183A283B8
:101EF000B383CE018D579F4F20E030E040E85FE391
:101F0000FC0160817181828193810E941321882369
:101F10004CF4CE0189579F4F21E030E0FC01318322
:101F2000208369C0CE018D579F4F20E03FEF4FE7E0
:101F300057E4FC0160817181828193810E94942128
:101F400018160CF046C020E030E040E251E46B8906
:101F50007C898D899E890E949921DC01CB018E01AB
:101F600009571F4FBC01CD010E941821DC01CB0194
:101F7000F8019183808324C0CE0187579F4F20E9C9
:101F800031E0FC0131832083CE0187579F4FFC0154
:101F9000808191810197F1F79E0127573F4FF90109
:101FA00091838083CE0189579F4F9E0129573F4FD0
:101FB000F9012081318121503109FC0131832083D5
:101FC000CE0189579F4FFC0180819181892BA1F619
:101FD0002CC08E0109571F4FCE018D579F4FFC011A
:101FE00060817181828193810E941821DC01CB0183
:101FF000F80191838083CE0185579F4F9E01295719
:102000003F4FF90120813181FC0131832083CE01D2
:1020100085579F4FFC01808191810197F1F79E01C7
:1020200025573F4FF9019183808340E060E08CE7C2
:1020300090E00E94D20940E061E088E890E00E94D0
:10204000D20980E090E0AAEFB4E48B879C87AD874B
:10205000BE878E0107581F4F20E030E04AE755E465
:102060006B857C858D859E850E949921DC01CB0145
:10207000F80180839183A283B383CE0187589F4F59
:1020800020E030E040E85FE3FC0160817181828103
:1020900093810E94132188234CF4CE0183589F4FD3
:1020A00021E030E0FC013183208369C0CE018758F4
:1020B0009F4F20E03FEF4FE757E4FC0160817181C3
:1020C000828193810E94942118160CF046C020E072
:1020D00030E040E251E46B857C858D859E850E94D1
:1020E0009921DC01CB018E0103581F4FBC01CD01AA
:1020F0000E941821DC01CB01F8019183808324C068
:10210000CE0181589F4F20E931E0FC0131832083CB
:10211000CE0181589F4FFC01808191810197F1F799
:102120009E0121583F4FF90191838083CE0183584E
:102130009F4F9E0123583F4FF9012081318121504B
:102140003109FC0131832083CE0183589F4FFC016C
:1021500080819181892BA1F62CC08E0103581F4FDD
:10216000CE0187589F4FFC016081718182819381EC
:102170000E941821DC01CB01F80191838083CE01FC
:102180008F579F4F9E0123583F4FF9012081318186
:10219000FC0131832083CE018F579F4FFC0180814A
:1021A00091810197F1F79E012F573F4FF9019183DC
:1021B000808300008AE00E942901882329F484E1B9
:1021C0000E9429018823B1F38AE00E942901882313
:1021D00009F0CAC081E00E94D7030E947B0A80E810
:1021E0000E94D70380E00E94330781E00E943307FA
:1021F00080E090E8ABE3B5E48F87988BA98BBA8B2E
:102200008E0103571F4F20E030E04AE755E46F8509
:10221000788989899A890E949921DC01CB01F8018A
:1022200080839183A283B383CE0183579F4F20E0A5
:1022300030E040E85FE3FC0160817181828193813D
:102240000E94132188234CF4CE018F569F4F21E02A
:1022500030E0FC013183208369C0CE0183579F4F5A
:1022600020E03FEF4FE757E4FC01608171818281FC
:1022700093810E94942118160CF046C020E030E0B3
:1022800040E251E46F85788989899A890E94992171
:10229000DC01CB018E010F561F4FBC01CD010E9406
:1022A0001821DC01CB01F8019183808324C0CE0189
:1022B0008D569F4F20E931E0FC0131832083CE0110
:1022C0008D569F4FFC01808191810197F1F79E010E
:1022D0002D563F4FF90191838083CE018F569F4F3A
:1022E0009E012F563F4FF901208131812150310944
:1022F000FC0131832083CE018F569F4FFC018081EA
:102300009181892BA1F62CC08E010F561F4FCE0153
:1023100083579F4FFC0160817181828193810E946C
:102320001821DC01CB01F80191838083CE018B560B
:102330009F4F9E012F563F4FF90120813181FC01B3
:1023400031832083CE018B569F4FFC018081918188
:102350000197F1F79E012B563F4FF901918380833E
:102360008A818F5F8A83C9C081E00E94D7030E945F
:10237000A90B80E80E94D70380E00E94330781E028
:102380000E94330780E090E8ABE3B5E48F8B988F31
:10239000A98FBA8F8E0109561F4F20E030E04AE71F
:1023A00055E46F89788D898D9A8D0E949921DC0181
:1023B000CB01F80180839183A283B383CE01895638
:1023C0009F4F20E030E040E85FE3FC0160817181D5
:1023D000828193810E94132188234CF4CE0185567B
:1023E0009F4F21E030E0FC013183208369C0CE01A2
:1023F00089569F4F20E03FEF4FE757E4FC01608193
:102400007181828193810E94942118160CF046C03C
:1024100020E030E040E251E46F89788D898D9A8D1B
:102420000E949921DC01CB018E0105561F4FBC0192
:10243000CD010E941821DC01CB01F801918380833A
:1024400024C0CE0183569F4F20E931E0FC01318347
:102450002083CE0183569F4FFC018081918101979B
:10246000F1F79E0123563F4FF90191838083CE01FE
:1024700085569F4F9E0125563F4FF901208131819E
:1024800021503109FC0131832083CE0185569F4FB5
:10249000FC0180819181892BA1F62CC08E0105560B
:1024A0001F4FCE0189569F4FFC016081718182814F
:1024B00093810E941821DC01CB01F8019183808374
:1024C000CE0181569F4F9E0125563F4FF901208135
:1024D0003181FC0131832083CE0181569F4FFC0165
:1024E000808191810197F1F79E0121563F4FF901BB
:1024F0009183808389818F5F898381E00E94D703E4
:1025000080E090E0AAE7B4E48BA39CA3ADA3BEA3B4
:102510008E0105551F4F20E030E04AE755E46BA1DE
:102520007CA18DA19EA10E949921DC01CB01F80123
:1025300080839183A283B383CE0185559F4F20E092
:1025400030E040E85FE3FC0160817181828193812A
:102550000E94132188234CF4CE0181559F4F21E026
:1025600030E0FC013183208369C0CE0185559F4F47
:1025700020E03FEF4FE757E4FC01608171818281E9
:1025800093810E94942118160CF046C020E030E0A0
:1025900040E251E46BA17CA18DA19EA10E949921F2
:1025A000DC01CB018E0101551F4FBC01CD010E9402
:1025B0001821DC01CB01F8019183808324C0CE0176
:1025C0008F549F4F20E931E0FC0131832083CE01FD
:1025D0008F549F4FFC01808191810197F1F79E01FB
:1025E0002F543F4FF90191838083CE0181559F4F36
:1025F0009E0121553F4FF901208131812150310940
:10260000FC0131832083CE0181559F4FFC018081E5
:102610009181892BA1F62CC08E0101551F4FCE014F
:1026200085559F4FFC0160817181828193810E9459
:102630001821DC01CB01F80191838083CE018D54F8
:102640009F4F9E0121553F4FF90120813181FC01AF
:1026500031832083CE018D549F4FFC018081918175
:102660000197F1F79E012D543F4FF901918380832B
:1026700040E060E08AE990E00E94D20940E061E039
:1026800086EA90E00E94D20980E090E0AAEFB4E4EC
:102690008B8F9C8FAD8FBE8F8E010F551F4F20E00B
:1026A00030E04AE755E46B8D7C8D8D8D9E8D0E94C8
:1026B0009921DC01CB01F80180839183A283B3834C
:1026C000CE018F559F4F20E030E040E85FE3FC01F2
:1026D00060817181828193810E94132188234CF44F
:1026E000CE018B559F4F21E030E0FC0131832083E8
:1026F00069C0CE018F559F4F20E03FEF4FE757E471
:10270000FC0160817181828193810E94942118165D
:102710000CF046C020E030E040E251E46B8D7C8D4F
:102720008D8D9E8D0E949921DC01CB018E010B5570
:102730001F4FBC01CD010E941821DC01CB01F80123
:102740009183808324C0CE0189559F4F20E931E0D9
:10275000FC0131832083CE0189559F4FFC0180818C
:1027600091810197F1F79E0129553F4FF90191831E
:102770008083CE018B559F4F9E012B553F4FF90112
:102780002081318121503109FC0131832083CE0128
:102790008B559F4FFC0180819181892BA1F62CC024
:1027A0008E010B551F4FCE018F559F4FFC0160814D
:1027B0007181828193810E941821DC01CB01F80193
:1027C00091838083CE0187559F4F9E012B553F4FAC
:1027D000F90120813181FC0131832083CE018755AD
:1027E0009F4FFC01808191810197F1F79E01275550
:1027F0003F4FF9019183808300008AE00E94290104
:10280000882329F484E10E9429018823B1F38AE016
:102810000E942901882309F0CAC081E00E94D703E1
:102820000E947B0A80E80E94D70380E00E94330761
:1028300081E00E94330780E090E8ABE3B5E48F8F3E
:1028400098A3A9A3BAA38E010B541F4F20E030E038
:102850004AE755E46F8D78A189A19AA10E94992138
:10286000DC01CB01F80180839183A283B383CE0185
:102870008B549F4F20E030E040E85FE3FC01608133
:102880007181828193810E94132188234CF4CE01AF
:1028900087549F4F21E030E0FC013183208369C0E1
:1028A000CE018B549F4F20E03FEF4FE757E4FC01F0
:1028B00060817181828193810E94942118160CF0AD
:1028C00046C020E030E040E251E46F8D78A189A15C
:1028D0009AA10E949921DC01CB018E0107541F4F60
:1028E000BC01CD010E941821DC01CB01F8019183CC
:1028F000808324C0CE0185549F4F20E931E0FC0144
:1029000031832083CE0185549F4FFC0180819181CA
:102910000197F1F79E0125543F4FF9019183808380
:10292000CE0187549F4F9E0127543F4FF9012081CC
:10293000318121503109FC0131832083CE0187543C
:102940009F4FFC0180819181892BA1F62CC08E01C3
:1029500007541F4FCE018B549F4FFC016081718142
:10296000828193810E941821DC01CB01F8019183BF
:102970008083CE0183549F4F9E0127543F4FF9011E
:1029800020813181FC0131832083CE0183549F4F0C
:10299000FC01808191810197F1F79E0123543F4F03
:1029A000F901918380838A818F5F8A83C9C081E026
:1029B0000E94D7030E94A90B80E80E94D70380E001
:1029C0000E94330781E00E94330780E090E8ABE388
:1029D000B5E48FA398A7A9A7BAA78E0101541F4FEA
:1029E00020E030E04AE755E46FA178A589A59AA5D3
:1029F0000E949921DC01CB01F80180839183A2839D
:102A0000B383CE0181549F4F20E030E040E85FE384
:102A1000FC0160817181828193810E94132188234E
:102A20004CF4CE018D539F4F21E030E0FC01318307
:102A3000208369C0CE0181549F4F20E03FEF4FE7D4
:102A400057E4FC0160817181828193810E9494210D
:102A500018160CF046C020E030E040E251E46FA1CF
:102A600078A589A59AA50E949921DC01CB018E0148
:102A70000D531F4FBC01CD010E941821DC01CB0179
:102A8000F8019183808324C0CE018B539F4F20E9AE
:102A900031E0FC0131832083CE018B539F4FFC0139
:102AA000808191810197F1F79E012B533F4FF901EE
:102AB00091838083CE018D539F4F9E012D533F4FB5
:102AC000F9012081318121503109FC0131832083BA
:102AD000CE018D539F4FFC0180819181892BA1F6FE
:102AE0002CC08E010D531F4FCE0181549F4FFC010E
:102AF00060817181828193810E941821DC01CB0168
:102B0000F80191838083CE0189539F4F9E012D53FD
:102B10003F4FF90120813181FC0131832083CE01B7
:102B200089539F4FFC01808191810197F1F79E01AC
:102B300029533F4FF9019183808389818F5F898376
:102B400081E00E94D70380E090E0AAE7B4E48BAB79
:102B50009CABADABBEAB8E010D521F4F20E030E001
:102B60004AE755E46BA97CA98DA99EA90E949921E9
:102B7000DC01CB01F80180839183A283B383CE0172
:102B80008D529F4F20E030E040E85FE3FC01608120
:102B90007181828193810E94132188234CF4CE019C
:102BA00089529F4F21E030E0FC013183208369C0CE
:102BB000CE018D529F4F20E03FEF4FE757E4FC01DD
:102BC00060817181828193810E94942118160CF09A
:102BD00046C020E030E040E251E46BA97CA98DA919
:102BE0009EA90E949921DC01CB018E0109521F4F41
:102BF000BC01CD010E941821DC01CB01F8019183B9
:102C0000808324C0CE0187529F4F20E931E0FC0130
:102C100031832083CE0187529F4FFC0180819181B7
:102C20000197F1F79E0127523F4FF901918380836D
:102C3000CE0189529F4F9E0129523F4FF9012081B9
:102C4000318121503109FC0131832083CE01895229
:102C50009F4FFC0180819181892BA1F62CC08E01B0
:102C600009521F4FCE018D529F4FFC01608171812F
:102C7000828193810E941821DC01CB01F8019183AC
:102C80008083CE0185529F4F9E0129523F4FF9010B
:102C900020813181FC0131832083CE0185529F4FF9
:102CA000FC01808191810197F1F79E0125523F4FF0
:102CB000F9019183808340E060E086EB90E00E9420
:102CC000D20940E061E086EC90E00E94D20980E009
:102CD00090E0AAEFB4E48BA79CA7ADA7BEA78E0196
:102CE00007531F4F20E030E04AE755E46BA57CA571
:102CF0008DA59EA50E949921DC01CB01F80180835E
:102D00009183A283B383CE0187539F4F20E030E0AD
:102D100040E85FE3FC0160817181828193810E94C0
:102D2000132188234CF4CE0183539F4F21E030E0E0
:102D3000FC013183208369C0CE0187539F4F20E07F
:102D40003FEF4FE757E4FC016081718182819381FD
:102D50000E94942118160CF046C020E030E040E2BA
:102D600051E46BA57CA58DA59EA50E949921DC014F
:102D7000CB018E0103531F4FBC01CD010E941821CE
:102D8000DC01CB01F8019183808324C0CE01815303
:102D90009F4F20E931E0FC0131832083CE01815334
:102DA0009F4FFC01808191810197F1F79E01215392
:102DB0003F4FF90191838083CE0183539F4F9E0142
:102DC00023533F4FF9012081318121503109FC010A
:102DD00031832083CE0183539F4FFC0180819181F9
:102DE000892BA1F62CC08E0103531F4FCE018753B0
:102DF0009F4FFC0160817181828193810E94182123
:102E0000DC01CB01F80191838083CE018F529F4F6B
:102E10009E0123533F4FF90120813181FC01318311
:102E20002083CE018F529F4FFC01808191810197B9
:102E3000F1F79E012F523F4FF901918380830000EB
:102E40008AE00E942901882329F484E10E94290153
:102E50008823B1F38AE00E942901882309F0CAC0BF
:102E600081E00E94D7030E947B0A80E80E94D7037A
:102E700080E00E94330781E00E94330780E090E801
:102E8000ABE3B5E48FA798ABA9ABBAAB8E01035205
:102E90001F4F20E030E04AE755E46FA578A989A9E3
:102EA0009AA90E949921DC01CB01F80180839183CA
:102EB000A283B383CE0183529F4F20E030E040E8ED
:102EC0005FE3FC0160817181828193810E94132103
:102ED00088234CF4CE018F519F4F21E030E0FC015C
:102EE0003183208369C0CE0183529F4F20E03FEFA2
:102EF0004FE757E4FC0160817181828193810E94D8
:102F0000942118160CF046C020E030E040E251E475
:102F10006FA578A989A99AA90E949921DC01CB0102
:102F20008E010F511F4FBC01CD010E941821DC0101
:102F3000CB01F8019183808324C0CE018D519F4F36
:102F400020E931E0FC0131832083CE018D519F4F78
:102F5000FC01808191810197F1F79E012D513F4F36
:102F6000F90191838083CE018F519F4F9E012F5194
:102F70003F4FF9012081318121503109FC0131831A
:102F80002083CE018F519F4FFC0180819181892B3D
:102F9000A1F62CC08E010F511F4FCE0183529F4FBF
:102FA000FC0160817181828193810E941821DC0182
:102FB000CB01F80191838083CE018B519F4F9E01FD
:102FC0002F513F4FF90120813181FC013183208352
:102FD000CE018B519F4FFC01808191810197F1F7C8
:102FE0009E012B513F4FF901918380838A818F5F2E
:102FF0008A83C9C081E00E94D7030E94A90B80E8A0
:103000000E94D70380E00E94330781E00E943307CB
:1030100080E090E8ABE3B5E48FAB98AFA9AFBAAF6F
:103020008E0109511F4F20E030E04AE755E46FA9B7
:1030300078AD89AD9AAD0E949921DC01CB01F801F0
:1030400080839183A283B383CE0189519F4F20E077
:1030500030E040E85FE3FC0160817181828193810F
:103060000E94132188234CF4CE0185519F4F21E00B
:1030700030E0FC013183208369C0CE0189519F4F2C
:1030800020E03FEF4FE757E4FC01608171818281CE
:1030900093810E94942118160CF046C020E030E085
:1030A00040E251E46FA978AD89AD9AAD0E949921B3
:1030B000DC01CB018E0105511F4FBC01CD010E94E7
:1030C0001821DC01CB01F8019183808324C0CE015B
:1030D00083519F4F20E931E0FC0131832083CE01F1
:1030E00083519F4FFC01808191810197F1F79E01EF
:1030F00023513F4FF90191838083CE0185519F4F2A
:103100009E0125513F4FF901208131812150310924
:10311000FC0131832083CE0185519F4FFC018081CA
:103120009181892BA1F62CC08E0105511F4FCE0134
:1031300089519F4FFC0160817181828193810E943E
:103140001821DC01CB01F80191838083CE018151EC
:103150009F4F9E0125513F4FF90120813181FC0194
:1031600031832083CE0181519F4FFC018081918169
:103170000197F1F79E0121513F4FF901918380831F
:1031800089818F5F898381E00E94D7039E012D5B37
:103190003F4F80E090E0AAE7B4E4F9018083918397
:1031A000A283B3838E0105501F4FCE018D5B9F4FCD
:1031B00020E030E04AE755E4FC01608171818281C2
:1031C00093810E949921DC01CB01F80180839183D6
:1031D000A283B383CE0185509F4F20E030E040E8CA
:1031E0005FE3FC0160817181828193810E941321E0
:1031F00088234CF4CE0181509F4F21E030E0FC0148
:10320000318320836DC0CE0185509F4F20E03FEF7A
:103210004FE757E4FC0160817181828193810E94B4
:10322000942118160CF04AC0CE018D5B9F4F20E010
:1032300030E040E251E4FC01608171818281938140
:103240000E949921DC01CB018E0101501F4FBC016E
:10325000CD010E941821DC01CB01F801918380830C
:1032600024C0CE018F5F9E4F20E931E0FC01318305
:103270002083CE018F5F9E4FFC0180819181019759
:10328000F1F79E012F5F3E4FF90191838083CE01BC
:1032900081509F4F9E0121503F4FF9012081318184
:1032A00021503109FC0131832083CE0181509F4F91
:1032B000FC0180819181892BA1F62CC08E010150E7
:1032C0001F4FCE0185509F4FFC016081718182812B
:1032D00093810E941821DC01CB01F8019183808346
:1032E000CE018D5F9E4F9E0121503F4FF9012081FD
:1032F0003181FC0131832083CE018D5F9E4FFC0123
:10330000808191810197F1F79E012D5F3E4FF90178
:103310009183808340E060E081ED90E00E94D209DB
:1033200040E061E081EE90E00E94D20980E090E010
:10333000AAEFB4E48BAF9CAFADAFBEAF8E010F5020
:103340001F4F20E030E04AE755E46BAD7CAD8DAD1A
:103350009EAD0E949921DC01CB01F801808391830D
:10336000A283B383CE018F509F4F20E030E040E82E
:103370005FE3FC0160817181828193810E9413214E
:1033800088234CF4CE018B509F4F21E030E0FC01AC
:103390003183208369C0CE018F509F4F20E03FEFE3
:1033A0004FE757E4FC0160817181828193810E9423
:1033B000942118160CF046C020E030E040E251E4C1
:1033C0006BAD7CAD8DAD9EAD0E949921DC01CB0132
:1033D0008E010B501F4FBC01CD010E941821DC0152
:1033E000CB01F8019183808324C0CE0189509F4F87
:1033F00020E931E0FC0131832083CE0189509F4FC9
:10340000FC01808191810197F1F79E0129503F4F86
:10341000F90191838083CE018B509F4F9E012B50E9
:103420003F4FF9012081318121503109FC01318365
:103430002083CE018B509F4FFC0180819181892B8D
:10344000A1F62CC08E010B501F4FCE018F509F4F05
:10345000FC0160817181828193810E941821DC01CD
:10346000CB01F80191838083CE0187509F4F9E014D
:103470002B503F4FF90120813181FC0131832083A2
:10348000CE0187509F4FFC01808191810197F1F718
:103490009E0127503F4FF9019183808300008AE00D
:1034A0000E942901882329F484E10E9429018823AC
:1034B000B1F38AE00E942901882309F0D4C081E099
:1034C0000E94D7030E947B0A80E80E94D70380E015
:1034D0000E94330781E00E9433079E01215C3F4F29
:1034E00080E090E8ABE3B5E4F90180839183A283A7
:1034F000B3838E010B5F1E4FCE01CF9620E030E0EC
:103500004AE755E4FC0160817181828193810E94C8
:103510009921DC01CB01F80180839183A283B383DD
:10352000CE018B5F9E4F20E030E040E85FE3FC017E
:1035300060817181828193810E94132188234CF4E0
:10354000CE01875F9E4F21E030E0FC013183208374
:103550006CC0CE018B5F9E4F20E03FEF4FE757E4FA
:10356000FC0160817181828193810E9494211816EF
:103570000CF049C0CE01CF9620E030E040E251E4AB
:10358000FC0160817181828193810E949921DC011B
:10359000CB018E01075F1E4FBC01CD010E94182197
:1035A000DC01CB01F8019183808324C0CE01855FCB
:1035B0009E4F20E931E0FC0131832083CE01855FFD
:1035C0009E4FFC01808191810197F1F79E01255F5B
:1035D0003E4FF90191838083CE01875F9E4F9E010C
:1035E000275F3E4FF9012081318121503109FC01D3
:1035F00031832083CE01875F9E4FFC0180819181C2
:10360000892BA1F62CC08E01075F1E4FCE018B5F68
:103610009E4FFC0160817181828193810E941821FB
:10362000DC01CB01F80191838083CE01835F9E4F43
:103630009E01275F3E4FF90120813181FC013183DA
:103640002083CE01835F9E4FFC0180819181019791
:10365000F1F79E01235F3E4FF901918380838A81B8
:103660008F5F8A83D5C081E00E94D7030E94A90B97
:1036700080E80E94D70380E00E94330781E00E9427
:1036800033079E01295B3F4F80E090E8ABE3B5E450
:10369000F90180839183A283B3838E01015F1E4F62
:1036A000CE01895B9F4F20E030E04AE755E4FC0102
:1036B00060817181828193810E949921DC01CB011B
:1036C000F80180839183A283B383CE01815F9E4FF3
:1036D00020E030E040E85FE3FC016081718182819D
:1036E00093810E94132188234CF4CE018D5E9E4F5E
:1036F00021E030E0FC01318320836DC0CE01815F89
:103700009E4F20E03FEF4FE757E4FC01608171815D
:10371000828193810E94942118160CF04AC0CE0138
:10372000895B9F4F20E030E040E251E4FC01608182
:103730007181828193810E949921DC01CB018E01EC
:103740000D5E1E4FBC01CD010E941821DC01CB0192
:10375000F8019183808324C0CE018B5E9E4F20E9C7
:1037600031E0FC0131832083CE018B5E9E4FFC0152
:10377000808191810197F1F79E012B5E3E4FF90107
:1037800091838083CE018D5E9E4F9E012D5E3E4FC4
:10379000F9012081318121503109FC0131832083DD
:1037A000CE018D5E9E4FFC0180819181892BA1F617
:1037B0002CC08E010D5E1E4FCE01815F9E4FFC011D
:1037C00060817181828193810E941821DC01CB018B
:1037D000F80191838083CE01895E9E4F9E012D5E0C
:1037E0003E4FF90120813181FC0131832083CE01DC
:1037F000895E9E4FFC01808191810197F1F79E01C6
:10380000295E3E4FF9019183808389818F5F89838F
:1038100081E00E94D7039E01215B3F4F80E090E052
:10382000AAE7B4E4F90180839183A283B3838E0174
:10383000035D1E4FCE01815B9F4F20E030E04AE7E1
:1038400055E4FC0160817181828193810E949921FC
:10385000DC01CB01F80180839183A283B383CE0185
:10386000835D9E4F20E030E040E85FE3FC01608133
:103870007181828193810E94132188234CF4CE01AF
:103880008F5C9E4F21E030E0FC01318320836DC0CE
:10389000CE01835D9E4F20E03FEF4FE757E4FC01F0
:1038A00060817181828193810E94942118160CF0AD
:1038B0004AC0CE01815B9F4F20E030E040E251E4FE
:1038C000FC0160817181828193810E949921DC01D8
:1038D000CB018E010F5C1E4FBC01CD010E9418214F
:1038E000DC01CB01F8019183808324C0CE018D5C83
:1038F0009E4F20E931E0FC0131832083CE018D5CB5
:103900009E4FFC01808191810197F1F79E012D5C12
:103910003E4FF90191838083CE018F5C9E4F9E01C3
:103920002F5C3E4FF9012081318121503109FC018A
:1039300031832083CE018F5C9E4FFC018081918179
:10394000892BA1F62CC08E010F5C1E4FCE01835D2A
:103950009E4FFC0160817181828193810E941821B8
:10396000DC01CB01F80191838083CE018B5C9E4FFB
:103970009E012F5C3E4FF90120813181FC01318392
:103980002083CE018B5C9E4FFC0180819181019749
:10399000F1F79E012B5C3E4FF9019183808340E05B
:1039A00060E08FEE90E00E94D2099E012D5A3F4FB9
:1039B00080E090E0AAE7B4E4F90180839183A283D8
:1039C000B3838E010D5D1E4FCE018D5A9F4F20E0B7
:1039D00030E04AE755E4FC01608171818281938186
:1039E0000E949921DC01CB01F80180839183A2839D
:1039F000B383CE018D5D9E4F20E030E040E85FE371
:103A0000FC0160817181828193810E94132188234E
:103A10004CF4CE01895D9E4F21E030E0FC01318302
:103A200020836DC0CE018D5D9E4F20E03FEF4FE7BC
:103A300057E4FC0160817181828193810E9494210D
:103A400018160CF04AC0CE018D5A9F4F20E030E08E
:103A500040E251E4FC0160817181828193810E9486
:103A60009921DC01CB018E01095D1E4FBC01CD0106
:103A70000E941821DC01CB01F8019183808324C0CE
:103A8000CE01875D9E4F20E931E0FC013183208328
:103A9000CE01875D9E4FFC01808191810197F1F7F6
:103AA0009E01275D3E4FF90191838083CE01895DA0
:103AB0009E4F9E01295D3E4FF901208131812150A9
:103AC0003109FC0131832083CE01895D9E4FFC01C9
:103AD00080819181892BA1F62CC08E01095D1E4F3A
:103AE000CE018D5D9E4FFC01608171818281938149
:103AF0000E941821DC01CB01F80191838083CE0163
:103B0000855D9E4F9E01295D3E4FF90120813181E7
:103B1000FC0131832083CE01855D9E4FFC018081B5
:103B200091810197F1F79E01255D3E4FF901918347
:103B3000808381E00E94D70340E060E08CEF90E05A
:103B40000E94D2098981805D0E9433079E01255B16
:103B50003F4F80E090E0A0E0B0E4F90180839183E2
:103B6000A283B3838E01075E1E4FCE01855B9F4FFC
:103B700020E030E04AE755E4FC01608171818281F8
:103B800093810E949921DC01CB01F801808391830C
:103B9000A283B383CE01875E9E4F20E030E040E8F1
:103BA0005FE3FC0160817181828193810E94132116
:103BB00088234CF4CE01835E9E4F21E030E0FC016F
:103BC000318320836DC0CE01875E9E4F20E03FEFA2
:103BD0004FE757E4FC0160817181828193810E94EB
:103BE000942118160CF04AC0CE01855B9F4F20E04F
:103BF00030E040E251E4FC01608171818281938177
:103C00000E949921DC01CB018E01035E1E4FBC0195
:103C1000CD010E941821DC01CB01F8019183808342
:103C200024C0CE01815E9E4F20E931E0FC0131834A
:103C30002083CE01815E9E4FFC018081918101979E
:103C4000F1F79E01215E3E4FF90191838083CE0101
:103C5000835E9E4F9E01235E3E4FF901208131819C
:103C600021503109FC0131832083CE01835E9E4FB8
:103C7000FC0180819181892BA1F62CC08E01035E0D
:103C80001E4FCE01875E9E4FFC0160817181828153
:103C900093810E941821DC01CB01F801918380837C
:103CA000CE018F5D9E4F9E01235E3E4FF901208124
:103CB0003181FC0131832083CE018F5D9E4FFC0159
:103CC000808191810197F1F79E012F5D3E4FF901AF
:103CD0009183808340E061E085E091E00E94D20919
:103CE0008A81805D0E9433070000CA5CDE4F0FB6F8
:103CF000F894DEBF0FBECDBFDF91CF911F910F9122
:103D00000895CF93DF93CDB7DEB7EA970FB6F89457
:103D1000DEBF0FBECDBF1A82198240E060E08EE0A8
:103D200091E00E94D20980E090E0A0E0B0E48F87AB
:103D3000988BA98BBA8B20E030E04AE755E46F8579
:103D4000788989899A890E949921DC01CB018B8B22
:103D50009C8BAD8BBE8B20E030E040E85FE36B894D
:103D60007C898D899E890E94132188232CF481E00F
:103D700090E0988F8F8B3FC020E03FEF4FE757E4F4
:103D80006B897C898D899E890E94942118164CF537
:103D900020E030E040E251E46F85788989899A8992
:103DA0000E949921DC01CB01BC01CD010E941821A8
:103DB000DC01CB01988F8F8B0FC080E991E09A8F47
:103DC000898F898D9A8D0197F1F79A8F898F8F89C5
:103DD000988D0197988F8F8B8F89988D892B69F794
:103DE00014C06B897C898D899E890E941821DC0111
:103DF000CB01988F8F8B8F89988D9C8F8B8F8B8D1C
:103E00009C8D0197F1F79C8F8B8F40E061E08EE1F4
:103E100091E00E94D2091A821982EFC080E090E0FE
:103E2000AAEFB3E48B879C87AD87BE8720E030E0A4
:103E30004AE755E46B857C858D859E850E94992196
:103E4000DC01CB018FA398A7A9A7BAA720E030E097
:103E500040E85FE36FA178A589A59AA50E94132188
:103E600088232CF481E090E09CA78BA73FC020E042
:103E70003FEF4FE757E46FA178A589A59AA50E9467
:103E8000942118164CF520E030E040E251E46B85B7
:103E90007C858D859E850E949921DC01CB01BC012A
:103EA000CD010E941821DC01CB019CA78BA70FC07C
:103EB00080E991E09EA78DA78DA59EA50197F1F7BA
:103EC0009EA78DA78BA59CA501979CA78BA78BA5CB
:103ED0009CA5892B69F714C06FA178A589A59AA51F
:103EE0000E941821DC01CB019CA78BA78BA59CA568
:103EF00098AB8FA78FA598A90197F1F798AB8FA7DB
:103F00008CE10E94D70380E090E0AAEFB3E48B83BA
:103F10009C83AD83BE8320E030E04AE755E46B81AB
:103F20007C818D819E810E949921DC01CB018D8F46
:103F30009E8FAF8FB8A320E030E040E85FE36D8D47
:103F40007E8D8F8D98A10E94132188232CF481E00F
:103F500090E09AA389A33FC020E03FEF4FE757E4EA
:103F60006D8D7E8D8F8D98A10E94942118164CF531
:103F700020E030E040E251E46B817C818D819E81C4
:103F80000E949921DC01CB01BC01CD010E941821C6
:103F9000DC01CB019AA389A30FC080E991E09CA327
:103FA0008BA38BA19CA10197F1F79CA38BA389A163
:103FB0009AA101979AA389A389A19AA1892B69F74C
:103FC00014C06D8D7E8D8F8D98A10E941821DC010B
:103FD000CB019AA389A389A19AA19EA38DA38DA1A8
:103FE0009EA10197F1F79EA38DA388E10E94D703BC
:103FF00089819A8101969A83898389819A8105971B
:1040000008F40CCF81E00E94D70340E060E08EE22C
:1040100091E00E94D20940E061E085E391E00E94D6
:10402000D20980E090E0AAEFB4E48F839887A98753
:10403000BA8720E030E04AE755E46F8178858985CA
:104040009A850E949921DC01CB0189AB9AABABAB7D
:10405000BCAB20E030E040E85FE369A97AA98BA916
:104060009CA90E94132188232CF481E090E09EAB50
:104070008DAB3FC020E03FEF4FE757E469A97AA935
:104080008BA99CA90E94942118164CF520E030E0E1
:1040900040E251E46F81788589859A850E94992153
:1040A000DC01CB01BC01CD010E941821DC01CB0158
:1040B0009EAB8DAB0FC080E991E098AF8FAB8FA91D
:1040C00098AD0197F1F798AF8FAB8DA99EA9019795
:1040D0009EAB8DAB8DA99EA9892B69F714C069A9E8
:1040E0007AA98BA99CA90E941821DC01CB019EAB67
:1040F0008DAB8DA99EA99AAF89AF89AD9AAD019775
:10410000F1F79AAF89AF81E00E94D7030E94D70CE4
:104110000000EA960FB6F894DEBF0FBECDBFDF9168
:10412000CF910895CF93DF93CDB7DEB72E970FB61B
:10413000F894DEBF0FBECDBF0E949E0280E090E0EB
:10414000A0EAB0E489839A83AB83BC8320E030E0AB
:104150004AE755E469817A818B819C810E9499218B
:10416000DC01CB018D839E83AF83B88720E030E0F4
:1041700040E85FE36D817E818F8198850E941321E5
:1041800088232CF481E090E09A8789873FC020E063
:104190003FEF4FE757E46D817E818F8198850E94C4
:1041A000942118164CF520E030E040E251E469819A
:1041B0007A818B819C810E949921DC01CB01BC0119
:1041C000CD010E941821DC01CB019A8789870FC09D
:1041D00080E991E09C878B878B859C850197F1F71F
:1041E0009C878B8789859A8501979A878987898596
:1041F0009A85892B69F714C06D817E818F8198859E
:104200000E941821DC01CB019A87898789859A85CC
:104210009E878D878D859E850197F1F79E878D8777
:104220000E94811EFFCF0E94472108F481E008957B
:104230000E94732188F09F5798F0B92F9927B751A2
:10424000B0F0E1F0660F771F881F991F1AF0BA953A
:10425000C9F714C0B13091F00E948D21B1E00895EA
:104260000C948D21672F782F8827B85F39F0B93FDC
:10427000CCF3869577956795B395D9F73EF49095ED
:104280008095709561957F4F8F4F9F4F0895990F3F
:104290000008550FAA0BE0E8FEEF16161706E80710
:1042A000F907C0F012161306E407F50798F0621B31
:1042B000730B840B950B39F40A2661F0232B242B06
:1042C000252B21F408950A2609F4A140A6958FEF25
:1042D000811D811D089557FD9058440F551F59F0B9
:1042E0005F3F71F04795880F97FB991F61F09F3FE3
:1042F00079F087950895121613061406551FF2CF0C
:104300004695F1DF08C0161617061806991FF1CF5B
:1043100086957105610508940895E894BB27662782
:104320007727CB0197F908950E94472108F48FEF72
:1043300008950E94AC210C941D220E940F2238F097
:104340000E94162220F0952311F00C9406220C9462
:104350000C2211240C948E210E946B2170F3959FE6
:10436000C1F3950F50E0551F629FF001729FBB276C
:10437000F00DB11D639FAA27F00DB11DAA1F649F08
:104380006627B00DA11D661F829F2227B00DA11DBB
:10439000621F739FB00DA11D621F839FA00D611D41
:1043A000221F749F3327A00D611D231F849F600D62
:1043B000211D822F762F6A2F11249F5750409AF08B
:1043C000F1F088234AF0EE0FFF1FBB1F661F771F17
:1043D000881F91505040A9F79E3F510580F00C94E2
:1043E00006220C948E215F3FE4F3983ED4F3869529
:1043F00077956795B795F795E7959F5FC1F7FE2B82
:10440000880F911D9695879597F9089597F99F675D
:1044100080E870E060E008959FEF80EC089500244C
:104420000A941616170618060906089500240A9419
:1044300012161306140605060895092E0394000C9F
:1044400011F4882352F0BB0F40F4BF2B11F460FF2E
:1044500004C06F5F7F4F8F4F9F4F0895F894FFCF39
:104460003761736E206D7A616B72203830353100A0
:104470006D656E206D617A6964693F00484F4E47F3
:104480004B4F4E47206973004361706974616C2023
:104490006F66204368696E613F0043757272656E96
:1044A0006379206F66004368696C652069732052E8
:1044B000756265653F004361706974616C4F662089
:1044C0004368696C65006973204D61697075203FB0
:1044D00000656E64206F6620776F726C647761721E
:1044E0000074776F2069732031393434203F0046DF
:1044F000696E616C20526573756C740052696768EF
:1045000074203D200057726F6E67203D2000776554
:104510006C636F6D6520746F2047616D65004C653D
:10452000742773205374617274205E5F5E00303AAA
:0C4530002079657300313A204E6F0000C6
:00000001FF
