:100000000C942A000C9447000C9447000C94470071
:100010000C9447000C9447000C9447000C94470044
:100020000C9447000C9447000C9447000C94470034
:100030000C9447000C9447000C9447000C94470024
:100040000C9447000C9447000C9447000C94470014
:100050000C94470011241FBECFE5D8E0DEBFCDBF12
:1000600011E0A0E6B0E0E4ECF2E102C005900D92F0
:10007000A239B107D9F721E0A2E9B1E001C01D9290
:10008000A239B207E1F70E9484050C9460090C9430
:100090000000CF93DF9300D0CDB7DEB789836A83AA
:1000A0008A81882309F078C089818830C8F48BE37D
:1000B00090E02BE330E0F9012081622F2981222F8B
:1000C00030E0A9014770552721E030E002C0220F3F
:1000D000331F4A95E2F720952623FC0120835CC05C
:1000E00089818830E0F089818031C8F488E390E02C
:1000F00028E330E0F9012081622F2981222F30E0AE
:10010000A9014770552721E030E002C0220F331FBC
:100110004A95E2F720952623FC0120833DC0898182
:100120008031E0F089818831C8F485E390E025E3EF
:1001300030E0F9012081622F2981222F30E0A901CE
:100140004770552721E030E002C0220F331F4A9547
:10015000E2F720952623FC0120831EC08981883187
:10016000D8F089818032C0F482E390E022E330E06D
:10017000F9012081622F2981222F30E0A9014770E7
:10018000552721E030E002C0220F331F4A95E2F7E5
:1001900020952623FC0120838A81813009F075C0D7
:1001A00089818830C0F48BE390E02BE330E0F901E3
:1001B0002081622F2981222F30E0A9014770552725
:1001C00021E030E002C0220F331F4A95E2F7262BD0
:1001D000FC0120835AC089818830D8F08981803120
:1001E000C0F488E390E028E330E0F9012081622F39
:1001F0002981222F30E0A9014770552721E030E006
:1002000002C0220F331F4A95E2F7262BFC01208300
:100210003CC089818031D8F089818831C0F485E380
:1002200090E025E330E0F9012081622F2981222F1F
:1002300030E0A9014770552721E030E002C0220FCD
:10024000331F4A95E2F7262BFC0120831EC08981CB
:100250008831D8F089818032C0F482E390E022E3D3
:1002600030E0F9012081622F2981222F30E0A9019D
:100270004770552721E030E002C0220F331F4A9516
:10028000E2F7262BFC01208300C000000F900F90A6
:10029000DF91CF910895CF93DF9300D0CDB7DEB734
:1002A0008A8319828A81883008F589E390E0FC010D
:1002B0008081482F8A81882F90E09C012770332706
:1002C00081E090E002C0880F991F2A95E2F784230D
:1002D000882F90E02A81222F30E02770332702C038
:1002E000959587952A95E2F7898376C08A8188302B
:1002F00020F18A81803108F586E390E0FC0180815D
:10030000482F8A81882F90E09C012770332781E055
:1003100090E002C0880F991F2A95E2F78423882F66
:1003200090E02A81222F30E02770332702C0959574
:1003300087952A95E2F789834FC08A81803120F121
:100340008A81883108F583E390E0FC018081482FA1
:100350008A81882F90E09C012770332781E090E00C
:1003600002C0880F991F2A95E2F78423882F90E016
:100370002A81222F30E02770332702C09595879578
:100380002A95E2F7898328C08A81883120F18A8101
:10039000803208F580E390E0FC018081482F8A815B
:1003A000882F90E09C012770332781E090E002C005
:1003B000880F991F2A95E2F78423882F90E02A81DD
:1003C000222F30E02770332702C0959587952A9514
:1003D000E2F7898301C0198289810F900F90DF9124
:1003E000CF910895CF93DF9300D0CDB7DEB7898347
:1003F0006A838A81882309F078C089818830C8F4AB
:100400008AE390E02AE330E0F9012081622F29811C
:10041000222F30E0A9014770552721E030E002C0CB
:10042000220F331F4A95E2F720952623FC012083F3
:100430005CC089818830E0F089818031C8F487E32D
:1004400090E027E330E0F9012081622F2981222FFB
:1004500030E0A9014770552721E030E002C0220FAB
:10046000331F4A95E2F720952623FC0120833DC0E7
:1004700089818031E0F089818831C8F484E390E09B
:1004800024E330E0F9012081622F2981222F30E01E
:10049000A9014770552721E030E002C0220F331F29
:1004A0004A95E2F720952623FC0120831EC089810E
:1004B0008831D8F089818032C0F481E390E021E373
:1004C00030E0F9012081622F2981222F30E0A9013B
:1004D0004770552721E030E002C0220F331F4A95B4
:1004E000E2F720952623FC0120838A81813009F0E0
:1004F00075C089818830C0F48AE390E02AE330E057
:10050000F9012081622F2981222F30E0A901477053
:10051000552721E030E002C0220F331F4A95E2F751
:10052000262BFC0120835AC089818830D8F089812C
:100530008031C0F487E390E027E330E0F9012081C7
:10054000622F2981222F30E0A9014770552721E031
:1005500030E002C0220F331F4A95E2F7262BFC0140
:1005600020833CC089818031D8F089818831C0F4F2
:1005700084E390E024E330E0F9012081622F2981B7
:10058000222F30E0A9014770552721E030E002C05A
:10059000220F331F4A95E2F7262BFC0120831EC051
:1005A00089818831D8F089818032C0F481E390E07C
:1005B00021E330E0F9012081622F2981222F30E0F0
:1005C000A9014770552721E030E002C0220F331FF8
:1005D0004A95E2F7262BFC01208300C000000F9013
:1005E0000F90DF91CF910895CF93DF93CDB7DEB712
:1005F00061E081E00E94F20161E082E00E94F2018C
:1006000061E083E00E94F20161E084E00E94F20177
:1006100061E085E00E94F20161E086E00E94F20163
:1006200061E087E00E94F20183E30E94290382E3F4
:100630000E94290388E20E9429038CE00E9429037A
:1006400082E00E9429030E941E050000DF91CF91E5
:100650000895CF93DF931F92CDB7DEB7898360E013
:1006600081E00E94490062E070E080E090E00E943A
:10067000D60560E082E00E94490062E070E080E020
:1006800090E00E94D6058981882F90E0807199279B
:100690009595879595958795959587959595879542
:1006A000682F84E00E9449008981882F90E0807241
:1006B000992795958795959587959595879595957E
:1006C000879595958795682F85E00E9449008981D7
:1006D000882F90E080749927082E892F000C881F9E
:1006E000990B000C881F991F682F86E00E94490013
:1006F0008981881F8827881F682F87E00E9449000A
:1007000061E083E00E94490062E070E080E090E0F8
:100710000E94D60560E083E00E94490062E070E03C
:1007200080E090E00E94D6058981882F90E0829534
:100730009295907F9827807F98278071992795952B
:100740008795959587959595879595958795682F24
:1007500084E00E9449008981882F90E082959295DB
:10076000907F9827807F9827807299279595879505
:100770009595879595958795959587959595879561
:10078000682F85E00E9449008981882F90E082953A
:100790009295907F9827807F982780749927082EBC
:1007A000892F000C881F990B000C881F991F682F38
:1007B00086E00E9449008981882F90E08295929579
:1007C000907F9827807F982780789927880F892F96
:1007D000881F990B682F87E00E94490061E083E041
:1007E0000E94490062E070E080E090E00E94D6053F
:1007F00060E083E00E94490062E070E080E090E009
:100800000E94D60500000F90DF91CF910895CF93FD
:10081000DF931F92CDB7DEB7898361E081E00E944C
:10082000490062E070E080E090E00E94D60560E060
:1008300082E00E94490062E070E080E090E00E9467
:10084000D6058981882F90E08071992795958795A5
:10085000959587959595879595958795682F84E0CB
:100860000E9449008981882F90E080729927959590
:100870008795959587959595879595958795959560
:100880008795682F85E00E9449008981882F90E034
:1008900080749927082E892F000C881F990B000C53
:1008A000881F991F682F86E00E9449008981881F50
:1008B0008827881F682F87E00E94490061E083E055
:1008C0000E94490062E070E080E090E00E94D6055E
:1008D00060E083E00E94490062E070E080E090E028
:1008E0000E94D6058981882F90E082959295907F0D
:1008F0009827807F9827807199279595879595955A
:1009000087959595879595958795682F84E00E94A2
:1009100049008981882F90E082959295907F982751
:10092000807F9827807299279595879595958795CB
:10093000959587959595879595958795682F85E0E9
:100940000E9449008981882F90E082959295907F3E
:100950009827807F982780749927082E892F000C6C
:10096000881F990B000C881F991F682F86E00E9432
:1009700049008981882F90E082959295907F9827F1
:10098000807F982780789927880F892F881F990B57
:10099000682F87E00E94490061E083E00E944900DF
:1009A00062E070E080E090E00E94D60560E083E0C5
:1009B0000E94490062E070E080E090E00E94D6056D
:1009C00000000F90DF91CF910895CF93DF9300D077
:1009D000CDB7DEB79A8389830BC089819A81FC01E8
:1009E00080810E94070489819A8101969A83898374
:1009F00089819A81FC018081882379F700000F901A
:100A00000F90DF91CF910895CF93DF9300D000D066
:100A1000CDB7DEB79A8389836B834C836C818B81DE
:100A20000E94290589819A810E94E50400000F90A7
:100A30000F900F900F90DF91CF910895CF93DF9398
:100A4000CDB7DEB781E00E9429030000DF91CF918E
:100A50000895CF93DF9300D0CDB7DEB789836A8343
:100A60008981813029F48A8180580E94290307C036
:100A70008981823021F48A8180540E9429030000F8
:100A80000F900F90DF91CF910895CF93DF9300D017
:100A900000D0CDB7DEB78A837C836B838A818830B0
:100AA00040F58A81882F90E00896880F880F880F7C
:100AB0000E94290362E070E080E090E00E94D60589
:100AC000198214C08981882F90E02B813C81820F8C
:100AD000931FFC0180810E94070462E070E080E0C7
:100AE00090E00E94D60589818F5F89838981883053
:100AF00048F380E80E94290300000F900F900F90A8
:100B00000F90DF91CF910895CF93DF93CDB7DEB7EC
:100B1000CF55D1090FB6F894DEBF0FBECDBF25E586
:100B2000E0E6F0E0CE010196DC0101900D922A95FD
:100B3000E1F7CE018A5A9F4F25E0E5EBF0E0DC01BA
:100B400001900D922A95E1F70E94BB050E94F402E4
:100B50009E012A5A3F4FCE01855A9F4FA901BC01E1
:100B6000CE0101960E946F0668E873E180E090E094
:100B70000E94D605EDCFCF93DF93CDB7DEB782E5E8
:100B800090E0FC0110828CE590E029EFFC012083CD
:100B900088E590E022E0FC01208383E590E02BE0F3
:100BA000FC0120830000DF91CF910895CF93DF9364
:100BB00000D000D000D0CDB7DEB76B837C838D83AF
:100BC0009E8382E590E0FC0110821A82198217C090
:100BD000000088E590E0FC018081882F90E0827021
:100BE000992795958795892BA1F388E590E022E0D8
:100BF000FC01208389819A8101969A838983898166
:100C00009A819C0140E050E08B819C81AD81BE8146
:100C1000281739074A075B07D8F2000026960FB657
:100C2000F894DEBF0FBECDBFDF91CF910895CF9373
:100C3000DF93CDB7DEB760E084E10E94F20160E0AF
:100C40008AE00E94F2010000DF91CF910895CF93D6
:100C5000DF931F92CDB7DEB7198221C065E081E036
:100C60000E9429058AEB90E00E94E50464E670E0AA
:100C700080E090E00E94D60560E082E00E942905B5
:100C800082EC90E00E94E50464E670E080E090E091
:100C90000E94D6050E941E0589818F5F8983898104
:100CA0008530E0F260E081E00E94290583ED90E06C
:100CB0000E94E50461E082E00E94290585EE90E053
:100CC0000E94E50400008AE00E944B018823D9F3CA
:100CD0000E941E0500000F90DF91CF910895CF93E1
:100CE000DF93CDB7DEB728970FB6F894DEBF0FBEFF
:100CF000CDBF9C838B837E836D8358874F830E94F7
:100D000017060E94270681E089831A82A9C08A817A
:100D1000282F30E041E1429FC001439F900D1124F4
:100D20002B813C81820F931F40E061E00E9404050B
:100D300040E062E08EEF90E00E9404054AE062E04D
:100D400085E091E00E94040581E0898380C084E110
:100D50000E944B018823E1F1000084E10E944B01D5
:100D60008823D9F78A81882F90E02D813E81820FD8
:100D7000931F21E0FC0120838A81882F90E02D8140
:100D80003E81820F931FFC0140818A81882F90E071
:100D90002F813885820F931FFC018081481761F4F1
:100DA0000E941E050E94840760ED77E080E090E0DD
:100DB0000E94D60519824BC00E941E050E9472082F
:100DC00060ED77E080E090E00E94D60519823FC098
:100DD0008AE00E944B018823D1F100008AE00E9442
:100DE0004B018823D9F78A81882F90E02D813E819D
:100DF000820F931FFC0110828A81882F90E02D8141
:100E00003E81820F931FFC0140818A81882F90E0F0
:100E10002F813885820F931FFC018081481761F470
:100E20000E941E050E94840760ED77E080E090E05C
:100E30000E94D60519820BC00E941E050E947208EE
:100E400060ED77E080E090E00E94D605198289810C
:100E5000882309F07CCF0E941E058A818F5F8A83D8
:100E60008A81853008F453CF2F8138858D819E810A
:100E7000B9010E944507000028960FB6F894DEBF1E
:100E80000FBECDBFDF91CF910895CF93DF9300D0F8
:100E900000D000D0CDB7DEB79C838B837E836D837B
:100EA00019821A821AC08981882F90E02B813C8197
:100EB000820F931FFC0140818981882F90E02D8152
:100EC0003E81820F931FFC018081481719F48A81AB
:100ED0008F5F8A8389818F5F89838981853018F349
:100EE0000E941E058BE091E00E94E5048A81805DEE
:100EF0000E940704000026960FB6F894DEBF0FBECE
:100F0000CDBFDF91CF910895CF93DF93CDB7DEB7FB
:100F1000C454D1090FB6F894DEBF0FBECDBF8AE12D
:100F200091E09A83898383E291E09C838B8388E0BC
:100F3000EEE2F1E0DE01159601900D928A95E1F75F
:100F400088E0E6E3F1E0DE011D9601900D928A95BE
:100F5000E1F788E0EEE3F1E0DE01559601900D92B5
:100F60008A95E1F788E0E6E4F1E0DE015D96019024
:100F70000D928A95E1F788E0EEE4F1E0DE019596C6
:100F800001900D928A95E1F788E0E6E5F1E0DE0157
:100F90009D9601900D928A95E1F788E0EEE5F1E0EB
:100FA000DE01D59601900D928A95E1F788E0E6E69C
:100FB000F1E0DE01DD9601900D928A95E1F7CE0118
:100FC0000596BC0180E00E944505CE010D96BC014E
:100FD00081E00E944505CE014596BC0182E00E9459
:100FE0004505CE014D96BC0183E00E944505CE012A
:100FF0008596BC0184E00E944505CE018D96BC011A
:1010000085E00E944505CE01C596BC0186E00E94A0
:101010004505CE01CD96BC0187E00E94450580E0E4
:101020000E94070462E070E080E090E00E94D60534
:1010300081E00E94070462E070E080E090E00E949E
:10104000D60582E00E94070462E070E080E090E054
:101050000E94D60583E00E94070462E070E080E011
:1010600090E00E94D60589819A8147E061E00E9464
:10107000040560E082E00E94290584E00E940704E4
:1010800062E070E080E090E00E94D60585E00E947A
:10109000070462E070E080E090E00E94D60586E000
:1010A0000E94070462E070E080E090E00E94D605B4
:1010B00087E00E94070462E070E080E090E00E9418
:1010C000D6058B819C8146E062E00E940405000009
:1010D000CC5BDF4F0FB6F894DEBF0FBECDBFDF9104
:1010E000CF910895CF93DF93CDB7DEB7C454D10924
:1010F0000FB6F894DEBF0FBECDBF8EE691E09A83A7
:10110000898387E791E09C838B8388E0EEE2F1E0BE
:10111000DE01159601900D928A95E1F788E0E6E3ED
:10112000F1E0DE011D9601900D928A95E1F788E0CD
:10113000EEE3F1E0DE01559601900D928A95E1F71C
:1011400088E0E6E4F1E0DE015D9601900D928A957B
:10115000E1F788E0EEE4F1E0DE01959601900D9272
:101160008A95E1F788E0E2E8F1E0DE019D960190E2
:101170000D928A95E1F788E0EAE8F1E0DE01D59684
:1011800001900D928A95E1F788E0E6E6F1E0DE0154
:10119000DD9601900D928A95E1F7CE010596BC018E
:1011A00080E00E944505CE010D96BC0181E00E94C1
:1011B0004505CE014596BC0182E00E944505CE0161
:1011C0004D96BC0183E00E944505CE018596BC0189
:1011D00084E00E944505CE018D96BC0185E00E9409
:1011E0004505CE01C596BC0186E00E944505CE01AD
:1011F000CD96BC0187E00E94450580E00E9407046F
:1012000062E070E080E090E00E94D60581E00E94FC
:10121000070462E070E080E090E00E94D60582E082
:101220000E94070462E070E080E090E00E94D60532
:1012300083E00E94070462E070E080E090E00E949A
:10124000D60589819A8147E061E00E94040560E04B
:1012500082E00E94290584E00E94070462E070E0B9
:1012600080E090E00E94D60585E00E94070462E0DD
:1012700070E080E090E00E94D60586E00E940704BE
:1012800062E070E080E090E00E94D60587E00E9476
:10129000070462E070E080E090E00E94D6058B8158
:1012A0009C8146E062E00E9404050000CC5BDF4FB9
:1012B0000FB6F894DEBF0FBECDBFDF91CF9108957A
:0412C000F894FFCFD0
:1012C4003236332B3134322B3533333D3933380016
:1012D40000283336382A35292B34373D313838380D
:1012E4000000313633312F3233332A38373D36302C
:1012F400390000283935322A32292F373D32373127
:10130400000000003635372A32332A323D3330327A
:101314003232300000010001000057656C636F6DCC
:101324006500546F204E6577204368616C6C656E70
:10133400676500496620796F752061726520726562
:101344006164792000507265737320627574746FE0
:101354006E203120746F20737461727420004230E7
:101364002D5945530042312D4E4F00594F555220AF
:1013740053434F52452049532000427261766F20F7
:101384003A2900596F7520446964204974000001AA
:101394000204081010101F000606000000001F00C1
:1013A4000C0C0000000000100804020101011010E0
:1013B400100804020100000010100807001F0000BC
:1013C4000101021C001F0101010204081000536FF7
:1013D400727279203A280054727920416761696EEB
:1013E4002100000708101000001F001C020101006A
:0213F400001FD8
:00000001FF
