S00B000044494F2E737265633D
S11300000C942A000C9447000C9447000C9447006D
S11300100C9447000C9447000C9447000C94470040
S11300200C9447000C9447000C9447000C94470030
S11300300C9447000C9447000C9447000C94470020
S11300400C9447000C9447000C9447000C94470010
S11300500C94470011241FBECFE5D8E0DEBFCDBF0E
S113006010E0A0E6B0E0E2E4F9E202C005900D92EF
S1130070AA3FB107D9F720E0AAEFB0E001C01D9272
S1130080AC3FB207E1F70E9473130C949F140C94D5
S11300900000CF93DF93CDB7DEB780E40E944A0D12
S11300A080E00E94600F8AE00E94600F80E00E945E
S11300B0600F81E10E94600F8AE00E94600F84E07B
S11300C00E94600F80E00E94600F80E00E94600F39
S11300D00000DF91CF910895CF93DF93CDB7DEB7C2
S11300E062970FB6F894DEBF0FBECDBF8F87688BC3
S11300F05A8B498B89899A89FC01099568898F856E
S11301000E942C1380E090E0A0EAB0E489839A83F3
S1130110AB83BC8320E030E04AE755E469817A810F
S11301208B819C810E940A14DC01CB018D839E8308
S1130130AF83B88720E030E040E85FE36D817E81E3
S11301408F8198850E94841388232CF481E090E0A9
S11301509A8789873FC020E03FEF4FE757E46D81DE
S11301607E818F8198850E94051418164CF520E035
S113017030E040E251E469817A818B819C810E9464
S11301800A14DC01CB01BC01CD010E948913DC01FE
S1130190CB019A8789870FC080E991E09C878B8780
S11301A08B859C850197F1F79C878B8789859A8538
S11301B001979A87898789859A85892B69F714C05D
S11301C06D817E818F8198850E948913DC01CB012A
S11301D09A87898789859A859E878D878D859E854F
S11301E00197F1F79E878D8780E00E94600F0000E1
S11301F062960FB6F894DEBF0FBECDBFDF91CF91EC
S11302000895CF93DF93CDB7DEB780E40E944A0D03
S113021080E00E94600F81E00E94600F82E00E94F3
S1130220600F84E00E94600F88E00E94600F80E10C
S11302300E94600F80E10E94600F80E10E94600FC5
S113024088E40E944A0D8FE10E94600F80E00E94C2
S1130250600F80E00E94600F8CE00E94600F8CE0D1
S11302600E94600F80E00E94600F80E00E94600F97
S113027080E00E94600F80E50E944A0D8FE10E9499
S1130280600F80E00E94600F80E00E94600F8CE0AD
S11302900E94600F8CE00E94600F80E00E94600F5B
S11302A080E00E94600F80E00E94600F88E50E9459
S11302B04A0D80E00E94600F80E10E94600F88E098
S11302C00E94600F84E00E94600F82E00E94600F31
S11302D081E00E94600F81E00E94600F81E00E9433
S11302E0600F80E60E944A0D80E10E94600F80E169
S11302F00E94600F80E10E94600F88E00E94600FFE
S113030084E00E94600F82E00E94600F81E00E94FE
S1130310600F80E00E94600F88E60E944A0D80E032
S11303200E94600F80E00E94600F80E10E94600FD5
S113033080E10E94600F80E10E94600F8FE10E94C3
S1130340600F80E00E94600F8FE10E94600F80E7E1
S11303500E944A0D80E00E94600F80E00E94600FBE
S113036081E00E94600F81E00E94600F81E00E94A2
S1130370600F8FE10E94600F80E00E94600F8FE1A8
S11303800E94600F88E70E944A0D81E00E94600F7E
S113039081E00E94600F81E00E94600F81E00E9472
S11303A0600F82E00E94600F84E00E94600F88E08A
S11303B00E94600F80E10E94600F80E80E944A0D55
S11303C080E00E94600F81E00E94600F82E00E9442
S11303D0600F83E00E94600F60E081E00E942C13B4
S11303E084E00E94600F85E00E94600F86E00E9416
S11303F0600F87E00E94600F68E081E00E942C1388
S113040082E790E00E9402130000DF91CF910895EB
S1130410CF93DF93CDB7DEB780E40E944A0D80E02E
S11304200E94600F81E00E94600F82E00E94600FD2
S113043084E00E94600F88E00E94600F80E10E94C7
S1130440600F80E10E94600F80E10E94600F88E4E9
S11304500E944A0D8FE10E94600F80E00E94600FAD
S113046080E00E94600F8FE10E94600F84E00E9490
S1130470600F80E00E94600F80E00E94600F80E0C7
S11304800E94600F80E50E944A0D8FE10E94600F78
S113049080E00E94600F80E00E94600F8FE10E9464
S11304A0600F84E00E94600F80E00E94600F80E093
S11304B00E94600F80E00E94600F88E50E944A0D50
S11304C080E00E94600F8AE00E94600F88E00E9432
S11304D0600F84E00E94600F82E00E94600F81E060
S11304E00E94600F81E00E94600F81E00E94600F13
S11304F080E60E944A0D80E10E94600F80E10E9424
S1130500600F80E10E94600F88E00E94600F84E029
S11305100E94600F82E00E94600F8AE00E94600FD8
S113052080E00E94600F88E60E944A0D80E00E94ED
S1130530600F80E00E94600F8FE10E94600F80E1F5
S11305400E94600F80E10E94600F80E10E94600FB2
S113055080E00E94600F8FE10E94600F80E70E949C
S11305604A0D80E00E94600F80E00E94600F8FE1DE
S11305700E94600F81E00E94600F81E00E94600F82
S113058081E00E94600F80E00E94600F8FE10E9472
S1130590600F88E70E944A0D81E00E94600F81E0AD
S11305A00E94600F81E00E94600F82E00E94600F51
S11305B084E00E94600F88E00E94600F80E10E9446
S11305C0600F80E00E94600F80E80E944A0D80E086
S11305D00E94600F81E00E94600F82E00E94600F21
S11305E083E00E94600F60E081E00E942C1384E0AD
S11305F00E94600F85E00E94600F86E00E94600FF9
S113060087E00E94600F68E081E00E942C1389E774
S113061090E00E9402130000DF91CF910895CF93E0
S1130620DF93CDB7DEB70E94A00C60E084E10E94A6
S1130630FC0A60E08AE00E94FC0A0000DF91CF918E
S11306400895CF93DF93CDB7DEB7E9970FB6F8944B
S1130650DEBF0FBECDBF1982E7C149E450E060E0C0
S113066080E00E946C0042E060E085ED90E00E9432
S11306704E1380E090E0A8ECB3E48A839B83AC83C0
S1130680BD8320E030E04AE755E46A817B818C81B8
S11306909D810E940A14DC01CB0188AB99ABAAAB03
S11306A0BBAB20E030E040E85FE368A979A98AA900
S11306B09BA90E94841388232CF481E090E09DABD5
S11306C08CAB3FC020E03FEF4FE757E468A979A91E
S11306D08AA99BA90E94051418164CF520E030E065
S11306E040E251E46A817B818C819D810E940A14DD
S11306F0DC01CB01BC01CD010E948913DC01CB01DB
S11307009DAB8CAB0FC080E991E09FAB8EAB8EA903
S11307109FA90197F1F79FAB8EAB8CA99DA9019777
S11307209DAB8CAB8CA99DA9892B69F714C068A9D2
S113073079A98AA99BA90E948913DC01CB019DABED
S11307408CAB8CA99DA999AF88AF88AD99AD019761
S1130750F1F799AF88AF0E94681380E090E0A8ECAD
S1130760B3E48E839F83A887B98720E030E04AE70B
S113077055E46E817F81888599850E940A14DC0185
S1130780CB018EA39FA3A8A7B9A720E030E040E83F
S11307905FE36EA17FA188A599A50E948413882395
S11307A02CF481E090E09BA78AA73FC020E03FEFB4
S11307B04FE757E46EA17FA188A599A50E9405146F
S11307C018164CF520E030E040E251E46E817F8160
S11307D0888599850E940A14DC01CB01BC01CD01F6
S11307E00E948913DC01CB019BA78AA70FC080E973
S11307F091E09DA78CA78CA59DA50197F1F79DA7D6
S11308008CA78AA59BA501979BA78AA78AA59BA5C8
S1130810892B69F714C06EA17FA188A599A50E94B0
S11308208913DC01CB019BA78AA78AA59BA59FA757
S11308308EA78EA59FA50197F1F79FA78EA749E4E0
S113084050E061E081E00E946C0042E061E085EDEF
S113085090E00E944E1380E090E0A8ECB3E48A8715
S11308609B87AC87BD8720E030E04AE755E46A8582
S11308707B858C859D850E940A14DC01CB018C8FBD
S11308809D8FAE8FBF8F20E030E040E85FE36C8D3A
S11308907D8D8E8D9F8D0E94841388232CF481E09E
S11308A090E099A388A33FC020E03FEF4FE757E4CF
S11308B06C8D7D8D8E8D9F8D0E94051418164CF5C0
S11308C020E030E040E251E46A857B858C859D859B
S11308D00E940A14DC01CB01BC01CD010E948913E2
S11308E0DC01CB0199A388A30FC080E991E09BA30D
S11308F08AA38AA19BA10197F1F79BA38AA388A14C
S113090099A1019799A388A388A199A1892B69F733
S113091014C06C8D7D8D8E8D9F8D0E948913DC019A
S1130920CB0199A388A388A199A19DA38CA38CA191
S11309309DA10197F1F79DA38CA30E94681380E009
S113094090E0A8ECB3E48E879F87A88BB98B20E056
S113095030E04AE755E46E857F85888999890E944D
S11309600A14DC01CB018A8B9B8BAC8BBD8B20E002
S113097030E040E85FE36A897B898C899D890E9425
S1130980841388232CF481E090E09F8B8E8B3FC0EE
S113099020E03FEF4FE757E46A897B898C899D8982
S11309A00E94051418164CF520E030E040E251E4B2
S11309B06E857F85888999890E940A14DC01CB01A0
S11309C0BC01CD010E948913DC01CB019F8B8E8B6E
S11309D00FC080E991E0998F888F888D998D019758
S11309E0F1F7998F888F8E899F8901979F8B8E8BC2
S11309F08E899F89892B69F714C06A897B898C89C0
S1130A009D890E948913DC01CB019F8B8E8B8E897B
S1130A109F899B8F8A8F8A8D9B8D0197F1F79B8F7E
S1130A208A8F89818F5F89838981833008F415CE09
S1130A300000E9960FB6F894DEBF0FBECDBFDF917C
S1130A40CF910895CF93DF93CDB7DEB76C970FB6F0
S1130A50F894DEBF0FBECDBF8091FA00882309F061
S1130A6010C142E061E083EE90E00E944E1384E105
S1130A700E94010C813009F080C080E090E0A0EF7A
S1130A80B1E48D839E83AF83B88720E030E04AE7EA
S1130A9055E46D817E818F8198850E940A14DC0162
S1130AA0CB0189879A87AB87BC8720E030E040E898
S1130AB05FE369857A858B859C850E9484138823EE
S1130AC02CF481E090E09E878D873FC020E03FEFCB
S1130AD04FE757E469857A858B859C850E940514C8
S1130AE018164CF520E030E040E251E46D817E813F
S1130AF08F8198850E940A14DC01CB01BC01CD01D1
S1130B000E948913DC01CB019E878D870FC080E989
S1130B1091E0988B8F878F8598890197F1F7988B4F
S1130B208F878D859E8501979E878D878D859E8570
S1130B30892B69F714C069857A858B859C850E9409
S1130B408913DC01CB019E878D878D859E859A8BC9
S1130B50898B89899A890197F1F79A8B898B84E12A
S1130B600E94010C813009F08CC00E9468138091AE
S1130B70FA008F5F8093FA0084C08AE00E94010C1F
S1130B80813009F07EC080E090E0A0EFB1E4898379
S1130B909A83AB83BC8320E030E04AE755E4698163
S1130BA07A818B819C810E940A14DC01CB018B8B9E
S1130BB09C8BAD8BBE8B20E030E040E85FE36B891B
S1130BC07C898D899E890E94841388232CF481E07A
S1130BD090E0988F8F8B3FC020E03FEF4FE757E4C2
S1130BE06B897C898D899E890E94051418164CF5A1
S1130BF020E030E040E251E469817A818B819C817C
S1130C000E940A14DC01CB01BC01CD010E948913AE
S1130C10DC01CB01988F8F8B0FC080E991E09A8F14
S1130C20898F898D9A8D0197F1F79A8F898F8F8992
S1130C30988D0197988F8F8B8F89988D892B69F761
S1130C4014C06B897C898D899E890E948913DC017B
S1130C50CB01988F8F8B8F89988D9C8F8B8F8B8DE9
S1130C609C8D0197F1F79C8F8B8F8AE00E94010C79
S1130C70813039F40E9468138091FA008F5F809369
S1130C80FA0000006C960FB6F894DEBF0FBECDBF1D
S1130C90DF91CF910895CF93DF93CDB7DEB78091E5
S1130CA0FA00882F90E08330910509F18430910592
S1130CB034F48130910549F0029781F033C08430D7
S1130CC09105F1F0059729F12DC080916200909172
S1130CD0630040E060E00E944E1324C080916400F1
S1130CE09091650040E060E00E944E131BC080912B
S1130CF066009091670040E060E00E944E1312C0CD
S1130D00809168009091690040E060E00E944E1379
S1130D1009C080916A0090916B0040E060E00E94FD
S1130D204E1300000000DF91CF910895CF93DF931D
S1130D30CDB7DEB76C970FB6F894DEBF0FBECDBF4C
S1130D408091FA00882309F407C18091FA00863063
S1130D5008F002C184E10E94010C813009F07CC0DA
S1130D6080E090E0A0EFB1E48D839E83AF83B887E9
S1130D7020E030E04AE755E46D817E818F819885DB
S1130D800E940A14DC01CB0189879A87AB87BC8750
S1130D9020E030E040E85FE369857A858B859C85B7
S1130DA00E94841388232CF481E090E09E878D8731
S1130DB03FC020E03FEF4FE757E469857A858B8594
S1130DC09C850E94051418164CF520E030E040E2A2
S1130DD051E46D817E818F8198850E940A14DC0123
S1130DE0CB01BC01CD010E948913DC01CB019E879C
S1130DF08D870FC080E991E0988B8F878F859889C4
S1130E000197F1F7988B8F878D859E8501979E8733
S1130E108D878D859E85892B69F714C069857A85B0
S1130E208B859C850E948913DC01CB019E878D876D
S1130E308D859E859A8B898B89899A890197F1F78B
S1130E409A8B898B84E10E94010C813009F084C063
S1130E5081E00E94B60780C08AE00E94010C8130C4
S1130E6009F07AC080E090E0A0EFB1E489839A832E
S1130E70AB83BC8320E030E04AE755E469817A81A2
S1130E808B819C810E940A14DC01CB018B8B9C8B8F
S1130E90AD8BBE8B20E030E040E85FE36B897C895A
S1130EA08D899E890E94841388232CF481E090E02C
S1130EB0988F8F8B3FC020E03FEF4FE757E46B895B
S1130EC07C898D899E890E94051418164CF520E0B2
S1130ED030E040E251E469817A818B819C810E94F7
S1130EE00A14DC01CB01BC01CD010E948913DC0191
S1130EF0CB01988F8F8B0FC080E991E09A8F898FF7
S1130F00898D9A8D0197F1F79A8F898F8F89988DA2
S1130F100197988F8F8B8F89988D892B69F714C0CF
S1130F206B897C898D899E890E948913DC01CB01A0
S1130F30988F8F8B8F89988D9C8F8B8F8B8D9C8DA9
S1130F400197F1F79C8F8B8F8AE00E94010C81300E
S1130F5019F480E00E94B60700006C960FB6F8946E
S1130F60DEBF0FBECDBFDF91CF910895CF93DF9346
S1130F70CDB7DEB7E9970FB6F894DEBF0FBECDBF8D
S1130F8089AF8091FA00882309F409C28091FA009C
S1130F90863008F004C28091FA00882F90E08459CA
S1130FA09F4FFC01908189AD981709F0F9C080E04A
S1130FB090E0AAEFB3E48D839E83AF83B88720E0EB
S1130FC030E04AE755E46D817E818F8198850E94E7
S1130FD00A14DC01CB018B8F9C8FAD8FBE8F20E078
S1130FE030E040E85FE36B8D7C8D8D8D9E8D0E949B
S1130FF0841388232CF481E090E098A38F8F3FC062
S113100020E03FEF4FE757E46B8D7C8D8D8D9E8DF7
S11310100E94051418164CF520E030E040E251E43B
S11310206D817E818F8198850E940A14DC01CB0139
S1131030BC01CD010E948913DC01CB0198A38F8FE1
S11310400FC080E991E09AA389A389A19AA101978D
S1131050F1F79AA389A38F8D98A1019798A38F8FF5
S11310608F8D98A1892B69F714C06B8D7C8D8D8D24
S11310709E8D0E948913DC01CB0198A38F8F8F8DE5
S113108098A19CA38BA38BA19CA10197F1F79CA38E
S11310908BA30E94681360E080E00E942C130E94DE
S11310A0010180E090E0AAE7B4E48D879E87AF87D2
S11310B0B88B20E030E04AE755E46D857E858F8566
S11310C098890E940A14DC01CB01898B9A8BAB8B23
S11310D0BC8B20E030E040E85FE369897A898B8942
S11310E09C890E94841388232CF481E090E09E8BD9
S11310F08D8B3FC020E03FEF4FE757E469897A8941
S11311008B899C890E94051418164CF520E030E068
S113111040E251E46D857E858F8598890E940A148A
S1131120DC01CB01BC01CD010E948913DC01CB01A0
S11311309E8B8D8B0FC080E991E0988F8F8B8F8968
S1131140988D0197F1F7988F8F8B8D899E890197E0
S11311509E8B8D8B8D899E89892B69F714C0698933
S11311607A898B899C890E948913DC01CB019E8B2F
S11311708D8B8D899E899A8F898F898D9A8D019700
S1131180F1F79A8F898F0E9468138091FB008F5F1B
S11311908093FB008091FA008F5F8093FA00FFC078
S11311A08091FA00882F90E084599F4FFC01908130
S11311B089AD981709F4F3C080E090E0AAEFB3E496
S11311C089879A87AB87BC8720E030E04AE755E4FB
S11311D069857A858B859C850E940A14DC01CB0184
S11311E08FA798ABA9ABBAAB20E030E040E85FE34F
S11311F06FA578A989A99AA90E94841388232CF43D
S113120081E090E09CAB8BAB3FC020E03FEF4FE729
S113121057E46FA578A989A99AA90E9405141816FC
S11312204CF520E030E040E251E469857A858B8515
S11312309C850E940A14DC01CB01BC01CD010E94F3
S11312408913DC01CB019CAB8BAB0FC080E991E02F
S11312509EAB8DAB8DA99EA90197F1F79EAB8DAB8B
S11312608BA99CA901979CAB8BAB8BA99CA9892BBF
S113127069F714C06FA578A989A99AA90E9489134E
S1131280DC01CB019CAB8BAB8BA99CA998AF8FAB3A
S11312908FA998AD0197F1F798AF8FAB0E946813AF
S11312A060E080E00E942C130E94080280E090E03D
S11312B0AAE7B4E489839A83AB83BC8320E030E05B
S11312C04AE755E469817A818B819C810E940A14E2
S11312D0DC01CB018DA39EA3AFA3B8A720E030E02F
S11312E040E85FE36DA17EA18FA198A50E948413BD
S11312F088232CF481E090E09AA789A73FC020E0DE
S11313003FEF4FE757E46DA17EA18FA198A50E94FE
S1131310051418164CF520E030E040E251E46981F0
S11313207A818B819C810E940A14DC01CB01BC016F
S1131330CD010E948913DC01CB019AA789A70FC0B4
S113134080E991E09CA78BA78BA59CA50197F1F759
S11313509CA78BA789A59AA501979AA789A789A570
S11313609AA5892B69F714C06DA17EA18FA198A5B8
S11313700E948913DC01CB019AA789A789A59AA5A4
S11313809EA78DA78DA59EA50197F1F79EA78DA772
S11313900E9468138091FA008F5F8093FA00000026
S11313A0E9960FB6F894DEBF0FBECDBFDF91CF91A3
S11313B00895CF93DF93CDB7DEB78091FA008630DE
S11313C091F40E94681340E060E081EF90E00E9495
S11313D04E138091FB00805D0E94600F8091FA00A3
S11313E08F5F8093FA000000DF91CF910895CF932F
S11313F0DF9300D0CDB7DEB789836A838A81882FD3
S113140090E0009721F0019709F47AC0EFC0898138
S11314108830B0F48BE390E02BE330E0F9012081D5
S1131420622F2981422F50E021E030E002C0220FD8
S1131430331F4A95E2F720952623FC012083D3C06D
S113144089818830E0F089818031C8F488E390E0B4
S113145028E330E0F9012081622F2981222F30E036
S1131460A9014850510921E030E002C0220F331F86
S11314704A95E2F720952623FC01208340C0898108
S11314808031E0F089818831C8F485E390E025E378
S113149030E0F9012081622F2981222F30E0A90157
S11314A04051510921E030E002C0220F331F4A9518
S11314B0E2F720952623FC01208321C0898188310D
S11314C008F491C08981803208F08DC082E390E0F5
S11314D022E330E0F9012081622F2981222F30E0BC
S11314E0A9014851510921E030E002C0220F331F05
S11314F04A95E2F720952623FC01208374C073C02B
S113150089818830A8F48BE390E02BE330E0F90183
S11315102081622F2981422F50E021E030E002C077
S1131520220F331F4A95E2F7262BFC0120835DC06E
S113153089818830D8F089818031C0F488E390E0D3
S113154028E330E0F9012081622F2981222F30E045
S1131550A9014850510921E030E002C0220F331F95
S11315604A95E2F7262BFC0120833CC08981803117
S1131570D8F089818831C0F485E390E025E330E038
S1131580F9012081622F2981222F30E0A9014051E5
S1131590510921E030E002C0220F331F4A95E2F7DF
S11315A0262BFC0120831EC089818831F0F08981BB
S11315B08032D8F482E390E022E330E0F901208124
S11315C0622F2981222F30E0A9014851510921E0DD
S11315D030E002C0220F331F4A95E2F7262BFC01AC
S11315E0208303C002C0000001C0000000000F906F
S11315F00F90DF91CF910895CF93DF9300D0CDB7B3
S1131600DEB789836A838A81882F90E0009721F06E
S1131610019709F47AC0EFC089818830B0F48AE375
S113162090E02AE330E0F9012081622F2981422FE2
S113163050E021E030E002C0220F331F4A95E2F768
S113164020952623FC012083D3C089818830E0F0D3
S113165089818031C8F487E390E027E330E0F90121
S11316602081622F2981222F30E0A901485051099D
S113167021E030E002C0220F331F4A95E2F72095A3
S11316802623FC01208340C089818031E0F08981D8
S11316908831C8F484E390E024E330E0F901208148
S11316A0622F2981222F30E0A9014051510921E004
S11316B030E002C0220F331F4A95E2F7209526231B
S11316C0FC01208321C08981883108F491C089817B
S11316D0803208F08DC081E390E021E330E0F9012D
S11316E02081622F2981222F30E0A901485151091C
S11316F021E030E002C0220F331F4A95E2F7209523
S11317002623FC01208374C073C089818830A8F427
S11317108AE390E02AE330E0F9012081622F2981F5
S1131720422F50E021E030E002C0220F331F4A95DF
S1131730E2F7262BFC0120835DC089818830D8F034
S113174089818031C0F487E390E027E330E0F90138
S11317502081622F2981222F30E0A90148505109AC
S113176021E030E002C0220F331F4A95E2F7262B16
S1131770FC0120833CC089818031D8F08981883183
S1131780C0F484E390E024E330E0F9012081622F87
S11317902981222F30E0A9014051510921E030E094
S11317A002C0220F331F4A95E2F7262BFC01208347
S11317B01EC089818831F0F089818032D8F481E3B8
S11317C090E021E330E0F9012081622F2981222F6A
S11317D030E0A9014851510921E030E002C0220F54
S11317E0331F4A95E2F7262BFC01208303C002C075
S11317F0000001C0000000000F900F90DF91CF9116
S11318000895CF93DF9300D0CDB7DEB78A838A8162
S11318108830E0F489E390E0FC018081282F30E0F7
S11318208A81482F50E081E090E002C0880F991F20
S11318304A95E2F7822393232A81222F30E002C0C3
S1131840959587952A95E2F7898374C08A818830B3
S113185020F18A81803108F586E390E0FC018081E3
S1131860282F30E08A81882F90E0AC01485051093C
S113187081E090E002C0880F991F4A95E2F7822325
S113188093232A81222F30E02850310902C09595F4
S113189087952A95E2F789834DC08A81803120F1AA
S11318A08A81883108F583E390E0FC018081282F48
S11318B030E08A81882F90E0AC014051510981E0E9
S11318C090E002C0880F991F4A95E2F78223932380
S11318D02A81222F30E02051310902C09595879545
S11318E02A95E2F7898326C08A81883118F18A8192
S11318F0803200F580E390E0FC018081282F30E005
S11319008A81882F90E0AC014851510981E090E030
S113191002C0880F991F4A95E2F7822393232A81F4
S1131920222F30E02851310902C0959587952A95D8
S1131930E2F7898389810F900F90DF91CF91089509
S1131940CF93DF93CDB7DEB72E970FB6F894DEBFF3
S11319500FBECDBF61E081E00E94FC0A61E082E03D
S11319600E94FC0A61E083E00E94FC0A88E20E9473
S11319704A0D8AE390E02AE330E0F9012081206FE8
S1131980FC01208388E20E944A0D8EE00E944A0DE9
S113199081E00E944A0D80E80E944A0D80E090E0B8
S11319A0A0EAB0E489839A83AB83BC8320E030E06F
S11319B04AE755E469817A818B819C810E940A14EB
S11319C0DC01CB018D839E83AF83B88720E030E0B8
S11319D040E85FE36D817E818F8198850E94841346
S11319E088232CF481E090E09A8789873FC020E027
S11319F03FEF4FE757E46D817E818F8198850E9488
S1131A00051418164CF520E030E040E251E46981F9
S1131A107A818B819C810E940A14DC01CB01BC0178
S1131A20CD010E948913DC01CB019A8789870FC0FD
S1131A3080E991E09C878B878B859C850197F1F7E2
S1131A409C878B8789859A8501979A878987898559
S1131A509A85892B69F714C06D817E818F81988561
S1131A600E948913DC01CB019A87898789859A852D
S1131A709E878D878D859E850197F1F79E878D873B
S1131A8000002E960FB6F894DEBF0FBECDBFDF91D7
S1131A90CF910895CF93DF93CDB7DEB7E9970FB613
S1131AA0F894DEBF0FBECDBF89AF60E081E00E9435
S1131AB0F70960E082E00E94F7098BE390E02BE3F2
S1131AC030E0F9012081322F3F7029AD207F232B94
S1131AD0FC01208361E083E00E94F70980E090E04C
S1131AE0A0E8BFE389839A83AB83BC8320E030E022
S1131AF04AE755E469817A818B819C810E940A14AA
S1131B00DC01CB018FA798ABA9ABBAAB20E030E0E6
S1131B1040E85FE36FA578A989A99AA90E94841374
S1131B2088232CF481E090E09CAB8BAB3FC020E099
S1131B303FEF4FE757E46FA578A989A99AA90E94B6
S1131B40051418164CF520E030E040E251E46981B8
S1131B507A818B819C810E940A14DC01CB01BC0137
S1131B60CD010E948913DC01CB019CAB8BAB0FC070
S1131B7080E991E09EAB8DAB8DA99EA90197F1F709
S1131B809EAB8DAB8BA99CA901979CAB8BAB8BA90E
S1131B909CA9892B69F714C06FA578A989A99AA96A
S1131BA00E948913DC01CB019CAB8BAB8BA99CA954
S1131BB098AF8FAB8FA998AD0197F1F798AF8FAB22
S1131BC060E083E00E94F70980E090E0A0E8BFE3D2
S1131BD08D839E83AF83B88720E030E04AE755E4E5
S1131BE06D817E818F8198850E940A14DC01CB016E
S1131BF08DA39EA3AFA3B8A720E030E040E85FE345
S1131C006DA17EA18FA198A50E94841388232CF432
S1131C1081E090E09AA789A73FC020E03FEF4FE71B
S1131C2057E46DA17EA18FA198A50E9405141816F2
S1131C304CF520E030E040E251E46D817E818F81FB
S1131C4098850E940A14DC01CB01BC01CD010E94DD
S1131C508913DC01CB019AA789A70FC080E991E021
S1131C609CA78BA78BA59CA50197F1F79CA78BA795
S1131C7089A59AA501979AA789A789A59AA5892BC9
S1131C8069F714C06DA17EA18FA198A50E94891344
S1131C90DC01CB019AA789A789A59AA59EA78DA740
S1131CA08DA59EA50197F1F79EA78DA78BE390E0E4
S1131CB02BE330E0F9012081422F4F7029AD222F10
S1131CC030E022953295307F3227207F3227242B33
S1131CD0FC01208361E083E00E94F70980E090E04A
S1131CE0A0E8BFE389879A87AB87BC8720E030E010
S1131CF04AE755E469857A858B859C850E940A1498
S1131D00DC01CB018B8F9C8FAD8FBE8F20E030E048
S1131D1040E85FE36B8D7C8D8D8D9E8D0E948413D6
S1131D2088232CF481E090E098A38F8F3FC020E0BB
S1131D303FEF4FE757E46B8D7C8D8D8D9E8D0E9418
S1131D40051418164CF520E030E040E251E46985B2
S1131D507A858B859C850E940A14DC01CB01BC0129
S1131D60CD010E948913DC01CB0198A38F8F0FC092
S1131D7080E991E09AA389A389A19AA10197F1F737
S1131D809AA389A38F8D98A1019798A38F8F8F8D84
S1131D9098A1892B69F714C06B8D7C8D8D8D9E8DD8
S1131DA00E948913DC01CB0198A38F8F8F8D98A19A
S1131DB09CA38BA38BA19CA10197F1F79CA38BA35C
S1131DC060E083E00E94F70980E090E0A0E8BFE3D0
S1131DD08D879E87AF87B88B20E030E04AE755E4D3
S1131DE06D857E858F8598890E940A14DC01CB015C
S1131DF0898B9A8BAB8BBC8B20E030E040E85FE3AF
S1131E0069897A898B899C890E94841388232CF49C
S1131E1081E090E09E8B8D8B3FC020E03FEF4FE749
S1131E2057E469897A898B899C890E94051418165C
S1131E304CF520E030E040E251E46D857E858F85ED
S1131E4098890E940A14DC01CB01BC01CD010E94D7
S1131E508913DC01CB019E8B8D8B0FC080E991E04F
S1131E60988F8F8B8F89988D0197F1F7988F8F8B2F
S1131E708D899E8901979E8B8D8B8D899E89892B57
S1131E8069F714C069897A898B899C890E948913AE
S1131E90DC01CB019E8B8D8B8D899E899A8F898FD6
S1131EA0898D9A8D0197F1F79A8F898F0000E996B1
S1131EB00FB6F894DEBF0FBECDBFDF91CF9108956A
S1131EC00F931F93CF93DF93CDB7DEB7C555D109D9
S1131ED00FB6F894DEBF0FBECDBF9E012B5A3F4F05
S1131EE0F901808361E081E00E94F70960E082E00B
S1131EF00E94F7098BE390E02BE330E0F9012081A5
S1131F00422F4F709E012B5A3F4FF9012081207FB1
S1131F10242BFC01208361E083E00E94F70980E028
S1131F2090E0A0E8BFE389839A83AB83BC838E01EE
S1131F30055B1F4F20E030E04AE755E469817A8170
S1131F408B819C810E940A14DC01CB01F8018083FF
S1131F509183A283B383CE01855B9F4F20E030E061
S1131F6040E85FE3FC0160817181828193810E947A
S1131F70841388234CF4CE01815B9F4F21E030E031
S1131F80FC013183208369C0CE01855B9F4F20E033
S1131F903FEF4FE757E4FC016081718182819381B7
S1131FA00E94051418160CF046C020E030E040E210
S1131FB051E469817A818B819C810E940A14DC013D
S1131FC0CB018E01015B1F4FBC01CD010E9489131F
S1131FD0DC01CB01F8019183808324C0CE018F5AA8
S1131FE09F4F20E931E0FC0131832083CE018F5AD9
S1131FF09F4FFC01808191810197F1F79E012F5A37
S11320003F4FF90191838083CE01815B9F4F9E01F5
S1132010215B3F4FF9012081318121503109FC01BD
S113202031832083CE01815B9F4FFC0180819181AC
S1132030892BA1F62CC08E01015B1F4FCE01855B5D
S11320409F4FFC0160817181828193810E94891379
S1132050DC01CB01F80191838083CE018D5A9F4F1F
S11320609E01215B3F4FF90120813181FC013183C5
S11320702083CE018D5A9F4FFC018081918101976D
S1132080F1F79E012D5A3F4FF9019183808380E03F
S113209090E0A0E8BFE38D839E83AF83B8878E0171
S11320A00F5B1F4F20E030E04AE755E46D817E81ED
S11320B08F8198850E940A14DC01CB01F80180838A
S11320C09183A283B383CE018F5B9F4F20E030E0E6
S11320D040E85FE3FC0160817181828193810E9409
S11320E0841388234CF4CE018B5B9F4F21E030E0B6
S11320F0FC013183208369C0CE018F5B9F4F20E0B8
S11321003FEF4FE757E4FC01608171818281938145
S11321100E94051418160CF046C020E030E040E29E
S113212051E46D817E818F8198850E940A14DC01BF
S1132130CB018E010B5B1F4FBC01CD010E948913A3
S1132140DC01CB01F8019183808324C0CE01895B3B
S11321509F4F20E931E0FC0131832083CE01895B6C
S11321609F4FFC01808191810197F1F79E01295BCA
S11321703F4FF90191838083CE018B5B9F4F9E017A
S11321802B5B3F4FF9012081318121503109FC0142
S113219031832083CE018B5B9F4FFC018081918131
S11321A0892BA1F62CC08E010B5B1F4FCE018F5BD8
S11321B09F4FFC0160817181828193810E94891308
S11321C0DC01CB01F80191838083CE01875B9F4FB3
S11321D09E012B5B3F4FF90120813181FC0131834A
S11321E02083CE01875B9F4FFC0180819181019701
S11321F0F1F79E01275B3F4FF9019183808360E0F3
S113220083E00E94F70980E090E0A0E8BFE38987BB
S11322109A87AB87BC8720E030E04AE755E46985BC
S11322207A858B859C850E940A14DC01CB018FABD7
S113223098AFA9AFBAAF20E030E040E85FE36FA900
S113224078AD89AD9AAD0E94841388232CF481E083
S113225090E09CAF8BAF3FC020E03FEF4FE757E4E7
S11322606FA978AD89AD9AAD0E94051418164CF586
S113227020E030E040E251E469857A858B859C85D5
S11322800E940A14DC01CB01BC01CD010E94891318
S1132290DC01CB019CAF8BAF0FC080E991E09EAF16
S11322A08DAF8DAD9EAD0197F1F79EAF8DAF8BAD28
S11322B09CAD01979CAF8BAF8BAD9CAD892B69F71F
S11322C01EC06FA978AD89AD9AAD0E948913DC0157
S11322D0CB019CAF8BAF2BAD3CADCE01CF96FC01B7
S11322E031832083CE01CF96FC01808191810197B7
S11322F0F1F79E01215C3F4FF901918380838BE3C9
S113230090E02BE330E0F9012081422F4F709E01D1
S11323102B5A3F4FF9012081222F30E0229532952C
S1132320307F3227207F3227242BFC01208361E079
S113233083E00E94F70980E090E0A0E8BFE38D8786
S11323409E87AF87B88B20E030E04AE755E46D857F
S11323507E858F8598890E940A14DC01CB018DA7A4
S11323609EA7AFA7B8AB20E030E040E85FE36DA5DF
S11323707EA58FA598A90E94841388232CF481E05C
S113238090E09AAB89AB3FC020E03FEF4FE757E4C2
S11323906DA57EA58FA598A90E94051418164CF565
S11323A020E030E040E251E46D857E858F85988998
S11323B00E940A14DC01CB01BC01CD010E948913E7
S11323C0DC01CB019AAB89AB0FC080E991E09CABF7
S11323D08BAB8BA99CA90197F1F79CAB8BAB89A91B
S11323E09AA901979AAB89AB89A99AA9892B69F70C
S11323F014C06DA57EA58FA598A90E948913DC0140
S1132400CB019AAB89AB89A99AA99EAB8DAB8DA957
S11324109EA90197F1F79EAB8DAB80E090E0A0E818
S1132420BFE3898B9A8BAB8BBC8B20E030E04AE70F
S113243055E469897A898B899C890E940A14DC0194
S1132440CB018BA39CA3ADA3BEA320E030E040E866
S11324505FE36BA17CA18DA19EA10E9484138823BC
S11324602CF481E090E098A78FA33FC020E03FEFD9
S11324704FE757E46BA17CA18DA19EA10E94051496
S113248018164CF520E030E040E251E469897A897D
S11324908B899C890E940A14DC01CB01BC01CD010B
S11324A00E948913DC01CB0198A78FA30FC080E998
S11324B091E09AA789A789A59AA50197F1F79AA708
S11324C089A78FA198A5019798A78FA38FA198A5F5
S11324D0892B69F714C06BA17CA18DA19EA10E94D8
S11324E08913DC01CB0198A78FA38FA198A59CA782
S11324F08BA78BA59CA50197F1F79CA78BA760E000
S113250083E00E94F70980E090E0A0E8BFE38D8BB0
S11325109E8BAF8BB88F20E030E04AE755E46D899D
S11325207E898F89988D0E940A14DC01CB01898FE2
S11325309A8FAB8FBC8F20E030E040E85FE3698D79
S11325407A8D8B8D9C8D0E94841388232CF481E0DA
S113255090E09E8F8D8F3FC020E03FEF4FE757E420
S1132560698D7A8D8B8D9C8D0E94051418164CF5FF
S113257020E030E040E251E46D897E898F89988DB6
S11325800E940A14DC01CB01BC01CD010E94891315
S1132590DC01CB019E8F8D8F0FC080E991E098A361
S11325A08F8F8F8D98A10197F1F798A38F8F8D8DC1
S11325B09E8D01979E8F8D8F8D8D9E8D892B69F7B2
S11325C014C0698D7A8D8B8D9C8D0E948913DC01DA
S11325D0CB019E8F8D8F8D8D9E8D9AA389A389A10A
S11325E09AA10197F1F79AA389A30000CB5ADF4F70
S11325F00FB6F894DEBF0FBECDBFDF91CF911F9110
S11326000F910895CF93DF9300D01F92CDB7DEB71B
S11326109B838A8319820EC08981882F90E02A8146
S11326203B81820F931FFC0180810E94600F89818E
S11326308F5F89838981882F90E02A813B81820F73
S1132640931FFC018081882339F700000F900F90BD
S11326500F90DF91CF910895CF93DF9300D01F9215
S1132660CDB7DEB78A836B838A81882F90E0009789
S113267019F0019721F007C08B81898304C08B81F5
S1132680805C89830000898180680E944A0D000073
S11326900F900F900F90DF91CF910895CF93DF9318
S11326A000D000D0CDB7DEB79A8389836B834C8387
S11326B06C818B810E942C1389819A810E94021360
S11326C000000F900F900F900F90DF91CF9108951D
S11326D0CF93DF93CDB7DEB781E00E944A0D0000AF
S11326E0DF91CF910895CF93DF93CDB7DEB70E94EA
S11326F00F030E9421030E9422050E944B060E94A0
S113270096060E94D909F7CF0E94B81308F481E015
S113271008950E94E41388F09F5798F0B92F9927E1
S1132720B751B0F0E1F0660F771F881F991F1AF0B8
S1132730BA95C9F714C0B13091F00E94FE13B1E00C
S113274008950C94FE13672F782F8827B85F39F00B
S1132750B93FCCF3869577956795B395D9F73EF451
S113276090958095709561957F4F8F4F9F4F0895F9
S1132770990F0008550FAA0BE0E8FEEF161617068E
S1132780E807F907C0F012161306E407F50798F0F6
S1132790621B730B840B950B39F40A2661F0232B0F
S11327A0242B252B21F408950A2609F4A140A6958B
S11327B08FEF811D811D089557FD9058440F551FBB
S11327C059F05F3F71F04795880F97FB991F61F0AF
S11327D09F3F79F087950895121613061406551F26
S11327E0F2CF4695F1DF08C0161617061806991F92
S11327F0F1CF86957105610508940895E894BB2787
S113280066277727CB0197F908950E94B81308F437
S11328108FEF08950E941D140C948E140E9480144E
S113282038F00E94871420F0952311F00C9477144B
S11328300C947D1411240C94FF130E94DC1370F388
S1132840959FC1F3950F50E0551F629FF001729F51
S1132850BB27F00DB11D639FAA27F00DB11DAA1F60
S1132860649F6627B00DA11D661F829F2227B00DAD
S1132870A11D621F739FB00DA11D621F839FA00D38
S1132880611D221F749F3327A00D611D231F849F88
S1132890600D211D822F762F6A2F11249F575040DF
S11328A09AF0F1F088234AF0EE0FFF1FBB1F661F5A
S11328B0771F881F91505040A9F79E3F510580F023
S11328C00C9477140C94FF135F3FE4F3983ED4F315
S11328D0869577956795B795F795E7959F5FC1F7C7
S11328E0FE2B880F911D9695879597F9089597F972
S11328F09F6780E870E060E008959FEF80EC0895A2
S113290000240A94161617061806090608950024CA
S11329100A9412161306140605060895092E039444
S1132920000C11F4882352F0BB0F40F4BF2B11F4B8
S113293060FF04C06F5F7F4F8F4F9F4F0895F894DF
S1052940FFCFC3
S11329427F0080008F00A100B500C50002000100D5
S11329520000536861746572006274793561000025
S1132962536F757468205553412031353530004812
S113297269746C6172207761732061727469737413
S113298200456E676C616E64203020576F726C6410
S113299220437570004175737472616C69612073B0
S11329A265646E79004D656B6B612031307468200B
S11329B2796561720057656C636F6D65204E65724F
S11329C2647300507265737320416E79204B65798C
S10D29D20053636F7265203D20007E
S9030000FC
