:100000000C942A000C9447000C9447000C94470071
:100010000C9447000C9447000C9447000C94470044
:100020000C9447000C9447000C945C000C9449001D
:100030000C9447000C9447000C9447000C94470024
:100040000C9447000C9447000C9447000C94470014
:100050000C94470011241FBECFE5D8E0DEBFCDBF12
:1000600010E0A0E6B0E0ECE2FCE002C005900D92EA
:10007000A036B107D9F720E0A0E6B0E001C01D929C
:10008000A236B207E1F70E9405030C9414060C9403
:1000900000001F920F9200905F000F921124CF93E7
:1000A000DF93CDB7DEB70000DF91CF910F900092C4
:1000B0005F000F901F9018951F920F9200905F00A5
:1000C0000F9211242F933F934F935F936F937F93DE
:1000D0008F939F93AF93BF93EF93FF93CF93DF9350
:1000E000CDB7DEB70E9489000000DF91CF91FF916C
:1000F000EF91BF91AF919F918F917F916F915F91A0
:100100004F913F912F910F9000925F000F901F90A1
:100110001895CF93DF93CDB7DEB7809160009091B3
:10012000610001969093610080936000809160006F
:1001300090916100883E934010F4789404C010922E
:100140006100109260000000DF91CF910895CF937D
:10015000DF9300D0CDB7DEB789836A838A81882F89
:1001600090E0009721F0019709F47AC0EFC08981EF
:100170008830B0F48BE390E02BE330E0F90120818C
:10018000622F2981422F50E021E030E002C0220F8F
:10019000331F4A95E2F720952623FC012083D3C024
:1001A00089818830E0F089818031C8F488E390E06B
:1001B00028E330E0F9012081622F2981222F30E0ED
:1001C000A9014850510921E030E002C0220F331F3D
:1001D0004A95E2F720952623FC01208340C08981BF
:1001E0008031E0F089818831C8F485E390E025E32F
:1001F00030E0F9012081622F2981222F30E0A9010E
:100200004051510921E030E002C0220F331F4A95CE
:10021000E2F720952623FC01208321C089818831C3
:1002200008F491C08981803208F08DC082E390E0AB
:1002300022E330E0F9012081622F2981222F30E072
:10024000A9014851510921E030E002C0220F331FBB
:100250004A95E2F720952623FC01208374C073C0E1
:1002600089818830A8F48BE390E02BE330E0F9013A
:100270002081622F2981422F50E021E030E002C02E
:10028000220F331F4A95E2F7262BFC0120835DC025
:1002900089818830D8F089818031C0F488E390E08A
:1002A00028E330E0F9012081622F2981222F30E0FC
:1002B000A9014850510921E030E002C0220F331F4C
:1002C0004A95E2F7262BFC0120833CC089818031CE
:1002D000D8F089818831C0F485E390E025E330E0EF
:1002E000F9012081622F2981222F30E0A90140519C
:1002F000510921E030E002C0220F331F4A95E2F796
:10030000262BFC0120831EC089818831F0F0898171
:100310008032D8F482E390E022E330E0F9012081DA
:10032000622F2981222F30E0A9014851510921E093
:1003300030E002C0220F331F4A95E2F7262BFC0162
:10034000208303C002C0000001C0000000000F9025
:100350000F90DF91CF910895CF93DF9300D0CDB769
:10036000DEB789836A838A81882F90E0009721F025
:10037000019709F47AC0EFC089818830B0F48AE32C
:1003800090E02AE330E0F9012081622F2981422F99
:1003900050E021E030E002C0220F331F4A95E2F71F
:1003A00020952623FC012083D3C089818830E0F08A
:1003B00089818031C8F487E390E027E330E0F901D8
:1003C0002081622F2981222F30E0A9014850510954
:1003D00021E030E002C0220F331F4A95E2F720955A
:1003E0002623FC01208340C089818031E0F089818F
:1003F0008831C8F484E390E024E330E0F9012081FF
:10040000622F2981222F30E0A9014051510921E0BA
:1004100030E002C0220F331F4A95E2F720952623D1
:10042000FC01208321C08981883108F491C0898131
:10043000803208F08DC081E390E021E330E0F901E3
:100440002081622F2981222F30E0A90148515109D2
:1004500021E030E002C0220F331F4A95E2F72095D9
:100460002623FC01208374C073C089818830A8F4DE
:100470008AE390E02AE330E0F9012081622F2981AC
:10048000422F50E021E030E002C0220F331F4A9596
:10049000E2F7262BFC0120835DC089818830D8F0EB
:1004A00089818031C0F487E390E027E330E0F901EF
:1004B0002081622F2981222F30E0A9014850510963
:1004C00021E030E002C0220F331F4A95E2F7262BCD
:1004D000FC0120833CC089818031D8F0898188313A
:1004E000C0F484E390E024E330E0F9012081622F3E
:1004F0002981222F30E0A9014051510921E030E04B
:1005000002C0220F331F4A95E2F7262BFC012083FD
:100510001EC089818831F0F089818032D8F481E36E
:1005200090E021E330E0F9012081622F2981222F20
:1005300030E0A9014851510921E030E002C0220F0A
:10054000331F4A95E2F7262BFC01208303C002C02B
:10055000000001C0000000000F900F90DF91CF91CC
:100560000895CF93DF93CDB7DEB761E08AE10E94B3
:10057000AC0161E08BE10E94AC0162E081E40E9489
:1005800096030000DF91CF910895CF93DF931F92E0
:10059000CDB7DEB789838981882F90E081309105BE
:1005A00079F082309105A9F0892B09F01BC061E038
:1005B0008AE10E94A70060E08BE10E94A70012C0C0
:1005C00060E08AE10E94A70061E08BE10E94A70041
:1005D00009C060E08AE10E94A70060E08BE10E9410
:1005E000A700000000000F90DF91CF910895CF93F6
:1005F000DF931F92CDB7DEB7898389810E94BB0448
:1006000000000F90DF91CF910895CF93DF93CDB786
:10061000DEB72F970FB6F894DEBF0FBECDBF81E0D7
:1006200089830E94B10281E00E94C50280E00E949D
:10063000F70280E090E0AAEFB4E48A839B83AC8366
:10064000BD8320E030E04AE755E46A817B818C81FC
:100650009D810E947F05DC01CB018E839F83A8874B
:10066000B98720E030E040E85FE36E817F818885D4
:1006700099850E94F90488232CF481E090E09B87FF
:100680008A873FC020E03FEF4FE757E46E817F81CC
:10069000888599850E947A0518164CF520E030E08F
:1006A00040E251E46A817B818C819D810E947F05BB
:1006B000DC01CB01BC01CD010E94FE04DC01CB01B9
:1006C0009B878A870FC080E991E09D878C878C8506
:1006D0009D850197F1F79D878C878A859B8501977A
:1006E0009B878A878A859B85892B69F714C06E81D1
:1006F0007F81888599850E94FE04DC01CB019B8760
:100700008A878A859B859F878E878E859F8501979F
:10071000F1F79F878E878ACFCF93DF93CDB7DEB770
:100720000E94D6040000DF91CF910895CF93DF930C
:1007300000D0CDB7DEB789836A830E948C038FE433
:1007400090E02FE430E0F90120812260FC01208359
:100750008FE490E02FE430E0F90120812160FC017A
:1007600020838EE490E02EE430E0F90120812860BF
:10077000FC0120838DE490E0FC0110828CE490E089
:10078000FC0110828981882F90E08134910529F045
:100790008234910509F467C0CEC061E08DE10E940A
:1007A000AC0189E590E029E530E0F9012081206184
:1007B000FC0120838A81882399F48FE490E02FE460
:1007C00030E0F90120812F77FC0120838FE490E055
:1007D0002FE430E0F90120812F7BFC012083A8C0A9
:1007E0008A81813099F48FE490E02FE430E0F901C0
:1007F00020812F77FC0120838FE490E02FE430E00C
:10080000F90120812064FC01208392C08A8182301A
:1008100099F48FE490E02FE430E0F9012081206822
:10082000FC0120838FE490E02FE430E0F901208187
:100830002F7BFC0120837CC08A81833009F078C043
:100840008FE490E02FE430E0F90120812068FC0182
:1008500020838FE490E02FE430E0F90120812064D0
:10086000FC01208365C061E08CE10E94AC0189E558
:1008700090E029E530E0F90120812860FC01208327
:100880008A81882399F48FE490E02FE430E0F90125
:1008900020812F7DFC0120838FE490E02FE430E065
:1008A000F90120812F7EFC01208344C08A818130A0
:1008B00099F48FE490E02FE430E0F90120812F7D5E
:1008C000FC0120838FE490E02FE430E0F9012081E7
:1008D0002061FC0120832EC08A81823099F48FE44C
:1008E00090E02FE430E0F90120812062FC012083B8
:1008F0008FE490E02FE430E0F90120812F7EFC01AD
:10090000208318C08A818330A9F48FE490E02FE41B
:1009100030E0F90120812062FC0120838FE490E027
:100920002FE430E0F90120812061FC01208302C026
:10093000000001C0000000000F900F90DF91CF91E8
:100940000895CF93DF9300D0CDB7DEB79A83898324
:100950008BE490E029813A81232F3327FC01208307
:100960008AE490E02981FC01208300000F900F9021
:10097000DF91CF910895CF93DF9300D01F92CDB731
:10098000DEB78B838B81882F90E0982F8827990F73
:10099000990F9A83898389819A810E94A10400001A
:1009A0000F900F900F90DF91CF910895CF93DF9329
:1009B000CDB7DEB78EE490E02EE430E0F90120817F
:1009C0002160FC0120838EE490E02EE430E0F90108
:1009D00020812260FC0120838EE490E02EE430E050
:1009E000F90120812B7FFC0120830000DF91CF9152
:1009F00008950E942D0508F481E008950E9459058C
:100A000088F09F5798F0B92F9927B751B0F0E1F0CF
:100A1000660F771F881F991F1AF0BA95C9F714C07F
:100A2000B13091F00E947305B1E008950C94730504
:100A3000672F782F8827B85F39F0B93FCCF38695B8
:100A400077956795B395D9F73EF490958095709515
:100A500061957F4F8F4F9F4F0895990F0008550F55
:100A6000AA0BE0E8FEEF16161706E807F907C0F034
:100A700012161306E407F50798F0621B730B840B3C
:100A8000950B39F40A2661F0232B242B252B21F416
:100A900008950A2609F4A140A6958FEF811D811DB6
:100AA000089557FD9058440F551F59F05F3F71F05E
:100AB0004795880F97FB991F61F09F3F79F08795C5
:100AC0000895121613061406551FF2CF4695F1DF4E
:100AD00008C0161617061806991FF1CF86957105DE
:100AE000610508940895E894BB2766277727CB0112
:100AF00097F908950E942D0508F48FEF08950E943C
:100B000092050C9403060E94F50538F00E94FC053E
:100B100020F0952311F00C94EC050C94F2051124AF
:100B20000C9474050E94510570F3959FC1F3950FC5
:100B300050E0551F629FF001729FBB27F00DB11D61
:100B4000639FAA27F00DB11DAA1F649F6627B00DF1
:100B5000A11D661F829F2227B00DA11D621F739FDA
:100B6000B00DA11D621F839FA00D611D221F749FE8
:100B70003327A00D611D231F849F600D211D822F2F
:100B8000762F6A2F11249F5750409AF0F1F0882356
:100B90004AF0EE0FFF1FBB1F661F771F881F915083
:100BA0005040A9F79E3F510580F00C94EC050C9441
:100BB00074055F3FE4F3983ED4F386957795679587
:100BC000B795F795E7959F5FC1F7FE2B880F911DAD
:100BD0009695879597F9089597F99F6780E870E053
:100BE00060E008959FEF80EC089500240A941616A3
:100BF000170618060906089500240A94121613060B
:100C0000140605060895092E0394000C11F4882398
:100C100052F0BB0F40F4BF2B11F460FF04C06F5FB4
:0C0C20007F4F8F4F9F4F0895F894FFCF37
:00000001FF
