S00B00004C43442E7372656346
S11300000C942A000C9447000C9447000C9447006D
S11300100C9447000C9447000C9447000C94470040
S11300200C9447000C9447000C947F070C944700F1
S11300300C9447000C9447000C9447000C94470020
S11300400C9447000C9447000C9447000C94470010
S11300500C94470011241FBECFE5D8E0DEBFCDBF0E
S113006011E0A0E6B0E0EEE5FFE002C005900D92DD
S1130070A830B107D9F721E0A8E0B1E001C01D9292
S1130080AC30B207E1F70E944B050C94AD070C9419
S11300900000CF93DF9300D0CDB7DEB789836A83A6
S11300A08981883090F58A818130A9F48BE390E0CE
S11300B02BE330E0F9012081622F2981422F50E0A7
S11300C021E030E002C0220F331F4A95E2F7262BCD
S11300D0FC012083CDC08A81882309F0C9C08BE349
S11300E090E02BE330E0F9012081622F2981422F37
S11300F050E021E030E002C0220F331F4A95E2F7BE
S113010020952623FC012083B3C089818830C0F167
S113011089818031A8F58981885089838A818130D9
S1130120A9F488E390E028E330E0F9012081622F0C
S11301302981422F50E021E030E002C0220F331F1A
S11301404A95E2F7262BFC0120838FC08A818823FD
S113015009F08BC088E390E028E330E0F9012081C6
S1130160622F2981422F50E021E030E002C0220FAB
S1130170331F4A95E2F720952623FC01208375C09E
S113018089818031C0F189818831A8F589818051C4
S113019089838A818130A9F485E390E025E330E006
S11301A0F9012081622F2981422F50E021E030E0C3
S11301B002C0220F331F4A95E2F7262BFC0120834D
S11301C056C08A81882309F052C085E390E025E374
S11301D030E0F9012081622F2981422F50E021E093
S11301E030E002C0220F331F4A95E2F72095262300
S11301F0FC0120833CC089818831D0F1898180321F
S1130200B8F58981885189838A818130A9F482E390
S113021090E022E330E0F9012081622F2981422F0E
S113022050E021E030E002C0220F331F4A95E2F78C
S1130230262BFC0120831CC08A818823C9F482E315
S113024090E022E330E0F9012081622F2981422FDE
S113025050E021E030E002C0220F331F4A95E2F75C
S113026020952623FC01208303C0000001C0000068
S113027000000F900F90DF91CF910895CF93DF93FB
S113028000D0CDB7DEB78A838A81883090F489E3C1
S113029090E0FC018081882F90E02A81222F30E0B9
S11302A002C0959587952A95E2F7817089838981A3
S11302B051C08A818830C0F08A818031A8F48A8153
S11302C088508A8386E390E0FC018081882F90E047
S11302D02A81222F30E002C0959587952A95E2F76E
S11302E081708983898136C08A818031C0F08A8196
S11302F08831A8F48A8180518A8383E390E0FC01E9
S11303008081882F90E02A81222F30E002C09595C9
S113031087952A95E2F78170898389811BC08A8138
S11303208831C0F08A818032A8F48A8188518A8316
S113033080E390E0FC018081882F90E02A81222FC5
S113034030E002C0959587952A95E2F781708983FC
S1130350898100C00F900F90DF91CF910895CF93C2
S1130360DF9300D0CDB7DEB789836A838981883073
S113037090F58A818130A9F48AE390E02AE330E0A1
S1130380F9012081622F2981422F50E021E030E0E1
S113039002C0220F331F4A95E2F7262BFC0120836B
S11303A0CDC08A81882309F0C9C08AE390E02AE39A
S11303B030E0F9012081622F2981422F50E021E0B1
S11303C030E002C0220F331F4A95E2F7209526231E
S11303D0FC012083B3C089818830C0F189818031D8
S11303E0A8F58981885089838A818130A9F487E3BB
S11303F090E027E330E0F9012081622F2981422F28
S113040050E021E030E002C0220F331F4A95E2F7AA
S1130410262BFC0120838FC08A81882309F08BC09E
S113042087E390E027E330E0F9012081622F2981FE
S1130430422F50E021E030E002C0220F331F4A95E2
S1130440E2F720952623FC01208375C08981803141
S1130450C0F189818831A8F58981805189838A8195
S11304608130A9F484E390E024E330E0F9012081B1
S1130470622F2981422F50E021E030E002C0220F98
S1130480331F4A95E2F7262BFC01208356C08A814C
S1130490882309F052C084E390E024E330E0F901BA
S11304A02081622F2981422F50E021E030E002C0F8
S11304B0220F331F4A95E2F720952623FC0120835F
S11304C03CC089818831D0F189818032B8F5898135
S11304D0885189838A818130A9F481E390E021E302
S11304E030E0F9012081622F2981422F50E021E080
S11304F030E002C0220F331F4A95E2F7262BFC019D
S113050020831CC08A818823C9F481E390E021E31D
S113051030E0F9012081622F2981422F50E021E04F
S113052030E002C0220F331F4A95E2F720952623BC
S1130530FC01208303C0000001C0000000000F90F4
S11305400F90DF91CF910895CF93DF93CDB7DEB7AE
S113055061E081E00E94AF0161E082E00E94AF01AE
S113056061E083E00E94AF0161E084E00E94AF019A
S113057061E085E00E94AF0161E086E00E94AF0186
S113058061E087E00E94AF016EE170E080E090E0FE
S11305900E94110780E30E94F8026AE070E080E0A4
S11305A090E00E94110780E30E94F80265E070E089
S11305B080E090E00E94110780E30E94F80265E069
S11305C070E080E090E00E94110782E00E94F8024F
S11305D088E20E94F8028FE00E94F80284E10E94FF
S11305E0F80281E00E94F8020000DF91CF910895A3
S11305F0CF93DF9300D000D01F92CDB7DEB78D83A9
S113060060E083E00E94490060E081E00E944900CC
S113061060E082E00E9449008D8182958F70817034
S113062089838D8182958695877081708A838D8177
S1130630829586958695837081708B838D81881FC2
S11306408827881F8C83698184E00E9449006A811D
S113065085E00E9449006B8186E00E9449006C811C
S113066087E00E94490061E083E00E9449006AE05B
S113067070E080E090E00E94110760E083E00E9457
S113068049008D81817089838D81869581708A83EB
S11306908D818695869581708B838D8186958695CF
S11306A0869581708C83698184E00E9449006A8107
S11306B085E00E9449006B8186E00E9449006C81BC
S11306C087E00E94490061E083E00E9449006AE0FB
S11306D070E080E090E00E94110760E083E00E94F7
S11306E0490000000F900F900F900F900F90DF9132
S11306F0CF910895CF93DF9300D000D01F92CDB750
S1130700DEB78D8360E083E00E94490061E081E010
S11307100E94490060E082E00E9449008D81829538
S11307208F70817089838D818295869587708170A1
S11307308A838D81829586958695837081708B835B
S11307408D81881F8827881F8C83698184E00E949B
S113075049006A8185E00E9449006B8186E00E941D
S113076049006C8187E00E94490061E083E00E94B7
S113077049006AE070E080E090E00E94110760E0C8
S113078083E00E9449008D81817089838D818695E3
S113079081708A838D818695869581708B838D8106
S11307A086958695869581708C83698184E00E9404
S11307B049006A8185E00E9449006B8186E00E94BD
S11307C049006C8187E00E94490061E083E00E9457
S11307D049006AE070E080E090E00E94110760E068
S11307E083E00E94490000000F900F900F900F903B
S11307F00F90DF91CF910895CF93DF9300D000D075
S1130800CDB7DEB79B838A836C8319820EC089813E
S1130810882F90E02A813B81820F931FFC01808105
S11308200E947A0389818F5F89838C8181508C83B4
S11308308C81882361F700000F900F900F900F9028
S1130840DF91CF910895CF93DF9300D0CDB7DEB77A
S113085089836A838981882371F480E80E94F8027D
S113086003C084E10E94F8028A819FEF980F9A8363
S11308708823B9F710C08981813069F480EC0E9423
S1130880F80203C084E10E94F8028A819FEF980F66
S11308909A838823B9F700000F900F90DF91CF91CE
S11308A00895CF93DF9300D000D01F92CDB7DEB769
S11308B09A8389836B834C832D836D818C810E9401
S11308C0230489819A816B810E94FC0300000F90AC
S11308D00F900F900F900F90DF91CF910895CF93C9
S11308E0DF93CDB7DEB781E00E94F8020000DF910C
S11308F0CF910895CF93DF93CDB7DEB780E40E9404
S1130900F80280E00E947A0380E00E947A038AE081
S11309100E947A0380E00E947A0381E10E947A03B4
S11309208EE00E947A0380E00E947A0380E00E94B5
S11309307A0365E070E080E090E00E94110780E8AF
S11309400E94F8020000DF91CF910895CF93DF93C6
S1130950CDB7DEB788E40E94F80280E00E947A03F3
S113096080E00E947A038AE00E947A0380E00E9479
S11309707A038EE00E947A0381E10E947A0380E088
S11309800E947A0380E00E947A0365E070E080E0D0
S113099090E00E94110780E80E94F8020000DF91B5
S11309A0CF910895CF93DF93CDB7DEB781E00E9456
S11309B07A030000DF91CF910895CF93DF93CDB7F1
S11309C0DEB780E50E94F80280E00E947A0381E0AD
S11309D00E947A0383E00E947A0383E00E947A03F0
S11309E08FE00E947A038FE10E947A038FE10E94D4
S11309F07A038FE00E947A0365E070E080E090E083
S1130A000E94110780E80E94F8020000DF91CF9154
S1130A100895CF93DF93CDB7DEB782E00E947A03C7
S1130A200000DF91CF910895CF93DF93CDB7DEB768
S1130A3088E50E94F8028EE00E947A0381E10E9418
S1130A407A0381E10E947A0381E10E947A038EE0B5
S1130A500E947A0384E00E947A0384E00E947A036D
S1130A6082E00E947A0365E070E080E090E00E94FA
S1130A70110780E80E94F8020000DF91CF910895E9
S1130A80CF93DF93CDB7DEB783E00E947A030000F3
S1130A90DF91CF910895CF93DF93CDB7DEB7CA56D8
S1130AA0D1090FB6F894DEBF0FBECDBF0E946D070B
S1130AB00E94A4020E947A040E94DD040E94A604FB
S1130AC00E94140560E084E10E94AF0160E08AE0C6
S1130AD00E94AF011B8285E5E1EAF0E0DE01159694
S1130AE001900D928A95E1F7CE01865A9F4F2CE032
S1130AF0E6EFF0E0DC0101900D922A95E1F781E147
S1130B008C83CE018A599F4F25E0E2E0F1E0DC01BD
S1130B1001900D922A95E1F71A8205C00E944005C2
S1130B208A818F5F8A838A818031C0F325E041E026
S1130B3068E080E690E00E94510468EE73E080E093
S1130B4090E00E9411070E946F0419822CC181E178
S1130B508C838981482F50E09E012B5F3F4F61E1D8
S1130B60649FC001659F900D1124820F931F6C81B7
S1130B700E94FC0380EC0E94F8028CE08C83CE017E
S1130B80865A9F4F6C810E94FC0365E070E080E010
S1130B9090E00E94110784E10E943E01882309F439
S1130BA07DC08AE00E943E01882F90E0019609F4FE
S1130BB075C00E946F048981882F90E09E012A5994
S1130BC03F4F820F931FFC0180818823C1F18B81E9
S1130BD08F5F8B831A8205C00E9409058A818F5F0B
S1130BE08A838A818031C0F31A821DC023E041E0E8
S1130BF068E088E690E00E94510464E670E080E0DA
S1130C0090E00E94110723E041E068E080E790E073
S1130C100E94510464E670E080E090E00E941107B5
S1130C208A818F5F8A838A81853000F364EF71E063
S1130C3080E090E00E9411070E946F04B1C01A8204
S1130C4005C00E94D2048A818F5F8A838A818031A1
S1130C50C0F31A821DC023E041E068E089E790E018
S1130C600E94510464E670E080E090E00E94110765
S1130C7023E041E068E080E790E00E94510464E6EC
S1130C8070E080E090E00E9411078A818F5F8A8380
S1130C908A81853000F30E946F0482C065E070E0B1
S1130CA080E090E00E94110784E10E943E01882FB9
S1130CB090E0019609F469CF8AE00E943E018823FE
S1130CC009F463CF0E946F048981882F90E09E010C
S1130CD02A593F4F820F931FFC018081882391F58D
S1130CE08B818F5F8B831A8205C00E9409058A81DC
S1130CF08F5F8A838A818031C0F31A821DC023E00A
S1130D0041E068E088E690E00E94510464E670E007
S1130D1080E090E00E94110723E041E068E080E772
S1130D2090E00E94510464E670E080E090E00E944C
S1130D3011078A818F5F8A838A81853000F30E943C
S1130D406F042EC01A8205C00E94D2048A818F5F6C
S1130D508A838A818031C0F31A821DC023E041E076
S1130D6068E089E790E00E94510464E670E080E066
S1130D7090E00E94110723E041E068E080E790E002
S1130D800E94510464E670E080E090E00E94110744
S1130D908A818F5F8A838A81853000F30E946F0481
S1130DA089818F5F89838981853008F4D0CE6FE093
S1130DB081E890E00E94FC036DE081E00E9423043E
S1130DC08B81805D0E947A0368EE73E080E090E09E
S1130DD00E9411070E946F041A8205C00E944005F8
S1130DE08A818F5F8A838A818031C0F320E041E069
S1130DF061E181E990E00E94510468EE73E080E0D3
S1130E0090E00E9411070E946F0480E090E0C659B0
S1130E10DF4F0FB6F894DEBF0FBECDBFDF91CF9189
S1130E200895CF93DF93CDB7DEB728970FB6F89424
S1130E30DEBF0FBECDBF6D837E838F8398871982FB
S1130E401A821B821C8283E590E0FC0110828CE5EF
S1130E5090E02AEFFC01208383E590E02BE8FC017D
S1130E60208382E590E0FC01108220C0000088E528
S1130E7090E0FC0180818695882F90E0817099270D
S1130E80892BA9F388E590E028E530E0F901208179
S1130E902260FC01208389819A81AB81BC81019607
S1130EA0A11DB11D89839A83AB83BC8329813A81B7
S1130EB04B815C818D819E81AF81B885281739076C
S1130EC04A075B0798F2000028960FB6F894DEBF35
S1130ED00FBECDBFDF91CF910895CF93DF93CDB7F0
S1130EE0DEB78CE590E02AEFFC01208383E590E0F7
S1130EF02BE8FC0120830000DF91CF9108951F921D
S1130F000F9200905F000F9211248F939F93AF93E1
S1130F10BF93CF93DF93CDB7DEB780910801909153
S1130F200901A0910A01B0910B010197A109B1092E
S1130F308093080190930901A0930A01B0930B01D7
S1130F400000DF91CF91BF91AF919F918F910F904E
S1110F5000925F000F901F901895F894FFCF49
S1130F5E57656C636F6D6500636F727265637400C1
S1130F6E20202020202020200077726F6E67212100
S1130F7E00596F75722073636F7265203D202020B7
S1130F8E0053484152414654205961205A6F322031
S1130F9E005368616B697269206E756D203233205F
S1130FAE3F0031362A2E34352B2E373D372E39203D
S1130FBE203F0031446F6C6C61723D31372E3235F7
S1130FCE204C45004176656C616273206973204E36
S1130FDE554D313F00305835303D383044202020B7
S1130FEE20202020203F5965732020202020204ED1
S10B0FFE4F0001010000010095
S9030000FC
