S01200004C6364446973706C61792E7372656329
S11300000C9433000C9448000C9448000C94480061
S11300100C9448000C9448000C9448000C9448003C
S11300200C9448000C9448000C9448000C9448002C
S11300300C9448000C9448000C9448000C9448001C
S11300400C9448000C9448000C9448000C9448000C
S11300500C9448007304B504E404130543057105C6
S1130060FD059F05CE0511241FBECFE5D8E0DEBFF8
S1130070CDBF11E0A0E6B0E0EAEBFCE002C00590E1
S11300800D92AC33B107D9F70E9466030C945B065A
S11300900C940000613009F043C0883068F44BB31D
S11300A021E030E0B90102C0660F771F8A95E2F7BC
S11300B0CB01842B8BBB089598EF980F983068F48C
S11300C048B321E030E0B90102C0660F771F9A956A
S11300D0E2F7CB01842B88BB089590EF980F9830FA
S11300E068F445B321E030E0B90102C0660F771F20
S11300F09A95E2F7CB01842B85BB089598EE980F6F
S1130100983008F054C042B321E030E0B90102C095
S1130110660F771F9A95E2F7CB01842B82BB089573
S1130120611145C0883070F44BB321E030E0B9016F
S113013002C0660F771F8A95E2F7CB01809584236E
S11301408BBB089598EF980F983070F448B321E072
S113015030E0B90102C0660F771F9A95E2F7CB0130
S11301608095842388BB089590EF980F983070F49D
S113017045B321E030E0B90102C0660F771F9A95BC
S1130180E2F7CB018095842385BB089598EE980F00
S1130190983068F442B321E030E0B90102C0660F40
S11301A0771F9A95E2F7CB018095842382BB08954B
S11301B08830A0F449B321E030E0082E02C0220FB9
S11301C0331F0A94E2F750E024233523A90102C027
S11301D0559547958A95E2F7CA01089598EF980FC7
S11301E09830B0F426B3482F50E04850510981E0CC
S11301F090E0042E02C0880F991F0A94E2F730E0C1
S11302008223932302C0959587954A95E2F7089532
S113021090EF980F9830B0F423B3482F50E040513A
S1130220510981E090E0042E02C0880F991F0A94BE
S1130230E2F730E08223932302C0959587954A958F
S1130240E2F7089598EE980F9830B0F420B3482F51
S113025050E04851510981E090E0042E02C0880F1B
S1130260991F0A94E2F730E08223932302C0959504
S113027087954A95E2F7089580E00895613009F082
S113028043C0883068F44AB321E030E0B90102C0C9
S1130290660F771F8A95E2F7CB01842B8ABB0895FA
S11302A098EF980F983068F447B321E030E0B90133
S11302B002C0660F771F9A95E2F7CB01842B87BBA8
S11302C0089590EF980F983068F444B321E030E03B
S11302D0B90102C0660F771F9A95E2F7CB01842B10
S11302E084BB089598EE980F983008F054C041B339
S11302F021E030E0B90102C0660F771F9A95E2F75A
S1130300CB01842B81BB0895611145C0883070F402
S11303104AB321E030E0B90102C0660F771F8A9525
S1130320E2F7CB01809584238ABB089598EF980F58
S1130330983070F447B321E030E0B90102C0660F91
S1130340771F9A95E2F7CB018095842387BB0895A4
S113035090EF980F983070F444B321E030E0B90185
S113036002C0660F771F9A95E2F7CB01809584232C
S113037084BB089598EE980F983068F441B321E057
S113038030E0B90102C0660F771F9A95E2F7CB01FE
S11303908095842381BB0895CF93DF93C82F61E0B8
S11303A070E080E090E00E943E0660E081E00E9400
S11303B04A0060E082E00E944A0061E083E00E941B
S11303C04A00C4FB662760F984E00E944A00C5FB2A
S11303D0662760F985E00E944A00C6FB662760F93B
S11303E086E00E944A006C2F661F6627661F87E01E
S11303F00E944A0061E070E080E090E00E943E06C6
S113040060E081E00E944A0060E082E00E944A00CD
S113041060E083E00E944A0061E070E080E090E0E8
S11304200E943E0661E083E00E944A0061E070E0C1
S113043080E090E00E943E0680E1C89FE001112424
S11304406C2F6295617084E00E944A00C5FB6627A8
S113045060F985E00E944A00C6FB662760F986E0E1
S11304600E944A006C2F661F6627661F87E00E9461
S11304704A0061E070E080E090E00E943E0660E0A7
S113048081E00E944A0060E082E00E944A0060E04D
S113049083E00E944A0061E070E080E090E00E9406
S11304A03E0661E083E00E944A0061E070E080E083
S11304B090E00E943E06DF91CF91089561E070E0E4
S11304C080E090E00E943E0661E081E00E943E01EF
S11304D061E082E00E943E0161E083E00E943E010F
S11304E061E084E00E943E0161E085E00E943E01FB
S11304F061E086E00E943E0161E087E00E943E01E7
S113050083E30E94CC0182E30E94CC0188E20E9432
S1130510CC0181E00E94CC018EE00E94CC0180E8F5
S11305200E94CC0186E00E94CC018CE00E94CC01A8
S11305300895CF93DF93C82F61E070E080E090E0EE
S11305400E943E0661E081E00E944A0060E082E091
S11305500E944A0061E083E00E944A00C4FB6627CF
S113056060F984E00E944A00C5FB662760F985E0D3
S11305700E944A00C6FB662760F986E00E944A0092
S11305806C2F661F6627661F87E00E944A0061E0A1
S113059070E080E090E00E943E0660E083E00E940C
S11305A04A0061E070E080E090E00E943E0661E075
S11305B083E00E944A0061E070E080E090E00E94E5
S11305C03E0680E1C89FE00111246C2F62956170A2
S11305D084E00E944A00C5FB662760F985E00E941A
S11305E04A00C6FB662760F986E00E944A006C2F29
S11305F0661F6627661F87E00E944A0061E070E07C
S113060080E090E00E943E0660E083E00E944A00A1
S113061061E070E080E090E00E943E0661E083E0EB
S11306200E944A0061E070E080E090E00E943E0693
S1130630DF91CF9108950F931F93CF93DF938C0194
S1130640C0E0D0E009C00E9499022196C031D105D2
S113065019F484E10E94CC01F80181918F01811188
S1130660F2CFDF91CF911F910F910895813029F43A
S11306708FE7860F0E94CC010895823021F48FEB1E
S1130680860F0E94CC01089581E00E94CC0180E88D
S11306900E94CC0108950F931F93CF93DF9388306A
S11306A080F48B01880F880F880F805C0E94CC0136
S11306B0E801085F1F4F89910E949902C017D10772
S11306C0D1F7DF91CF911F910F910895CF93DF93CD
S11306D0CDB7DEB7C75CD1090FB6F894DEBF0FBE45
S11306E0CDBF88E0EDEAF0E0DE01119601900D92B5
S11306F08A95E1F78AE0E5EBF0E0DE0119960190D6
S11307000D928A95E1F78CE0EFEBF0E0DE01539671
S113071001900D928A95E1F78EE0EBECF0E0DE01BA
S11307205F9601900D928A95E1F781E1E9EDF0E0A1
S1130730DE019D9601900D928A95E1F781E1EAEE42
S1130740F0E0DE01DE9601900D928A95E1F781E1F9
S1130750EBEFF0E0DE01A15BBF4F01900D928A95B3
S1130760E1F78FE0ECE0F1E0DE01A05ABF4F019029
S11307700D928A95E1F780E1EBE1F1E0DE01A15908
S1130780BF4F01900D928A95E1F781E1EBE2F1E030
S1130790DE01A158BF4F01900D928A95E1F788E0E0
S11307A0E0E6F0E0DE01A057BF4F01900D928A957C
S11307B0E1F788E0E8E6F0E0DE01A856BF4F0190DB
S11307C00D928A95E1F788E0E0E7F0E0DE01A056BB
S11307D0BF4F01900D928A95E1F788E0E8E7F0E0D9
S11307E0DE01A855BF4F01900D928A95E1F788E08C
S11307F0E0E8F0E0DE01A055BF4F01900D928A952C
S1130800E1F788E0E8E8F0E0DE01A854BF4F01908A
S11308100D928A95E1F788E0E0E9F0E0DE01A0546A
S1130820BF4F01900D928A95E1F760E084E10E9448
S11308303E0160E08AE00E943E010E942B060E9475
S11308405E020E944403BE0160577F4F80E00E9415
S11308504B03BE0168567F4F81E00E944B03BE01EB
S113086060567F4F82E00E944B03BE0168557F4F64
S113087083E00E944B03BE0160557F4F84E00E94D9
S11308804B03BE0168547F4F85E00E944B03BE01B9
S113089060547F4F86E00E944B03F12C01E010E08E
S11308A0C12C6894DD24D3F80F2EF7E0EF2EF02D41
S11308B010C0012F1B2D0DC0012F1B2D0AC0012FAD
S11308C01B2D07C0012F1B2D04C0012F1B2D01C0A0
S11308D01B2D812F90E0FC0189309105E0F7E65D46
S11308E0FF4F0C9455060E94440365E081E00E948A
S11308F03603CE0101960E941B036CE271E080E096
S113090090E00E943E060E94440364E081E00E945D
S11309103603CE0109960E941B036CE271E080E06D
S113092090E00E943E060E94440363E081E00E943E
S11309303603CE0143960E941B036CE271E080E013
S113094090E00E943E060E94440362E081E00E941F
S11309503603CE014F960E941B0364EF71E080E0E2
S113096090E00E943E0611E0B4CF0E94440361E08F
S113097081E00E943603CE018D960E941B0361E044
S113098082E00E943603CE0181589F4F0E941B03D0
S113099084E10E94D800811105C08AE00E94D80039
S11309A08823B1F384E10E94D800882311F0BD2C80
S11309B001C0B12E8AE00E94D800882309F479CFBF
S11309C0F394012F1E2D85CF0E94440361E081E042
S11309D00E943603CE01CE960E941B0361E082E0A2
S11309E00E943603CE0181589F4F0E941B0384E16D
S11309F00E94D800811105C08AE00E94D800882393
S1130A00B1F384E10E94D800882311F0BD2C01C009
S1130A10B12E8AE00E94D800882309F44DCFF394C4
S1130A20012F1E2D56CF0E94440361E081E00E94F5
S1130A303603CE01815B9F4F0E941B0361E082E07D
S1130A400E943603CE0181589F4F0E941B0384E10C
S1130A500E94D800811105C08AE00E94D800882332
S1130A60B1F384E10E94D800882319F0F394BE2CDA
S1130A7001C0B12E8AE00E94D800882309F41FCF58
S1130A80012F1D2D26CF61E081E00E943603CE01A7
S1130A90805A9F4F0E941B0361E082E00E9436034C
S1130AA0CE0181589F4F0E941B0384E10E94D8000D
S1130AB0811105C08AE00E94D8008823B1F384E143
S1130AC00E94D800882311F0BD2C01C0B12E8AE009
S1130AD00E94D800882309F4F5CEF394012F1E2D2B
S1130AE0F8CE61E081E00E943603CE0181599F4F28
S1130AF00E941B0361E082E00E943603CE0181580C
S1130B009F4F0E941B0384E10E94D800811105C0FD
S1130B108AE00E94D8008823B1F384E10E94D800BF
S1130B20882319F0F394BE2C01C0B12E8AE00E94F0
S1130B30D800882309F4C9CE012F1D2DCACE0E94E6
S1130B40440361E081E00E94360387E80E94CC01FF
S1130B508C2D0E94990281E00E94990282E00E94F9
S1130B60990287EC0E94CC0162E070E080E090E0A2
S1130B700E943E0683E00E94990286E00E94990248
S1130B8085E00E94990260ED77E080E090E00E94A9
S1130B903E060E9444030F5F102F9BCE0E94440325
S1130BA061E081E00E94360387E80E94CC018C2D2D
S1130BB00E94990281E00E94990282E00E949902B7
S1130BC087EC0E94CC0162E070E080E090E00E943B
S1130BD03E0683E00E94990284E00E94990285E027
S1130BE00E94990260ED77E080E090E00E943E066A
S1130BF00E9444030F5F102F6CCE61E081E00E94DD
S1130C00360388E990E00E941B0380E38F0D0E9465
S1130C10990261E082E00E94360385EA90E00E9436
S1130C201B0384E10E94D800811105C08AE00E9460
S1130C30D8008823B1F384E10E94D800882319F0F6
S1130C40F394BC2C01C0B12E8AE00E94D800882302
S1130C5009F43ECE3ECE83B7886083BF83B78F7BD3
S1130C6083BF12BE8AEF8CBF83B7816083BF83B713
S1130C70826083BF83B78B7F83BF0895AB01BC01C0
S1130C8088B7816088BF12BE4115510561057105A1
S1130C9059F008B601FEFDCF88B7826088BF415085
S1130CA0510961097109A9F70895EE0FFF1F059015
S10D0CB0F491E02D0994F894FFCFAD
S1130CBA0000010204081010001F00001B000000BD
S1130CCA00001008040201011010080402010000C7
S1130CDA000E111100001F00010102040810000097
S1130CEA0011110E00001F00596F75722053636FB3
S1130CFA72653A2000416761696E203F0057454C8E
S1130D0A434F4D45002D57454C434F4D452D002D1E
S1130D1A2D57454C434F4D452D2D002D2D2D57450F
S1130D2A4C434F4D452D2D2D004973204E696C655A
S1130D3A2036363835206B6D3F004869746C65720D
S1130D4A20646965642033302D36004D616E557414
S1130D5A64206573742E2031383738004372372083
S1130D6A3335207965617273203F00424F534348FB
S1130D7A206573742E2031383836003E5965732045
S10F0D8A20202020202020203E4E4F007E
S9030000FC
