S01300004F6E655F4D696C6C696F6E2E73726563BC
S11300000C942A000C943F000C943F000C943F0085
S11300100C943F000C943F000C943F000C943F0060
S11300200C943F000C943F000C943F000C943F0050
S11300300C943F000C943F000C943F000C943F0040
S11300400C943F000C943F000C943F000C943F0030
S11300500C943F0011241FBECFE5D8E0DEBFCDBF16
S113006011E0A0E6B0E0E8E2F6E202C005900D92ED
S1130070A638B107D9F70E9482080C9412130C9485
S11300800000CF93DF931F92CDB7DEB7898361E081
S113009089810E94870100000F90DF91CF9108951C
S11300A0CF93DF9300D000D0CDB7DEB78B836C83C2
S11300B01A8219828B81883028F489E390E09A832C
S11300C0898320C08B81803140F48B81883028F073
S11300D086E390E09A83898315C08B81883140F44C
S11300E08B81803128F083E390E09A8389830AC06E
S11300F08B81803238F48B81883120F080E390E06A
S11301009A83898389819A814B816C810E949000B2
S113011000000F900F900F900F90DF91CF910895F2
S1130120CF93DF9300D000D01F92CDB7DEB79B836F
S11301308A836C834D8319828D81883018F48D8174
S113014089831DC08D81803138F48D81883020F001
S11301508D818850898313C08D81883138F48D81D5
S1130160803120F08D818051898309C08D81803256
S113017030F48D81883118F08D81885189838C8188
S1130180882F90E00097C9F0019709F02DC08A816B
S11301909B81FC018281482F8981282F30E081E0F6
S11301A090E002C0880F991F2A95E2F7842B282F2C
S11301B08A819B81FC01228317C08A819B81FC0177
S11301C08281482F8981282F30E081E090E002C0AD
S11301D0880F991F2A95E2F780958423282F8A8116
S11301E09B81FC012283000000000F900F900F9070
S11301F00F900F90DF91CF910895CF93DF9300D0AC
S11302001F92CDB7DEB78B831A8219828B81883017
S113021028F489E390E09A83898320C08B8180311C
S113022040F48B81883028F086E390E09A838983B8
S113023015C08B81883140F48B81803128F083E3B1
S113024090E09A8389830AC08B81803238F48B8151
S1130250883120F080E390E09A83898389819A81B0
S11302606B810E9439010F900F900F90DF91CF9115
S11302700895CF93DF9300D000D0CDB7DEB79B8332
S11302808A836C8319828C81883018F48C818983E9
S11302901DC08C81803138F48C81883020F08C81B1
S11302A08850898313C08C81883138F48C818031E3
S11302B020F08C818051898309C08C81803230F494
S11302C08C81883118F08C81885189838A819B8143
S11302D0FC018081282F30E08981482F50E081E0A3
S11302E090E002C0880F991F4A95E2F78223932376
S11302F02981222F30E002C0959587952A95E2F74F
S11303000F900F900F900F90DF91CF910895CF939E
S1130310DF9300D000D0CDB7DEB78B836C831A8215
S113032019828B81883028F489E390E09A83898349
S113033020C08B81803140F48B81883028F086E3A3
S113034090E09A83898315C08B81883140F48B8136
S1130350803128F083E390E09A8389830AC08B81FB
S1130360803238F48B81883120F080E390E09A83E6
S1130370898389819A814C816B810E94C701000025
S11303800F900F900F900F90DF91CF910895CF931E
S1130390DF9300D000D01F92CDB7DEB79B838A8352
S11303A06C834D8319828C81883018F48C81898305
S11303B01DC08C81803138F48C81883020F08C8190
S11303C08850898313C08C81883138F48C818031C2
S11303D020F08C818051898309C08C81803230F473
S11303E08C81883118F08C81885189838D81882F84
S11303F090E08130910599F18230910509F45CC057
S1130400892B09F06FC08A819B81FC018181482F6F
S11304108981282F30E081E090E002C0880F991F85
S11304202A95E2F780958423282F8A819B81FC01F9
S113043021838A819B81FC018281482F8981282F15
S113044030E081E090E002C0880F991F2A95E2F71E
S1130450842B282F8A819B81FC01228343C08A81BB
S11304609B81FC018181482F8981282F30E081E024
S113047090E002C0880F991F2A95E2F780958423A3
S1130480282F8A819B81FC0121838A819B81FC0125
S11304908281482F8981282F30E081E090E002C0DA
S11304A0880F991F2A95E2F780958423282F8A8143
S11304B09B81FC01228316C08A819B81FC0181817E
S11304C0482F8981282F30E081E090E002C0880F16
S11304D0991F2A95E2F7842B282F8A819B81FC019E
S11304E02183000000000F900F900F900F900F9049
S11304F0DF91CF910895CF93DF93CDB7DEB76C979B
S11305000FB6F894DEBF0FBECDBF62E081E00E945B
S1130510870162E083E00E94870162E082E00E943A
S1130520870162E084E00E94870162E085E00E9426
S1130530870162E086E00E94870162E087E00E9412
S1130540870160E083E00E94500080E090E0A0E733
S1130550B1E489839A83AB83BC8320E030E04AE72B
S113056055E469817A818B819C810E947D12DC0132
S1130570CB018B8B9C8BAD8BBE8B20E030E040E8B5
S11305805FE36B897C898D899E890E94F71188239A
S11305902CF481E090E0988F8F8B3FC020E03FEFF8
S11305A04FE757E46B897C898D899E890E94781274
S11305B018164CF520E030E040E251E469817A817C
S11305C08B819C810E947D12DC01CB01BC01CD0199
S11305D00E94FC11DC01CB01988F8F8B0FC080E946
S11305E091E09A8F898F898D9A8D0197F1F79A8F6F
S11305F0898F8F89988D0197988F8F8B8F89988D8C
S1130600892B69F714C06B897C898D899E890E9426
S1130610FC11DC01CB01988F8F8B8F89988D9C8F77
S11306208B8F8B8D9C8D0197F1F79C8F8B8F83E340
S11306300E94A50382E30E94A50388E20E94A50309
S11306408EE00E94A50381E00E94A50386E00E943B
S1130650A50380E090E0A0E8BFE38D839E83AF8391
S1130660B88720E030E04AE755E46D817E818F81D0
S113067098850E947D12DC01CB0189879A87AB871C
S1130680BC8720E030E040E85FE369857A858B85AC
S11306909C850E94F71188232CF481E090E09E87CA
S11306A08D873FC020E03FEF4FE757E469857A85A7
S11306B08B859C850E94781218164CF520E030E05A
S11306C040E251E46D817E818F8198850E947D1284
S11306D0DC01CB01BC01CD010E94FC11DC01CB018A
S11306E09E878D870FC080E991E0988B8F878F85D7
S11306F098890197F1F7988B8F878D859E8501974F
S11307009E878D878D859E85892B69F714C06985A1
S11307107A858B859C850E94FC11DC01CB019E8728
S11307208D878D859E859A8B898B89899A89019776
S1130730F1F79A8B898B00006C960FB6F894DEBFA4
S11307400FBECDBFDF91CF910895CF93DF93CDB787
S1130750DEB7E9970FB6F894DEBF0FBECDBF89AF01
S113076060E081E00E94500060E082E00E9450005E
S113077089AD807182958F70682F84E00E9450004B
S113078089AD8072829586958770682F85E00E9476
S1130790500089AD80748295869586958370682F04
S11307A086E00E94500089AD881F8827881F682F23
S11307B087E00E94500061E083E00E94500080E0E6
S11307C090E0A0E8BFE389839A83AB83BC8320E0F5
S11307D030E04AE755E469817A818B819C810E94EB
S11307E07D12DC01CB018FA798ABA9ABBAAB20E09B
S11307F030E040E85FE36FA578A989A99AA90E942F
S1130800F71188232CF481E090E09CAB8BAB3FC0C4
S113081020E03FEF4FE757E46FA578A989A99AA98B
S11308200E94781218164CF520E030E040E251E4C2
S113083069817A818B819C810E947D12DC01CB01CC
S1130840BC01CD010E94FC11DC01CB019CAB8BAB44
S11308500FC080E991E09EAB8DAB8DA99EA9019755
S1130860F1F79EAB8DAB8BA99CA901979CAB8BAB8D
S11308708BA99CA9892B69F714C06FA578A989A9AC
S11308809AA90E94FC11DC01CB019CAB8BAB8BA918
S11308909CA998AF8FAB8FA998AD0197F1F798AF4A
S11308A08FAB60E083E00E94500080E090E0A0E81D
S11308B0BFE38D839E83AF83B88720E030E04AE7AF
S11308C055E46D817E818F8198850E947D12DC01C3
S11308D0CB018DA39EA3AFA3B8A720E030E040E8EE
S11308E05FE36DA17EA18FA198A50E94F7118823D3
S11308F02CF481E090E09AA789A73FC020E03FEF65
S11309004FE757E46DA17EA18FA198A50E947812AC
S113091018164CF520E030E040E251E46D817E8110
S11309208F8198850E947D12DC01CB01BC01CD0131
S11309300E94FC11DC01CB019AA789A70FC080E9B2
S113094091E09CA78BA78BA59CA50197F1F79CA789
S11309508BA789A59AA501979AA789A789A59AA57E
S1130960892B69F714C06DA17EA18FA198A50E945F
S1130970FC11DC01CB019AA789A789A59AA59EA79A
S11309808DA78DA59EA50197F1F79EA78DA789AD8B
S11309908170682F84E00E94500089AD8270869532
S11309A0682F85E00E94500089AD847086958695F5
S11309B0682F86E00E94500089AD887086958695E0
S11309C08695682F87E00E94500061E083E00E94D2
S11309D0500080E090E0A0E8BFE389879A87AB8766
S11309E0BC8720E030E04AE755E469857A858B8549
S11309F09C850E947D12DC01CB018B8F9C8FAD8F77
S1130A00BE8F20E030E040E85FE36B8D7C8D8D8D00
S1130A109E8D0E94F71188232CF481E090E098A326
S1130A208F8F3FC020E03FEF4FE757E46B8D7C8D05
S1130A308D8D9E8D0E94781218164CF520E030E0C2
S1130A4040E251E469857A858B859C850E947D12FC
S1130A50DC01CB01BC01CD010E94FC11DC01CB0106
S1130A6098A38F8F0FC080E991E09AA389A389A1ED
S1130A709AA10197F1F79AA389A38F8D98A1019761
S1130A8098A38F8F8F8D98A1892B69F714C06B8DD4
S1130A907C8D8D8D9E8D0E94FC11DC01CB0198A371
S1130AA08F8F8F8D98A19CA38BA38BA19CA1019761
S1130AB0F1F79CA38BA360E083E00E94500080E0E8
S1130AC090E0A0E8BFE38D879E87AF87B88B20E0D6
S1130AD030E04AE755E46D857E858F8598890E94CC
S1130AE07D12DC01CB01898B9A8BAB8BBC8B20E014
S1130AF030E040E85FE369897A898B899C890E94A8
S1130B00F71188232CF481E090E09E8B8D8B3FC0FD
S1130B1020E03FEF4FE757E469897A898B899C8904
S1130B200E94781218164CF520E030E040E251E4BF
S1130B306D857E858F8598890E947D12DC01CB01AD
S1130B40BC01CD010E94FC11DC01CB019E8B8D8B7D
S1130B500FC080E991E0988F8F8B8F89988D0197D2
S1130B60F1F7988F8F8B8D899E8901979E8B8D8B42
S1130B708D899E89892B69F714C069897A898B8943
S1130B809C890E94FC11DC01CB019E8B8D8B8D898D
S1130B909E899A8F898F898D9A8D0197F1F79A8F03
S1130BA0898F0000E9960FB6F894DEBF0FBECDBF63
S1130BB0DF91CF910895CF93DF93CDB7DEB7E99757
S1130BC00FB6F894DEBF0FBECDBF89AF61E081E000
S1130BD00E94500060E082E00E94500089AD807164
S1130BE082958F70682F84E00E94500089AD8072D6
S1130BF0829586958770682F85E00E94500089ADA4
S1130C0080748295869586958370682F86E00E940D
S1130C10500089AD881F8827881F682F87E00E94AD
S1130C20500061E083E00E94500080E090E0A0E882
S1130C30BFE389839A83AB83BC8320E030E04AE737
S1130C4055E469817A818B819C810E947D12DC014B
S1130C50CB018FA798ABA9ABBAAB20E030E040E85A
S1130C605FE36FA578A989A99AA90E94F71188233F
S1130C702CF481E090E09CAB8BAB3FC020E03FEFD5
S1130C804FE757E46FA578A989A99AA90E94781219
S1130C9018164CF520E030E040E251E469817A8195
S1130CA08B819C810E947D12DC01CB01BC01CD01B2
S1130CB00E94FC11DC01CB019CAB8BAB0FC080E923
S1130CC091E09EAB8DAB8DA99EA90197F1F79EABE8
S1130CD08DAB8BA99CA901979CAB8BAB8BA99CA9D1
S1130CE0892B69F714C06FA578A989A99AA90E94CC
S1130CF0FC11DC01CB019CAB8BAB8BA99CA998AFFD
S1130D008FAB8FA998AD0197F1F798AF8FAB60E0E7
S1130D1083E00E94500080E090E0A0E8BFE38D8370
S1130D209E83AF83B88720E030E04AE755E46D81C5
S1130D307E818F8198850E947D12DC01CB018DA379
S1130D409EA3AFA3B8A720E030E040E85FE36DA125
S1130D507EA18FA198A50E94F71188232CF481E02D
S1130D6090E09AA789A73FC020E03FEF4FE757E400
S1130D706DA17EA18FA198A50E94781218164CF53A
S1130D8020E030E040E251E46D817E818F819885DE
S1130D900E947D12DC01CB01BC01CD010E94FC113B
S1130DA0DC01CB019AA789A70FC080E991E09CA739
S1130DB08BA78BA59CA50197F1F79CA78BA789A569
S1130DC09AA501979AA789A789A59AA5892B69F756
S1130DD014C06DA17EA18FA198A50E94FC11DC0115
S1130DE0CB019AA789A789A59AA59EA78DA78DA5AA
S1130DF09EA50197F1F79EA78DA789AD8170682FF5
S1130E0084E00E94500089AD82708695682F85E049
S1130E100E94500089AD847086958695682F86E07F
S1130E200E94500089AD8870869586958695682FB6
S1130E3087E00E94500061E083E00E94500080E05F
S1130E4090E0A0E8BFE389879A87AB87BC8720E05E
S1130E5030E04AE755E469857A858B859C850E9454
S1130E607D12DC01CB018B8F9C8FAD8FBE8F20E078
S1130E7030E040E85FE36B8D7C8D8D8D9E8D0E940C
S1130E80F71188232CF481E090E098A38F8F3FC062
S1130E9020E03FEF4FE757E46B8D7C8D8D8D9E8D69
S1130EA00E94781218164CF520E030E040E251E43C
S1130EB069857A858B859C850E947D12DC01CB0136
S1130EC0BC01CD010E94FC11DC01CB0198A38F8FE2
S1130ED00FC080E991E09AA389A389A19AA10197FF
S1130EE0F1F79AA389A38F8D98A1019798A38F8F67
S1130EF08F8D98A1892B69F714C06B8D7C8D8D8D96
S1130F009E8D0E94FC11DC01CB0198A38F8F8F8DE5
S1130F1098A19CA38BA38BA19CA10197F1F79CA3FF
S1130F208BA360E083E00E94500080E090E0A0E8A2
S1130F30BFE38D879E87AF87B88B20E030E04AE718
S1130F4055E46D857E858F8598890E947D12DC012C
S1130F50CB01898B9A8BAB8BBC8B20E030E040E8D3
S1130F605FE369897A898B899C890E94F7118823B8
S1130F702CF481E090E09E8B8D8B3FC020E03FEF0E
S1130F804FE757E469897A898B899C890E94781292
S1130F9018164CF520E030E040E251E46D857E8582
S1130FA08F8598890E947D12DC01CB01BC01CD01A3
S1130FB00E94FC11DC01CB019E8B8D8B0FC080E95C
S1130FC091E0988F8F8B8F89988D0197F1F7988F87
S1130FD08F8B8D899E8901979E8B8D8B8D899E89A0
S1130FE0892B69F714C069897A898B899C890E9445
S1130FF0FC11DC01CB019E8B8D8B8D899E899A8F90
S1131000898F898D9A8D0197F1F79A8F898F0000C6
S1131010E9960FB6F894DEBF0FBECDBFDF91CF9136
S11310200895CF93DF9300D000D0CDB7DEB79C8373
S11310308B831A8219820FC02B813C8189819A810A
S1131040820F931FFC0180810E94DB0589819A81B4
S113105001969A8389832B813C8189819A81820FAD
S1131060931FFC018081882339F700000F900F90B3
S11310700F900F90DF91CF910895CF93DF9300D01D
S1131080CDB7DEB789836A838981882F90E0813068
S1131090910519F0029731F00AC08A8180580E94A4
S11310A0A50305C08A8180540E94A50300000000A6
S11310B00F900F90DF91CF910895CF93DF93CDB729
S11310C0DEB781E00E94A5030000DF91CF9108956F
S11310D0CF93DF9300D000D0CDB7DEB789836A8386
S11310E05C834B836A8189810E943D088B819C814A
S11310F00E94110800000F900F900F900F90DF9145
S1131100CF9108950F931F93CF93DF93CDB7DEB79D
S1131110C659D1090FB6F894DEBF0FBECDBF81E02A
S113112089831A821B821C821D821E821F82198659
S113113018860E947B0284E10E9441008AE00E949A
S1131140410040E750E063E081E00E9468084BE71B
S113115050E062E082E00E94680880E090E0AAEF3C
S1131160B4E48E879F87A88BB98B8E01095B1F4FD0
S113117020E030E04AE755E46E857F8588899989C7
S11311800E947D12DC01CB01F80180839183A2834C
S1131190B383CE01895B9F4F20E030E040E85FE3FA
S11311A0FC0160817181828193810E94F7118823FF
S11311B04CF4CE01855B9F4F21E030E0FC0131838C
S11311C0208369C0CE01895B9F4F20E03FEF4FE74A
S11311D057E4FC0160817181828193810E947812BD
S11311E018160CF046C020E030E040E251E46E8571
S11311F07F85888999890E947D12DC01CB018E014B
S1131200055B1F4FBC01CD010E94FC11DC01CB0129
S1131210F8019183808324C0CE01835B9F4F20E932
S113122031E0FC0131832083CE01835B9F4FFC01BD
S1131230808191810197F1F79E01235B3F4FF90172
S113124091838083CE01855B9F4F9E01255B3F4F39
S1131250F9012081318121503109FC01318320833E
S1131260CE01855B9F4FFC0180819181892BA1F682
S11312702CC08E01055B1F4FCE01895B9F4FFC0183
S113128060817181828193810E94FC11DC01CB0118
S1131290F80191838083CE01815B9F4F9E01255B82
S11312A03F4FF90120813181FC0131832083CE013C
S11312B0815B9F4FFC01808191810197F1F79E0131
S11312C0215B3F4FF901918380830E945D0848E8C8
S11312D050E060E081E00E94680844E950E060E08A
S11312E082E00E94680880E090E0AAEFB4E48A8B70
S11312F09B8BAC8BBD8B20E030E04AE755E46A89D8
S11313007B898C899D890E947D12DC01CB019E0121
S1131310235C3F4FF90180839183A283B38320E050
S113132030E040E85FE3CE01CD96FC01608171813D
S1131330828193810E94F71188234CF4CE018F5B44
S11313409F4F21E030E0FC013183208367C020E01F
S11313503FEF4FE757E4CE01CD96FC0160817181E8
S1131360828193810E94781218160CF046C020E006
S113137030E040E251E46A897B898C899D890E942E
S11313807D12DC01CB018E010F5B1F4FBC01CD012F
S11313900E94FC11DC01CB01F8019183808324C0FD
S11313A0CE018D5B9F4F20E931E0FC013183208326
S11313B0CE018D5B9F4FFC01808191810197F1F7F4
S11313C09E012D5B3F4FF90191838083CE018F5B9A
S11313D09F4F9E012F5B3F4FF901208131812150A6
S11313E03109FC0131832083CE018F5B9F4FFC01C7
S11313F080819181892BA1F62BC08E010F5B1F4F39
S1131400CE01CD96FC0160817181828193810E941D
S1131410FC11DC01CB01F80191838083CE018B5B4D
S11314209F4F9E012F5B3F4FF90120813181FC01C9
S113143031832083CE018B5B9F4FFC01808191819E
S11314400197F1F79E012B5B3F4FF9019183808354
S11314500E945D084FE950E062E081E00E94680864
S113146080E090E0AAEFB4E48FA798ABA9ABBAAB45
S113147020E030E04AE755E46FA578A989A99AA944
S11314800E947D12DC01CB018BAB9CABADABBEAB40
S113149020E030E040E85FE36BA97CA98DA99EA918
S11314A00E94F71188232CF481E090E098AF8FAB71
S11314B03FC020E03FEF4FE757E46BA97CA98DA91B
S11314C09EA90E94781218164CF520E030E040E204
S11314D051E46FA578A989A99AA90E947D12DC011B
S11314E0CB01BC01CD010E94FC11DC01CB0198AF02
S11314F08FAB0FC080E991E09AAF89AF89AD9AAD07
S11315000197F1F79AAF89AF8FA998AD019798AF7A
S11315108FAB8FA998AD892B69F714C06BA97CA9EF
S11315208DA99EA90E94FC11DC01CB0198AF8FAB61
S11315308FA998AD9CAF8BAF8BAD9CAD0197F1F7A4
S11315409CAF8BAF0E945D0818868981813009F0B9
S1131550F2C00E945D084CEA50E060E081E00E9425
S113156068084AEB50E060E082E00E94680880E08E
S113157090E0AAEFB4E48A879B87AC87BD878E018D
S11315800F5A1F4F20E030E04AE755E46A857B8517
S11315908C859D850E947D12DC01CB01F80180833E
S11315A09183A283B383CE018F5A9F4F20E030E012
S11315B040E85FE3FC0160817181828193810E9434
S11315C0F71188234CF4CE018B5A9F4F21E030E071
S11315D0FC013183208369C0CE018F5A9F4F20E0E4
S11315E03FEF4FE757E4FC01608171818281938171
S11315F00E94781218160CF046C020E030E040E259
S113160051E46A857B858C859D850E947D12DC0171
S1131610CB018E010B5A1F4FBC01CD010E94FC115E
S1131620DC01CB01F8019183808324C0CE01895A67
S11316309F4F20E931E0FC0131832083CE01895A98
S11316409F4FFC01808191810197F1F79E01295AF6
S11316503F4FF90191838083CE018B5A9F4F9E01A6
S11316602B5A3F4FF9012081318121503109FC016E
S113167031832083CE018B5A9F4FFC01808191815D
S1131680892BA1F62CC08E010B5A1F4FCE018F5A05
S11316909F4FFC0160817181828193810E94FC11C2
S11316A0DC01CB01F80191838083CE01875A9F4FDF
S11316B09E012B5A3F4FF90120813181FC01318376
S11316C02083CE01875A9F4FFC018081918101972D
S11316D0F1F79E01275A3F4FF901918380830E94BD
S11316E05D0848EC50E062E081E00E9468080E94D6
S11316F0D7118A8F8A8D813081F40E945D08988584
S11317008A8D890F888767E081E00E943D0860E048
S113171080E690E00E9425110BC00E945D0867E0FE
S113172081E00E943D0860E088E690E00E94251177
S1131730198281E08A838A81813009F0F1C00E9494
S11317405D0844ED50E060E081E00E94680845EEE9
S113175050E061E082E00E94680880E090E0AAEF37
S1131760B4E48E8B9F8BA88FB98F8E01055A1F4FBF
S113177020E030E04AE755E46E897F89888D998DB1
S11317800E947D12DC01CB01F80180839183A28346
S1131790B383CE01855A9F4F20E030E040E85FE3F9
S11317A0FC0160817181828193810E94F7118823F9
S11317B04CF4CE01815A9F4F21E030E0FC0131838B
S11317C0208369C0CE01855A9F4F20E03FEF4FE749
S11317D057E4FC0160817181828193810E947812B7
S11317E018160CF046C020E030E040E251E46E8967
S11317F07F89888D998D0E947D12DC01CB018E0139
S1131800015A1F4FBC01CD010E94FC11DC01CB0128
S1131810F8019183808324C0CE018F599F4F20E922
S113182031E0FC0131832083CE018F599F4FFC01AD
S1131830808191810197F1F79E012F593F4FF90162
S113184091838083CE01815A9F4F9E01215A3F4F3D
S1131850F9012081318121503109FC013183208338
S1131860CE01815A9F4FFC0180819181892BA1F681
S11318702CC08E01015A1F4FCE01855A9F4FFC0187
S113188060817181828193810E94FC11DC01CB0112
S1131890F80191838083CE018D599F4F9E01215A77
S11318A03F4FF90120813181FC0131832083CE0136
S11318B08D599F4FFC01808191810197F1F79E0121
S11318C02D593F4FF901918380830E945D0848ECB4
S11318D050E062E081E00E9468080E94D7118A8F7C
S11318E08A8D813061F40E945D0867E081E00E9486
S11318F03D0860E088E690E00E9425110EC00E9439
S11319005D0888858F5F888767E081E00E943D08D5
S113191060E080E690E00E9425111A8281E08B83CA
S11319208B81813009F0F2C00E945D0843EF50E0E2
S113193060E081E00E94680843E051E060E082E0FA
S11319400E94680880E090E0AAEFB4E48B8F9C8F3B
S1131950AD8FBE8F8E010B591F4F20E030E04AE758
S113196055E46B8D7C8D8D8D9E8D0E947D12DC01E6
S1131970CB01F80180839183A283B383CE018B5979
S11319809F4F20E030E040E85FE3FC01608171811B
S1131990828193810E94F71188234CF4CE018759E8
S11319A09F4F21E030E0FC013183208369C0CE01E8
S11319B08B599F4F20E03FEF4FE757E4FC016081D4
S11319C07181828193810E94781218160CF046C0AE
S11319D020E030E040E251E46B8D7C8D8D8D9E8D56
S11319E00E947D12DC01CB018E0107591F4FBC01FF
S11319F0CD010E94FC11DC01CB01F80191838083AD
S1131A0024C0CE0185599F4F20E931E0FC01318388
S1131A102083CE0185599F4FFC01808191810197DC
S1131A20F1F79E0125593F4FF90191838083CE013F
S1131A3087599F4F9E0127593F4FF90120813181DA
S1131A4021503109FC0131832083CE0187599F4FF6
S1131A50FC0180819181892BA1F62CC08E0107594C
S1131A601F4FCE018B599F4FFC0160817181828190
S1131A7093810E94FC11DC01CB01F80191838083E6
S1131A80CE0183599F4F9E0127593F4FF901208171
S1131A903181FC0131832083CE0183599F4FFC01A6
S1131AA0808191810197F1F79E0123593F4FF901FC
S1131AB0918380830E945D0848EC50E062E081E0FD
S1131AC00E9468080E94D7118A8F8A8D813081F420
S1131AD00E945D0898858A8D890F888767E081E078
S1131AE00E943D0860E080E690E00E9425110BC052
S1131AF00E945D0867E081E00E943D0860E088E69E
S1131B0090E00E9425111B8281E08C838C818130BE
S1131B1009F0F2C00E945D0844E151E060E081E018
S1131B200E94680845E251E061E082E00E94680892
S1131B3080E090E0AAEFB4E48F8F98A3A9A3BAA39E
S1131B408E0101591F4F20E030E04AE755E46F8DC4
S1131B5078A189A19AA10E947D12DC01CB01F80130
S1131B6080839183A283B383CE0181599F4F20E068
S1131B7030E040E85FE3FC01608171818281938100
S1131B800E94F71188234CF4CE018D589F4F21E019
S1131B9030E0FC013183208369C0CE0181599F4F1D
S1131BA020E03FEF4FE757E4FC01608171818281BF
S1131BB093810E94781218160CF046C020E030E0A1
S1131BC040E251E46F8D78A189A19AA10E947D120F
S1131BD0DC01CB018E010D581F4FBC01CD010E94C9
S1131BE0FC11DC01CB01F8019183808324C0CE0178
S1131BF08B589F4F20E931E0FC0131832083CE01D3
S1131C008B589F4FFC01808191810197F1F79E01D0
S1131C102B583F4FF90191838083CE018D589F4FFC
S1131C209E012D583F4FF901208131812150310906
S1131C30FC0131832083CE018D589F4FFC018081AC
S1131C409181892BA1F62CC08E010D581F4FCE0116
S1131C5081599F4FFC0160817181828193810E942F
S1131C60FC11DC01CB01F80191838083CE018958FA
S1131C709F4F9E012D583F4FF90120813181FC0176
S1131C8031832083CE0189589F4FFC01808191814B
S1131C900197F1F79E0129583F4FF9019183808301
S1131CA00E945D0848EC50E062E081E00E94680810
S1131CB00E94D7118A8F8A8D813081F40E945D0839
S1131CC098858A8D890F888767E081E00E943D08A6
S1131CD060E080E690E00E9425110BC00E945D0840
S1131CE067E081E00E943D0860E088E690E00E94A1
S1131CF025111C8281E08D838D81813009F0F1C032
S1131D000E945D0846E351E060E081E00E946808BB
S1131D1048E451E060E082E00E94680880E090E0DE
S1131D20AAEFB4E48BA39CA3ADA3BEA38E01075872
S1131D301F4F20E030E04AE755E46BA17CA18DA160
S1131D409EA10E947D12DC01CB01F8018083918366
S1131D50A283B383CE0187589F4F20E030E040E850
S1131D605FE3FC0160817181828193810E94F7119C
S1131D7088234CF4CE0183589F4F21E030E0FC01CE
S1131D803183208369C0CE0187589F4F20E03FEF05
S1131D904FE757E4FC0160817181828193810E9445
S1131DA0781218160CF046C020E030E040E251E40E
S1131DB06BA17CA18DA19EA10E947D12DC01CB01AF
S1131DC08E0103581F4FBC01CD010E94FC11DC01A0
S1131DD0CB01F8019183808324C0CE0181589F4FA9
S1131DE020E931E0FC0131832083CE0181589F4FEB
S1131DF0FC01808191810197F1F79E0121583F4FA9
S1131E00F90191838083CE0183589F4F9E0123580B
S1131E103F4FF9012081318121503109FC01318387
S1131E202083CE0183589F4FFC0180819181892BAF
S1131E30A1F62CC08E0103581F4FCE0187589F4F27
S1131E40FC0160817181828193810E94FC11DC011B
S1131E50CB01F80191838083CE018F579F4F9E0160
S1131E6023583F4FF90120813181FC0131832083C4
S1131E70CE018F579F4FFC01808191810197F1F72B
S1131E809E012F573F4FF901918380830E945D0883
S1131E9048EC50E062E081E00E9468080E94D7119B
S1131EA08A8F8A8D813079F40E945D0888858F5FDE
S1131EB0888767E081E00E943D0860E080E690E06A
S1131EC00E9425110BC00E945D0867E081E00E941A
S1131ED03D0860E088E690E00E9425111D8281E0C3
S1131EE08E838E81813009F0A3C10E945D0842E592
S1131EF051E060E081E00E94680867E082E00E94AF
S1131F003D088885805D0E94DB0580E090E0AAEFB3
S1131F10B4E48BA79CA7ADA7BEA78E0103571F4FA0
S1131F2020E030E04AE755E46BA57CA58DA59EA58D
S1131F300E947D12DC01CB01F80180839183A2838E
S1131F40B383CE0183579F4F20E030E040E85FE346
S1131F50FC0160817181828193810E94F711882341
S1131F604CF4CE018F569F4F21E030E0FC013183C9
S1131F70208369C0CE0183579F4F20E03FEF4FE796
S1131F8057E4FC0160817181828193810E947812FF
S1131F9018160CF046C020E030E040E251E46BA596
S1131FA07CA58DA59EA50E947D12DC01CB018E012E
S1131FB00F561F4FBC01CD010E94FC11DC01CB0167
S1131FC0F8019183808324C0CE018D569F4F20E970
S1131FD031E0FC0131832083CE018D569F4FFC01FB
S1131FE0808191810197F1F79E012D563F4FF901B0
S1131FF091838083CE018F569F4F9E012F563F4F72
S1132000F9012081318121503109FC013183208380
S1132010CE018F569F4FFC0180819181892BA1F6BF
S11320202CC08E010F561F4FCE0183579F4FFC01CA
S113203060817181828193810E94FC11DC01CB015A
S1132040F80191838083CE018B569F4F9E012F56BA
S11320503F4FF90120813181FC0131832083CE017E
S11320608B569F4FFC01808191810197F1F79E016E
S11320702B563F4FF901918380830E945D0841E60E
S113208051E060E081E00E94680840E751E062E0CE
S113209082E00E94680880E090E8ABE3B5E48FA397
S11320A098A7A9A7BAA78E010D571F4F20E030E0CB
S11320B04AE755E46FA178A589A59AA50E947D12E7
S11320C0DC01CB01F80180839183A283B383CE0129
S11320D08D579F4F20E030E040E85FE3FC016081D2
S11320E07181828193810E94F71188234CF4CE017F
S11320F089579F4F21E030E0FC013183208369C080
S1132100CE018D579F4F20E03FEF4FE757E4FC018E
S113211060817181828193810E94781218160CF07B
S113212046C020E030E040E251E46FA178A589A5E3
S11321309AA50E947D12DC01CB018E0109571F4F25
S1132140BC01CD010E94FC11DC01CB01F80191839B
S1132150808324C0CE0187579F4F20E931E0FC01E2
S113216031832083CE0187579F4FFC018081918169
S11321700197F1F79E0127573F4FF901918380831F
S1132180CE0189579F4F9E0129573F4FF901208166
S1132190318121503109FC0131832083CE018957DB
S11321A09F4FFC0180819181892BA1F62CC08E0167
S11321B009571F4FCE018D579F4FFC0160817181DC
S11321C0828193810E94FC11DC01CB01F80191838F
S11321D08083CE0185579F4F9E0129573F4FF901B8
S11321E020813181FC0131832083CE0185579F4FAB
S11321F0FC01808191810197F1F79E0125573F4FA2
S1132200F901918380830E945D0848EC50E060E00E
S113221081E00E9468080E94D7118A8F8A8D8130DC
S113222021F481E089831E8203C081E08F831E82B2
S11322308F81813009F088C90E945D084BE751E025
S113224064E081E00E9468087FC9CF93DF93CDB733
S1132250DEB762970FB6F894DEBF0FBECDBF998B81
S1132260888B6A8B19828A89883008F096C08A899B
S1132270882F90E00896880F880F880F0E94A50386
S113228019820EC08981882F90E028893989820FAC
S1132290931FFC0180810E94DB0589818F5F898304
S11322A08981883078F380E80E94A5030E945D0844
S11322B08A890E94DB0580E090E8ABE3B5E48A8379
S11322C09B83AC83BD8320E030E04AE755E46A8118
S11322D07B818C819D810E947D12DC01CB018E83E8
S11322E09F83A887B98720E030E040E85FE36E81F0
S11322F07F81888599850E94F71188232CF481E0D9
S113230090E09B878A873FC020E03FEF4FE757E488
S11323106E817F81888599850E94781218164CF504
S113232020E030E040E251E46A817B818C819D8130
S11323300E947D12DC01CB01BC01CD010E94FC1185
S1132340DC01CB019B878A870FC080E991E09D87E0
S11323508C878C859D850197F1F79D878C878A856D
S11323609B8501979B878A878A859B85892B69F73B
S113237014C06E817F81888599850E94FC11DC01DF
S1132380CB019B878A878A859B859F878E878E85CD
S11323909F850197F1F79F878E87000062960FB69D
S11323A0F894DEBF0FBECDBFDF91CF910895CF93D8
S11323B0DF9300D0CDB7DEB781E08A830FC084E11C
S11323C00E94FD00882319F081E089830AC08AE015
S11323D00E94FD00882311F0198203C08A8188239A
S11323E071F789810F900F90DF91CF9108950E942A
S11323F02B1208F481E008950E94571288F09F5729
S113240098F0B92F9927B751B0F0E1F0660F771F14
S1132410881F991F1AF0BA95C9F714C0B13091F00A
S11324200E947112B1E008950C947112672F782FF5
S11324308827B85F39F0B93FCCF3869577956795CF
S1132440B395D9F73EF490958095709561957F4F3B
S11324508F4F9F4F0895990F0008550FAA0BE0E87E
S1132460FEEF16161706E807F907C0F01216130652
S1132470E407F50798F0621B730B840B950B39F492
S11324800A2661F0232B242B252B21F408950A26F8
S113249009F4A140A6958FEF811D811D089557FD74
S11324A09058440F551F59F05F3F71F04795880FBE
S11324B097FB991F61F09F3F79F087950895121655
S11324C013061406551FF2CF4695F1DF08C0161601
S11324D017061806991FF1CF8695710561050894B2
S11324E00895E894BB2766277727CB0197F90895C9
S11324F00E942B1208F48FEF08950E9490120C94FE
S113250001130E94F31238F00E94FA1220F095236E
S113251011F00C94EA120C94F01211240C9472121F
S11325200E944F1270F3959FC1F3950F50E0551F11
S1132530629FF001729FBB27F00DB11D639FAA2714
S1132540F00DB11DAA1F649F6627B00DA11D661F63
S1132550829F2227B00DA11D621F739FB00DA11D84
S1132560621F839FA00D611D221F749F3327A00D3E
S1132570611D231F849F600D211D822F762F6A2FDA
S113258011249F5750409AF0F1F088234AF0EE0F3F
S1132590FF1FBB1F661F771F881F91505040A9F76C
S11325A09E3F510580F00C94EA120C9472125F3F26
S11325B0E4F3983ED4F3869577956795B795F795A8
S11325C0E7959F5FC1F7FE2B880F911D9695879520
S11325D097F9089597F99F6780E870E060E008959F
S11325E09FEF80EC089500240A9416161706180627
S11325F00906089500240A94121613061406050603
S11326000895092E0394000C11F4882352F0BB0F93
S113261040F4BF2B11F460FF04C06F5F7F4F8F4FF6
S10B26209F4F0895F894FFCFC9
S1132628001B1B0000110E00001B1B00000E1100F4
S113263857656C636F6D6520546F004F4E45204D90
S1132648494C4C494F4E2000203020666F72207947
S113265865732000203120666F72204E6F200020A1
S113266852454144592021212121200044696420F4
S1132678456779707420574F4E0043414E20696E68
S11326882031393836203F00302E796573202031C7
S11326982E4E6F00446964204E6164616C20576F4C
S11326A86E205553006F70656E20696E203230318C
S11326B8383F0044696420557275677561792077DD
S11326C8696E00666972737420776F726C64204354
S11326D855503F004973204B6162756C204361700B
S11326E86974616C004F462041666768616E69735E
S11326F874616E203F00446F65732052616D7920C8
S1132708676F657320746F006C6966652047594D5F
S11327183F00796F75722073636F72652069733A2D
S113272800446F20796F752077616E7420746F0090
S1132738506C617920616761696E005468616E6BE1
S109274820594F5500006A
S9030000FC
