S02200004B657950616420616E6420534556454E205345472066696E616C2E73726563A7
S11300000C942A000C943F000C943F000C943F0085
S11300100C943F000C943F000C943F000C943F0060
S11300200C943F000C943F000C943F000C943F0050
S11300300C943F000C943F000C943F000C943F0040
S11300400C943F000C943F000C943F000C943F0030
S11300500C943F0011241FBECFE5D8E0DEBFCDBF16
S113006011E0A0E6B0E0E0E4F4E402C005900D92F3
S1130070A834B107D9F70E94EC0A0C941E220C9400
S11300800000CF93DF9300D0CDB7DEB789836A83B6
S11300908A81882309F072C089818830B0F48BE3A7
S11300A090E02BE330E0F9012081622F2981422F77
S11300B050E021E030E002C0220F331F4A95E2F7FE
S11300C020952623FC012083C9C089818830D0F083
S11300D089818031B8F488E390E028E330E0F901C5
S11300E02081622F29812850422F50E021E030E006
S11300F002C0220F331F4A95E2F720952623FC0104
S11301002083ACC089818031D0F089818831B8F4F2
S113011085E390E025E330E0F9012081622F298115
S11301202051422F50E021E030E002C0220F331F63
S11301304A95E2F720952623FC0120838FC089810C
S1130140883108F48BC08981803208F087C082E34B
S113015090E022E330E0F9012081622F29812851C7
S1130160422F50E021E030E002C0220F331F4A95B5
S1130170E2F720952623FC01208370C08A81813018
S113018009F06CC089818830A8F48BE390E02BE3FC
S113019030E0F9012081622F2981422F50E021E0D3
S11301A030E002C0220F331F4A95E2F7262BFC01F0
S11301B0208354C089818830C8F089818031B0F4AB
S11301C088E390E028E330E0F9012081622F29815F
S11301D02850422F50E021E030E002C0220F331FAC
S11301E04A95E2F7262BFC01208338C089818031AF
S11301F0C8F089818831B0F485E390E025E330E0EC
S1130200F9012081622F29812051422F50E021E001
S113021030E002C0220F331F4A95E2F7262BFC017F
S113022020831CC089818831C8F089818032B0F470
S113023082E390E022E330E0F9012081622F2981FA
S11302402851422F50E021E030E002C0220F331F3A
S11302504A95E2F7262BFC01208300C000000F9092
S11302600F90DF91CF910895CF93DF931F92CDB775
S1130270DEB7898389818830D8F489E390E0FC0172
S11302808081282F30E08981482F50E081E090E080
S113029002C0880F991F4A95E2F78223932329818C
S11302A0222F30E002C0959587952A95E2F76CC01D
S11302B08981883008F189818031F0F486E390E007
S11302C0FC018081282F30E089818850482F50E03C
S11302D081E090E002C0880F991F4A95E2F78223DB
S11302E093232981222F30E02850310902C09595AB
S11302F087952A95E2F748C08981803108F1898180
S11303008831F0F483E390E0FC018081282F30E011
S113031089818051482F50E081E090E002C0880F2D
S1130320991F4A95E2F7822393232981222F30E0F3
S11303302051310902C0959587952A95E2F724C08A
S11303408981883108F189818032F0F480E390E07A
S1130350FC018081282F30E089818851482F50E0AA
S113036081E090E002C0880F991F4A95E2F782234A
S113037093232981222F30E02851310902C0959519
S113038087952A95E2F700C00F90DF91CF910895E9
S1130390CF93DF9300D0CDB7DEB789836A838A8198
S11303A0882309F072C089818830B0F48AE390E030
S11303B02AE330E0F9012081622F2981422F50E0A5
S11303C021E030E002C0220F331F4A95E2F7209566
S11303D02623FC012083C9C089818830D0F089811B
S11303E08031B8F487E390E027E330E0F90120811D
S11303F0622F29812850422F50E021E030E002C0D2
S1130400220F331F4A95E2F720952623FC0120830F
S1130410ACC089818031D0F089818831B8F484E31B
S113042090E024E330E0F9012081622F29812051FA
S1130430422F50E021E030E002C0220F331F4A95E2
S1130440E2F720952623FC0120838FC0898188311F
S113045008F48BC08981803208F087C081E390E082
S113046021E330E0F9012081622F29812851422FB4
S113047050E021E030E002C0220F331F4A95E2F73A
S113048020952623FC01208370C08A81813009F0E5
S11304906CC089818830A8F48AE390E02AE330E0D4
S11304A0F9012081622F2981422F50E021E030E0C0
S11304B002C0220F331F4A95E2F7262BFC0120834A
S11304C054C089818830C8F089818031B0F487E3D1
S11304D090E027E330E0F9012081622F2981285040
S11304E0422F50E021E030E002C0220F331F4A9532
S11304F0E2F7262BFC01208338C089818031C8F0C3
S113050089818831B0F484E390E024E330E0F90198
S11305102081622F29812051422F50E021E030E0D8
S113052002C0220F331F4A95E2F7262BFC012083D9
S11305301CC089818831C8F089818032B0F481E39C
S113054090E021E330E0F9012081622F29812851D4
S1130550422F50E021E030E002C0220F331F4A95C1
S1130560E2F7262BFC01208300C000000F900F90BF
S1130570DF91CF9108950F931F93CF93DF93CDB75E
S1130580DEB7C654D1090FB6F894DEBF0FBECDBF97
S113059061E081E00E94C80161E082E00E94C8013C
S11305A061E083E00E94C80161E084E00E94C80128
S11305B061E085E00E94C80161E086E00E94C80114
S11305C061E087E00E94C80183E30E94800580E027
S11305D090E0A0E0B0E489839A83AB83BC8320E0FD
S11305E030E04AE753E469817A818B819C810E94DF
S11305F08921DC01CB019E01235C3F4FF9018083FB
S11306009183A283B38320E030E040E85FE3CE012E
S1130610CD96FC0160817181828193810E940321C6
S113062088234CF4CE018F5B9F4F21E030E0FC0126
S11306303183208367C020E03FEF4FE757E4CE01CA
S1130640CD96FC0160817181828193810E94842115
S113065018160CF046C020E030E040E251E4698115
S11306607A818B819C810E948921DC01CB018E01DE
S11306700F5B1F4FBC01CD010E940821DC01CB019F
S1130680F8019183808324C0CE018D5B9F4F29E1C3
S113069030E0FC0131832083CE018D5B9F4FFC0150
S11306A0808191810197F1F79E012D5B3F4FF90104
S11306B091838083CE018F5B9F4F9E012F5B3F4FC1
S11306C0F9012081318121503109FC0131832083DA
S11306D0CE018F5B9F4FFC0180819181892BA1F614
S11306E02BC08E010F5B1F4FCE01CD96FC016081A4
S11306F07181828193810E940821DC01CB01F80180
S113070091838083CE018B5B9F4F9E012F5B3F4F74
S1130710F90120813181FC0131832083CE018B5B7F
S11307209F4FFC01808191810197F1F79E012B5B22
S11307303F4FF9019183808382E30E94800580E02A
S113074090E0A0E0B0E48D839E83AF83B88720E07F
S113075030E04AE753E46D817E818F8198850E9461
S11307608921DC01CB018BAB9CABADABBEAB20E0F4
S113077030E040E85FE36BA97CA98DA99EA90E94A3
S1130780032188232CF481E090E098AF8FAB3FC025
S113079020E03FEF4FE757E46BA97CA98DA99EA900
S11307A00E94842118164CF520E030E040E251E428
S11307B06D817E818F8198850E948921DC01CB0126
S11307C0BC01CD010E940821DC01CB0198AF8FABA5
S11307D00FC089E190E09AAF89AF89AD9AAD0197D6
S11307E0F1F79AAF89AF8FA998AD019798AF8FAB06
S11307F08FA998AD892B69F714C06BA97CA98DA921
S11308009EA90E940821DC01CB0198AF8FAB8FA970
S113081098AD9CAF8BAF8BAD9CAD0197F1F79CAFBE
S11308208BAF88E20E94800580E090E0A0E0B0E415
S113083089879A87AB87BC8720E030E04AE753E496
S113084069857A858B859C850E948921DC01CB0191
S113085089A79AA7ABA7BCA720E030E040E85FE3F4
S113086069A57AA58BA59CA50E94032188232CF455
S113087081E090E09EA78DA73FC020E03FEF4FE7C7
S113088057E469A57AA58BA59CA50E948421181616
S11308904CF520E030E040E251E469857A858B85AF
S11308A09C850E948921DC01CB01BC01CD010E9401
S11308B00821DC01CB019EA78DA70FC089E190E040
S11308C098AB8FA78FA598A90197F1F798AB8FA73D
S11308D08DA59EA501979EA78DA78DA59EA5892B65
S11308E069F714C069A57AA58BA59CA50E94082167
S11308F0DC01CB019EA78DA78DA59EA59AAB89ABE4
S113090089A99AA90197F1F79AAB89AB8EE00E9465
S1130910800580E090E0A0E0B0E48D879E87AF87FB
S1130920B88B20E030E04AE753E46D857E858F85FF
S113093098890E948921DC01CB018F8F98A3A9A3F8
S1130940BAA320E030E040E85FE36F8D78A189A18D
S11309509AA10E94032188232CF481E090E09CA3B7
S11309608BA33FC020E03FEF4FE757E46F8D78A1A2
S113097089A19AA10E94842118164CF520E030E048
S113098040E251E46D857E858F8598890E94892196
S1130990DC01CB01BC01CD010E940821DC01CB01AB
S11309A09CA38BA30FC089E190E09EA38DA38DA18E
S11309B09EA10197F1F79EA38DA38BA19CA1019702
S11309C09CA38BA38BA19CA1892B69F714C06F8D69
S11309D078A189A19AA10E940821DC01CB019CA3E2
S11309E08BA38BA19CA198A78FA38FA198A50197F6
S11309F0F1F798A78FA381E00E94800580E090E042
S1130A00A0E0B0E4898B9A8BAB8BBC8B20E030E008
S1130A104AE753E469897A898B899C890E948921F0
S1130A20DC01CB018D8B9E8BAF8BB88F20E030E047
S1130A3040E85FE36D897E898F89988D0E94032148
S1130A4088232CF481E090E09A8F898F3FC020E0C6
S1130A503FEF4FE757E46D897E898F89988D0E9417
S1130A60842118164CF520E030E040E251E4698915
S1130A707A898B899C890E948921DC01CB01BC0184
S1130A80CD010E940821DC01CB019A8F898F0FC010
S1130A9089E190E09C8F8B8F8B8D9C8D0197F1F772
S1130AA09C8F8B8F898D9A8D01979A8F898F898DD1
S1130AB09A8D892B69F714C06D897E898F89988DE9
S1130AC00E940821DC01CB019A8F898F898D9A8D30
S1130AD09E8F8D8F8D8D9E8D0197F1F79E8F8D8FBB
S1130AE086E00E9480050000CA5BDF4F0FB6F894D1
S1130AF0DEBF0FBECDBFDF91CF911F910F9108953F
S1130B00CF93DF93CDB7DEB7AB970FB6F894DEBFC4
S1130B100FBECDBF8BA78BA5882F90E0807199273E
S1130B2095958795959587959595879595958795A9
S1130B30682F84E00E9441008BA5882F90E080728A
S1130B4099279595879595958795959587959595E5
S1130B50879595958795682F85E00E9441008BA520
S1130B60882F90E080749927082E892F000C881F05
S1130B70990B000C881F991F682F86E00E94410082
S1130B808BA5881F8827881F682F87E00E94410053
S1130B9060E081E00E94410060E082E00E94410048
S1130BA061E083E00E94410080E090E0A0E0B0E4D6
S1130BB089839A83AB83BC8320E030E04AE753E423
S1130BC069817A818B819C810E948921DC01CB011E
S1130BD089A39AA3ABA3BCA320E030E040E85FE381
S1130BE069A17AA18BA19CA10E94032188232CF4E2
S1130BF081E090E09EA38DA33FC020E03FEF4FE74C
S1130C0057E469A17AA18BA19CA10E9484211816A2
S1130C104CF520E030E040E251E469817A818B8137
S1130C209C810E948921DC01CB01BC01CD010E9481
S1130C300821DC01CB019EA38DA30FC089E190E0C4
S1130C4098A78FA38FA198A50197F1F798A78FA3D1
S1130C508DA19EA101979EA38DA38DA19EA1892BF9
S1130C6069F714C069A17AA18BA19CA10E940821F3
S1130C70DC01CB019EA38DA38DA19EA19AA789A778
S1130C8089A59AA50197F1F79AA789A760E083E05F
S1130C900E94410080E090E0A0E0B0E48D839E8358
S1130CA0AF83B88720E030E04AE753E46D817E816A
S1130CB08F8198850E948921DC01CB018F8B988FCD
S1130CC0A98FBA8F20E030E040E85FE36F89788D28
S1130CD0898D9A8D0E94032188232CF481E090E071
S1130CE09C8F8B8F3FC020E03FEF4FE757E46F8925
S1130CF0788D898D9A8D0E94842118164CF520E0F8
S1130D0030E040E251E46D817E818F8198850E94BC
S1130D108921DC01CB01BC01CD010E940821DC0149
S1130D20CB019C8F8B8F0FC089E190E09E8F8D8FBC
S1130D308D8D9E8D0197F1F79E8F8D8F8B8D9C8D60
S1130D4001979C8F8B8F8B8D9C8D892B69F714C099
S1130D506F89788D898D9A8D0E940821DC01CB01E1
S1130D609C8F8B8F8B8D9C8D98A38F8F8F8D98A14B
S1130D700197F1F798A38F8F8BA58170682F84E07A
S1130D800E9441008BA5882F90E082709927959549
S1130D908795682F85E00E9441008BA5882F90E0FD
S1130DA0847099279595879595958795682F86E002
S1130DB00E9441008BA5882F90E088709927959513
S1130DC087959595879595958795682F87E00E94D7
S1130DD0410061E083E00E94410080E090E0A0E0F7
S1130DE0B0E489879A87AB87BC8720E030E04AE784
S1130DF053E469857A858B859C850E948921DC0171
S1130E00CB018D879E87AF87B88B20E030E040E828
S1130E105FE36D857E858F8598890E9403218823F1
S1130E202CF481E090E09A8B898B3FC020E03FEF67
S1130E304FE757E46D857E858F8598890E948421CC
S1130E4018164CF520E030E040E251E469857A85DB
S1130E508B859C850E948921DC01CB01BC01CD01DD
S1130E600E940821DC01CB019A8B898B0FC089E198
S1130E7090E09C8B8B8B8B899C890197F1F79C8BE1
S1130E808B8B89899A8901979A8B898B89899A890D
S1130E90892B69F714C06D857E858F8598890E949A
S1130EA00821DC01CB019A8B898B89899A899E8BD5
S1130EB08D8B8D899E890197F1F79E8B8D8B60E0D8
S1130EC083E00E9441000000AB960FB6F894DEBFA9
S1130ED00FBECDBFDF91CF910895CF93DF93CDB7F0
S1130EE0DEB7AB970FB6F894DEBF0FBECDBF8BA7AE
S1130EF08BA5882F90E08071992795958795959576
S1130F0087959595879595958795682F84E00E9498
S1130F1041008BA5882F90E080729927959587953D
S1130F2095958795959587959595879595958795A5
S1130F30682F85E00E9441008BA5882F90E0807483
S1130F409927082E892F000C881F990B000C881FE5
S1130F50991F682F86E00E9441008BA5881F88276F
S1130F60881F682F87E00E94410061E081E00E94B1
S1130F70410060E082E00E94410061E083E00E9461
S1130F80410080E090E0A0E0B0E489839A83AB83E1
S1130F90BC8320E030E04AE753E469817A818B81A5
S1130FA09C810E948921DC01CB0189A39AA3ABA374
S1130FB0BCA320E030E040E85FE369A17AA18BA103
S1130FC09CA10E94032188232CF481E090E09EA33D
S1130FD08DA33FC020E03FEF4FE757E469A17AA11A
S1130FE08BA19CA10E94842118164CF520E030E0CE
S1130FF040E251E469817A818B819C810E9489213C
S1131000DC01CB01BC01CD010E940821DC01CB0134
S11310109EA38DA30FC089E190E098A78FA38FA111
S113102098A50197F1F798A78FA38DA19EA1019789
S11310309EA38DA38DA19EA1892B69F714C069A1DC
S11310407AA18BA19CA10E940821DC01CB019EA363
S11310508DA38DA19EA19AA789A789A59AA5019779
S1131060F1F79AA789A760E083E00E94410080E03D
S113107090E0A0E0B0E48D839E83AF83B88720E046
S113108030E04AE753E46D817E818F8198850E9428
S11310908921DC01CB018F8B988FA98FBA8F20E037
S11310A030E040E85FE36F89788D898D9A8D0E94E6
S11310B0032188232CF481E090E09C8F8B8F3FC028
S11310C020E03FEF4FE757E46F89788D898D9A8D43
S11310D00E94842118164CF520E030E040E251E4EF
S11310E06D817E818F8198850E948921DC01CB01ED
S11310F0BC01CD010E940821DC01CB019C8F8B8FA8
S11311000FC089E190E09E8F8D8F8D8D9E8D01970C
S1131110F1F79E8F8D8F8B8D9C8D01979C8F8B8F7C
S11311208B8D9C8D892B69F714C06F89788D898D7F
S11311309A8D0E940821DC01CB019C8F8B8F8B8DB3
S11311409C8D98A38F8F8F8D98A10197F1F798A309
S11311508F8F8BA58170682F84E00E9441008BA53E
S1131160882F90E08270992795958795682F85E060
S11311700E9441008BA5882F90E084709927959553
S1131180879595958795682F86E00E9441008BA5E9
S1131190882F90E0887099279595879595958795E0
S11311A095958795682F87E00E94410061E083E070
S11311B00E94410080E090E0A0E0B0E489879A8733
S11311C0AB87BC8720E030E04AE753E469857A8541
S11311D08B859C850E948921DC01CB018D879E87AC
S11311E0AF87B88B20E030E040E85FE36D857E8513
S11311F08F8598890E94032188232CF481E090E054
S11312009A8B898B3FC020E03FEF4FE757E46D8511
S11312107E858F8598890E94842118164CF520E0DC
S113122030E040E251E469857A858B859C850E9493
S11312308921DC01CB01BC01CD010E940821DC0124
S1131240CB019A8B898B0FC089E190E09C8B8B8BAF
S11312508B899C890197F1F79C8B8B8B89899A895F
S113126001979A8B898B89899A89892B69F714C08C
S11312706D857E858F8598890E940821DC01CB01CC
S11312809A8B898B89899A899E8B8D8B8D899E896E
S11312900197F1F79E8B8D8B60E083E00E94410003
S11312A00000AB960FB6F894DEBF0FBECDBFDF9142
S11312B0CF910895CF93DF9300D0CDB7DEB79A8353
S11312C089830BC089819A81FC0180810E946D070A
S11312D089819A8101969A83898389819A81FC0103
S11312E08081882379F700000F900F90DF91CF91D0
S11312F00895CF93DF9300D000D0CDB7DEB78B83B2
S11313006C838B81813079F480E80E948005198296
S113131006C084E10E94800589818F5F8983998159
S11313208C819817B0F38B81823079F480EC0E9421
S113133080051A8206C084E10E9480058A818F5F3D
S11313408A839A818C819817B0F300000F900F90D4
S11313500F900F90DF91CF910895CF93DF9300D03A
S113136000D0CDB7DEB789836A835C834B836A81FF
S113137089810E9479090BC08B819C81FC01808149
S11313800E946D078B819C8101969C838B838B814A
S11313909C81FC018081882379F700000F900F90D5
S11313A00F900F90DF91CF910895CF93DF93CDB736
S11313B0DEB72E970FB6F894DEBF0FBECDBF81E027
S11313C00E94800580E090E0A0E0B0E489839A83E5
S11313D0AB83BC8320E030E04AE753E469817A813F
S11313E08B819C810E948921DC01CB018D839E83AA
S11313F0AF83B88720E030E040E85FE36D817E8111
S11314008F8198850E94032188232CF481E090E049
S11314109A8789873FC020E03FEF4FE757E46D810B
S11314207E818F8198850E94842118164CF520E0D6
S113143030E040E251E469817A818B819C810E9491
S11314408921DC01CB01BC01CD010E940821DC0112
S1131450CB019A8789870FC089E190E09C878B87AD
S11314608B859C850197F1F79C878B8789859A8565
S113147001979A87898789859A85892B69F714C08A
S11314806D817E818F8198850E940821DC01CB01CA
S11314909A87898789859A859E878D878D859E857C
S11314A00197F1F79E878D8700002E960FB6F8946A
S11314B0DEBF0FBECDBFDF91CF910895CF93DF93F1
S11314C0CDB7DEB7A4970FB6F894DEBF0FBECDBF7D
S11314D088E0E2ECF0E0DE01159601900D928A9529
S11314E0E1F788E0EAECF0E0DE011D9601900D9250
S11314F08A95E1F788E0E2EDF0E0DE01559601908F
S11315000D928A95E1F788E0EAEDF0E0DE015D9660
S113151001900D928A95E1F780E40E94800519827A
S11315200FC08981882F90E09E012B5F3F4F820F6F
S1131530931FFC0180810E946D0789818F5F8983DD
S11315408981873070F31A820FC08A81882F90E0D6
S11315509E01235F3F4F820F931FFC0180810E94F5
S11315606D078A818F5F8A838A81873070F31B823B
S11315700FC08B81882F90E09E012B5E3F4F820F1E
S1131580931FFC0180810E946D078B818F5F8B8389
S11315908B81873070F31C820FC08C81882F90E080
S11315A09E01235E3F4F820F931FFC0180810E94A6
S11315B06D078C818F5F8C838C81873070F380E81A
S11315C00E9480050000A4960FB6F894DEBF0FBEFB
S11315D0CDBFDF91CF910895CF93DF931F92CDB705
S11315E0DEB70E94BB020E944B110E945E0A0E9459
S11315F0170B0E945B110E94D9208983898188235B
S113160009F0F5CF00000E94D50962E081E00E9454
S1131610790982EE90E00E945A0960E083E00E941A
S1131620410080E090E00F90DF91CF9108950F93F7
S11316301F93CF93DF93CDB7DEB7CE57D1090FB643
S1131640F894DEBF0FBECDBF0E94D5094CEE50E02A
S113165064E081E00E94AD0961E08BE00E94C80172
S113166061E08CE00E94C80161E08DE00E94C80145
S113167061E08EE00E94C80161E08FE00E94C80131
S113168061E08CE00E94410080E090E0AAE7B4E4CD
S113169089839A83AB83BC838E010B581F4F20E050
S11316A030E04AE753E469817A818B819C810E940E
S11316B08921DC01CB01F80180839183A283B38368
S11316C0CE018B589F4F20E030E040E85FE3FC01FF
S11316D060817181828193810E94032188234CF46B
S11316E0CE0187589F4F21E030E0FC0131832083F5
S11316F069C0CE018B589F4F20E03FEF4FE757E47E
S1131700FC0160817181828193810E948421181679
S11317100CF046C020E030E040E251E469817A8177
S11317208B819C810E948921DC01CB018E010758A9
S11317301F4FBC01CD010E940821DC01CB01F8013F
S11317409183808324C0CE0185589F4F29E130E0E6
S1131750FC0131832083CE0185589F4FFC01808199
S113176091810197F1F79E0125583F4FF90191832B
S11317708083CE0187589F4F9E0127583F4FF90120
S11317802081318121503109FC0131832083CE0134
S113179087589F4FFC0180819181892BA1F62CC031
S11317A08E0107581F4FCE018B589F4FFC0160815B
S11317B07181828193810E940821DC01CB01F801AF
S11317C091838083CE0183589F4F9E0127583F4FBA
S11317D0F90120813181FC0131832083CE018358BA
S11317E09F4FFC01808191810197F1F79E0123585D
S11317F03F4FF9019183808360E08CE00E944100B7
S113180061E08BE00E94410080E090E0AAE7B4E44C
S11318108D839E83AF83B8878E0105591F4F20E0C7
S113182030E04AE753E46D817E818F8198850E9480
S11318308921DC01CB01F80180839183A283B383E6
S1131840CE0185599F4F20E030E040E85FE3FC0182
S113185060817181828193810E94032188234CF4E9
S1131860CE0181599F4F21E030E0FC013183208378
S113187069C0CE0185599F4F20E03FEF4FE757E401
S1131880FC0160817181828193810E9484211816F8
S11318900CF046C020E030E040E251E46D817E81EE
S11318A08F8198850E948921DC01CB018E01015929
S11318B01F4FBC01CD010E940821DC01CB01F801BE
S11318C09183808324C0CE018F589F4F29E130E05B
S11318D0FC0131832083CE018F589F4FFC0180810E
S11318E091810197F1F79E012F583F4FF9019183A0
S11318F08083CE0181599F4F9E0121593F4FF901A9
S11319002081318121503109FC0131832083CE01B2
S113191081599F4FFC0180819181892BA1F62CC0B4
S11319208E0101591F4FCE0185599F4FFC016081E3
S11319307181828193810E940821DC01CB01F8012D
S113194091838083CE018D589F4F9E0121593F4F33
S1131950F90120813181FC0131832083CE018D582E
S11319609F4FFC01808191810197F1F79E012D58D1
S11319703F4FF9019183808360E08BE00E94410036
S113198080E090E0AAE7B4E489879A87AB87BC87B4
S11319908E010F591F4F20E030E04AE753E4698578
S11319A07A858B859C850E948921DC01CB01F80115
S11319B080839183A283B383CE018F599F4F20E00C
S11319C030E040E85FE3FC016081718182819381B2
S11319D00E94032188234CF4CE018B599F4F21E0B0
S11319E030E0FC013183208369C0CE018F599F4FC1
S11319F020E03FEF4FE757E4FC0160817181828171
S1131A0093810E94842118160CF046C020E030E037
S1131A1040E251E469857A858B859C850E94892101
S1131A20DC01CB018E010B591F4FBC01CD010E947B
S1131A300821DC01CB01F8019183808324C0CE010D
S1131A4089599F4F29E130E0FC0131832083CE0185
S1131A5089599F4FFC01808191810197F1F79E0183
S1131A6029593F4FF90191838083CE018B599F4FB0
S1131A709E012B593F4FF9012081318121503109B9
S1131A80FC0131832083CE018B599F4FFC0180815F
S1131A909181892BA1F62CC08E010B591F4FCE01C9
S1131AA08F599F4FFC0160817181828193810E94D3
S1131AB00821DC01CB01F80191838083CE01875991
S1131AC09F4F9E012B593F4FF90120813181FC0129
S1131AD031832083CE0187599F4FFC0180819181FE
S1131AE00197F1F79E0127593F4FF90191838083B4
S1131AF061E08DE00E94410080E090E0AAE7B4E458
S1131B008D879E87AF87B88B8E01095A1F4F20E0BF
S1131B1030E04AE753E46D857E858F8598890E947D
S1131B208921DC01CB01F80180839183A283B383F3
S1131B30CE01895A9F4F20E030E040E85FE3FC018A
S1131B4060817181828193810E94032188234CF4F6
S1131B50CE01855A9F4F21E030E0FC013183208380
S1131B6069C0CE01895A9F4F20E03FEF4FE757E409
S1131B70FC0160817181828193810E948421181605
S1131B800CF046C020E030E040E251E46D857E85F3
S1131B908F8598890E948921DC01CB018E01055A29
S1131BA01F4FBC01CD010E940821DC01CB01F801CB
S1131BB09183808324C0CE01835A9F4F29E130E072
S1131BC0FC0131832083CE01835A9F4FFC01808125
S1131BD091810197F1F79E01235A3F4FF9019183B7
S1131BE08083CE01855A9F4F9E01255A3F4FF901AC
S1131BF02081318121503109FC0131832083CE01C0
S1131C00855A9F4FFC0180819181892BA1F62CC0BC
S1131C108E01055A1F4FCE01895A9F4FFC016081E6
S1131C207181828193810E940821DC01CB01F8013A
S1131C3091838083CE01815A9F4F9E01255A3F4F45
S1131C40F90120813181FC0131832083CE01815A45
S1131C509F4FFC01808191810197F1F79E01215AE8
S1131C603F4FF9019183808360E08DE00E94410041
S1131C7061E08BE00E94410080E090E0AAE7B4E4D8
S1131C80898B9A8BAB8BBC8B8E01035B1F4F20E03F
S1131C9030E04AE753E469897A898B899C890E94F8
S1131CA08921DC01CB01F80180839183A283B38372
S1131CB0CE01835B9F4F20E030E040E85FE3FC010E
S1131CC060817181828193810E94032188234CF475
S1131CD0CE018F5A9F4F21E030E0FC0131832083F5
S1131CE069C0CE01835B9F4F20E03FEF4FE757E48D
S1131CF0FC0160817181828193810E948421181684
S1131D000CF046C020E030E040E251E469897A8971
S1131D108B899C890E948921DC01CB018E010F5A99
S1131D201F4FBC01CD010E940821DC01CB01F80149
S1131D309183808324C0CE018D5A9F4F29E130E0E6
S1131D40FC0131832083CE018D5A9F4FFC01808199
S1131D5091810197F1F79E012D5A3F4FF90191832B
S1131D608083CE018F5A9F4F9E012F5A3F4FF90116
S1131D702081318121503109FC0131832083CE013E
S1131D808F5A9F4FFC0180819181892BA1F62CC031
S1131D908E010F5A1F4FCE01835B9F4FFC01608160
S1131DA07181828193810E940821DC01CB01F801B9
S1131DB091838083CE018B5A9F4F9E012F5A3F4FB0
S1131DC0F90120813181FC0131832083CE018B5ABA
S1131DD09F4FFC01808191810197F1F79E012B5A5D
S1131DE03F4FF9019183808360E08BE00E944100C2
S1131DF061E08EE00E94410080E090E0AAE7B4E454
S1131E008D8B9E8BAF8BB88F8E010D5B1F4F20E0A7
S1131E1030E04AE753E46D897E898F89988D0E946A
S1131E208921DC01CB01F80180839183A283B383F0
S1131E30CE018D5B9F4F20E030E040E85FE3FC0182
S1131E4060817181828193810E94032188234CF4F3
S1131E50CE01895B9F4F21E030E0FC013183208378
S1131E6069C0CE018D5B9F4F20E03FEF4FE757E401
S1131E70FC0160817181828193810E948421181602
S1131E800CF046C020E030E040E251E46D897E89E8
S1131E908F89988D0E948921DC01CB018E01095B19
S1131EA01F4FBC01CD010E940821DC01CB01F801C8
S1131EB09183808324C0CE01875B9F4F29E130E06A
S1131EC0FC0131832083CE01875B9F4FFC0180811D
S1131ED091810197F1F79E01275B3F4FF9019183AF
S1131EE08083CE01895B9F4F9E01295B3F4FF9019F
S1131EF02081318121503109FC0131832083CE01BD
S1131F00895B9F4FFC0180819181892BA1F62CC0B4
S1131F108E01095B1F4FCE018D5B9F4FFC016081D9
S1131F207181828193810E940821DC01CB01F80137
S1131F3091838083CE01855B9F4F9E01295B3F4F38
S1131F40F90120813181FC0131832083CE01855B3D
S1131F509F4FFC01808191810197F1F79E01255BE0
S1131F603F4FF9019183808360E08EE00E9441003D
S1131F7061E08BE00E94410080E090E0AAE7B4E4D5
S1131F80898F9A8FAB8FBC8F20E030E04AE753E40F
S1131F90698D7A8D8B8D9C8D0E948921DC01CB010A
S1131FA089AF9AAFABAFBCAF20E030E040E85FE36D
S1131FB069AD7AAD8BAD9CAD0E94032188232CF4CE
S1131FC081E090E09EAF8DAF49C020E03FEF4FE746
S1131FD057E469AD7AAD8BAD9CAD0E94842118168F
S1131FE09CF520E030E040E251E4698D7A8D8B8DE0
S1131FF09C8D0E948921DC01CB01BC01CD010E9492
S11320000821DC01CB019EAF8DAF19C029E130E07E
S1132010CE01CF96FC0131832083CE01CF96FC0103
S1132020808191810197F1F79E01215C3F4FF90175
S1132030918380838DAD9EAD01979EAF8DAF8DADA5
S11320409EAD892B19F720C069AD7AAD8BAD9CADDF
S11320500E940821DC01CB019EAF8DAFCE018F5BC6
S11320609F4F2DAD3EADFC0131832083CE018F5BAC
S11320709F4FFC01808191810197F1F79E012F5BB5
S11320803F4FF9019183808360E08BE00E9441001F
S113209061E08FE00E94410080E090E0AAE7B4E4B0
S11320A08D8F9E8FAF8FB8A320E030E04AE753E4D2
S11320B06D8D7E8D8F8D98A10E948921DC01CB01CD
S11320C08FA798ABA9ABBAAB20E030E040E85FE360
S11320D06FA578A989A99AA90E94032188232CF4C1
S11320E081E090E09CAB8BAB3FC020E03FEF4FE73B
S11320F057E46FA578A989A99AA90E948421181682
S11321004CF520E030E040E251E46D8D7E8D8F8D02
S113211098A10E948921DC01CB01BC01CD010E9460
S11321200821DC01CB019CAB8BAB0FC089E190E0B3
S11321309EAB8DAB8DA99EA90197F1F79EAB8DAB9C
S11321408BA99CA901979CAB8BAB8BA99CA9892BD0
S113215069F714C06FA578A989A99AA90E940821D2
S1132160DC01CB019CAB8BAB8BA99CA998AF8FAB4B
S11321708FA998AD0197F1F798AF8FAB60E08FE02E
S11321800E94410061E08BE00E94410080E090E009
S1132190AAE7B4E489A39AA3ABA3BCA320E030E0EC
S11321A04AE753E469A17AA18BA19CA10E948921E9
S11321B0DC01CB018DA39EA3AFA3B8A720E030E040
S11321C040E85FE36DA17EA18FA198A50E94032141
S11321D088232CF481E090E09AA789A73FC020E0EF
S11321E03FEF4FE757E46DA17EA18FA198A50E9410
S11321F0842118164CF520E030E040E251E469A156
S11322007AA18BA19CA10E948921DC01CB01BC0194
S1132210CD010E940821DC01CB019AA789A70FC038
S113222089E190E09CA78BA78BA59CA50197F1F76A
S11322309CA78BA789A59AA501979AA789A789A581
S11322409AA5892B69F714C06DA17EA18FA198A5C9
S11322500E940821DC01CB019AA789A789A59AA528
S11322609EA78DA78DA59EA50197F1F79EA78DA783
S113227060E08BE00E9441000E94D5090000C25832
S1132280DF4F0FB6F894DEBF0FBECDBFDF91CF9105
S11322901F910F910895CF93DF93CDB7DEB760E020
S11322A08AE00E94C80160E084E10E94C801000045
S11322B0DF91CF9108950F931F93CF93DF93CDB701
S11322C0DEB7CF5AD1090FB6F894DEBF0FBECDBF2B
S11322D080E389831A82EFC50E94D50980E090E0EB
S11322E0A0EAB1E48F839887A987BA878E01095B36
S11322F01F4F20E030E04AE753E46F8178858985F9
S11323009A850E948921DC01CB01F80180839183A5
S1132310A283B383CE01895B9F4F20E030E040E885
S11323205FE3FC0160817181828193810E940321BA
S113233088234CF4CE01855B9F4F21E030E0FC0103
S11323403183208369C0CE01895B9F4F20E03FEF3A
S11323504FE757E4FC0160817181828193810E947F
S1132360842118160CF046C020E030E040E251E42D
S11323706F81788589859A850E948921DC01CB014A
S11323808E01055B1F4FBC01CD010E940821DC01B9
S1132390CB01F8019183808324C0CE01835B9F4FDE
S11323A029E130E0FC0131832083CE01835B9F4F20
S11323B0FC01808191810197F1F79E01235B3F4FDE
S11323C0F90191838083CE01855B9F4F9E01255B3C
S11323D03F4FF9012081318121503109FC013183C2
S11323E02083CE01855B9F4FFC0180819181892BE5
S11323F0A1F62CC08E01055B1F4FCE01895B9F4F58
S1132400FC0160817181828193810E940821DC0139
S1132410CB01F80191838083CE01815B9F4F9E01A4
S1132420255B3F4FF90120813181FC0131832083F9
S1132430CE01815B9F4FFC01808191810197F1F76F
S11324409E01215B3F4FF901918380838A81882F0C
S113245090E0880F991F8D549F4FFC0180819181DA
S1132460AC0160E081E00E94AD0980E090E0A0EA68
S1132470B1E48B879C87AD87BE8720E030E04AE7D4
S113248053E46B857C858D859E850E948921DC01C2
S1132490CB019E01235C3F4FF90180839183A2838A
S11324A0B38320E030E040E85FE3CE01CD96FC0149
S11324B060817181828193810E94032188234CF47D
S11324C0CE018F5B9F4F21E030E0FC0131832083FC
S11324D067C020E03FEF4FE757E4CE01CD96FC0103
S11324E060817181828193810E94842118160CF08D
S11324F046C020E030E040E251E46B857C858D8568
S11325009E850E948921DC01CB018E010F5B1F4F48
S1132510BC01CD010E940821DC01CB01F8019183AB
S1132520808324C0CE018D5B9F4F29E130E0FC0104
S113253031832083CE018D5B9F4FFC01808191818B
S11325400197F1F79E012D5B3F4FF9019183808341
S1132550CE018F5B9F4F9E012F5B3F4FF90120817E
S1132560318121503109FC0131832083CE018F5BFD
S11325709F4FFC0180819181892BA1F62BC08E0194
S11325800F5B1F4FCE01CD96FC016081718182816A
S113259093810E940821DC01CB01F801918380839F
S11325A0CE018B5B9F4F9E012F5B3F4FF901208132
S11325B03181FC0131832083CE018B5B9F4FFC0171
S11325C0808191810197F1F79E012B5B3F4FF901C7
S11325D09183808340E650E060E082E00E94AD0990
S11325E080E090E0A0EAB1E48FA798ABA9ABBAABC6
S11325F020E030E04AE753E46FA578A989A99AA9B5
S11326000E948921DC01CB018BAB9CABADABBEAB93
S113261020E030E040E85FE36BA97CA98DA99EA986
S11326200E94032188232CF481E090E098AF8FABC3
S11326303FC020E03FEF4FE757E46BA97CA98DA989
S11326409EA90E94842118164CF520E030E040E257
S113265051E46FA578A989A99AA90E948921DC016E
S1132660CB01BC01CD010E940821DC01CB0198AF54
S11326708FAB0FC089E190E09AAF89AF89AD9AAD75
S11326800197F1F79AAF89AF8FA998AD019798AFE9
S11326908FAB8FA998AD892B69F714C06BA97CA95E
S11326A08DA99EA90E940821DC01CB0198AF8FABB4
S11326B08FA998AD9CAF8BAF8BAD9CAD0197F1F713
S11326C09CAF8BAF000084E10E943401882329F47D
S11326D08AE00E9434018823B1F384E10E9434012A
S11326E0813061F48A81882F90E09E0125553F4F07
S11326F0820F931F21E0FC0120830AC08A81882F66
S113270090E09E0125553F4F820F931FFC011082DC
S11327108A81882F90E09E0125553F4F820F931F99
S1132720FC0120818A81882F90E083549F4FFC0113
S11327308081281709F081C189818F5F89830E9474
S1132740D50980E090E0A0EAB1E48B8B9C8BAD8B43
S1132750BE8B8E01055A1F4F20E030E04AE753E458
S11327606B897C898D899E890E948921DC01CB013A
S1132770F80180839183A283B383CE01855A9F4F4E
S113278020E030E040E85FE3FC01608171818281F8
S113279093810E94032188234CF4CE01815A9F4FD8
S11327A021E030E0FC013183208369C0CE01855AE9
S11327B09F4F20E03FEF4FE757E4FC0160817181B8
S11327C0828193810E94842118160CF046C020E077
S11327D030E040E251E46B897C898D899E890E94B6
S11327E08921DC01CB018E01015A1F4FBC01CD01AF
S11327F00E940821DC01CB01F8019183808324C06D
S1132800CE018F599F4F29E130E0FC0131832083B1
S1132810CE018F599F4FFC01808191810197F1F77F
S11328209E012F593F4FF90191838083CE01815A34
S11328309F4F9E01215A3F4FF90120813181215040
S11328403109FC0131832083CE01815A9F4FFC0161
S113285080819181892BA1F62CC08E01015A1F4FD2
S1132860CE01855A9F4FFC016081718182819381E1
S11328700E940821DC01CB01F80191838083CE0101
S11328808D599F4F9E01215A3F4FF901208131817B
S1132890FC0131832083CE018D599F4FFC0180813F
S11328A091810197F1F79E012D593F4FF9019183D1
S11328B0808346EF50E060E081E00E94AD0981E052
S11328C00E946D070E945D1A80E090E0AAE7B5E4DB
S11328D08B839C83AD83BE838E010F5A1F4F20E0F0
S11328E030E04AE753E46B817C818D819E810E94B4
S11328F08921DC01CB01F80180839183A283B38316
S1132900CE018F5A9F4F20E030E040E85FE3FC01A6
S113291060817181828193810E94032188234CF418
S1132920CE018B5A9F4F21E030E0FC01318320839C
S113293069C0CE018F5A9F4F20E03FEF4FE757E425
S1132940FC0160817181828193810E948421181627
S11329500CF046C020E030E040E251E46B817C8121
S11329608D819E810E948921DC01CB018E010B5A4D
S11329701F4FBC01CD010E940821DC01CB01F801ED
S11329809183808324C0CE01895A9F4F29E130E08E
S1132990FC0131832083CE01895A9F4FFC01808141
S11329A091810197F1F79E01295A3F4FF9019183D3
S11329B08083CE018B5A9F4F9E012B5A3F4FF901C2
S11329C02081318121503109FC0131832083CE01E2
S11329D08B5A9F4FFC0180819181892BA1F668C29B
S11329E08E010B5A1F4FCE018F5A9F4FFC016081FD
S11329F07181828193810E940821DC01CB01F8015D
S1132A0091838083CE01875A9F4F9E012B5A3F4F5B
S1132A10F90120813181FC0131832083CE01875A61
S1132A209F4FFC01808191810197F1F79E01275A04
S1132A303F4FF901918380833BC20E94D50980E016
S1132A4090E0A0EAB1E48B8F9C8FAD8FBE8F8E0196
S1132A5007581F4F20E030E04AE753E46B8D7C8D2C
S1132A608D8D9E8D0E948921DC01CB01F80180832C
S1132A709183A283B383CE0187589F4F20E030E037
S1132A8040E85FE3FC0160817181828193810E944F
S1132A90032188234CF4CE0183589F4F21E030E07A
S1132AA0FC013183208369C0CE0187589F4F20E009
S1132AB03FEF4FE757E4FC0160817181828193818C
S1132AC00E94842118160CF046C020E030E040E259
S1132AD051E46B8D7C8D8D8D9E8D0E948921DC014E
S1132AE0CB018E0103581F4FBC01CD010E94082168
S1132AF0DC01CB01F8019183808324C0CE0181588D
S1132B009F4F29E130E0FC0131832083CE018158BD
S1132B109F4FFC01808191810197F1F79E0121581B
S1132B203F4FF90191838083CE0183589F4F9E01CB
S1132B3023583F4FF9012081318121503109FC0193
S1132B4031832083CE0183589F4FFC018081918182
S1132B50892BA1F62CC08E0103581F4FCE01875834
S1132B609F4FFC0160817181828193810E940821C1
S1132B70DC01CB01F80191838083CE018F579F4FF5
S1132B809E0123583F4FF90120813181FC0131839B
S1132B902083CE018F579F4FFC0180819181019743
S1132BA0F1F79E012F573F4FF9019183808361E034
S1132BB08BE00E94410080E090E0AAEFB4E48F8FA4
S1132BC098A3A9A3BAA38E0101591F4F20E030E0B6
S1132BD04AE753E46F8D78A189A19AA10E948921C3
S1132BE0DC01CB01F80180839183A283B383CE01FE
S1132BF081599F4F20E030E040E85FE3FC016081B1
S1132C007181828193810E94032188234CF4CE0137
S1132C108D589F4F21E030E0FC013183208369C04F
S1132C20CE0181599F4F20E03FEF4FE757E4FC016D
S1132C3060817181828193810E94842118160CF035
S1132C4046C020E030E040E251E46F8D78A189A1D4
S1132C509AA10E948921DC01CB018E010D581F4FDE
S1132C60BC01CD010E940821DC01CB01F801918354
S1132C70808324C0CE018B589F4F29E130E0FC01B2
S1132C8031832083CE018B589F4FFC018081918139
S1132C900197F1F79E012B583F4FF90191838083EF
S1132CA0CE018D589F4F9E012D583F4FF901208131
S1132CB0318121503109FC0131832083CE018D58AB
S1132CC09F4FFC0180819181892BA1F62CC08E013C
S1132CD00D581F4FCE0181599F4FFC0160817181B6
S1132CE0828193810E940821DC01CB01F801918348
S1132CF08083CE0189589F4F9E012D583F4FF90183
S1132D0020813181FC0131832083CE0189589F4F7A
S1132D10FC01808191810197F1F79E0129583F4F71
S1132D20F9019183808360E08BE00E94410046E0DA
S1132D3051E060E081E00E94AD0980E00E946D07EF
S1132D4080E090E0AAE7B5E48F87988BA98BBA8BD3
S1132D508E010B591F4F20E030E04AE753E46F85A2
S1132D60788989899A890E948921DC01CB01F8013B
S1132D7080839183A283B383CE018B599F4F20E03C
S1132D8030E040E85FE3FC016081718182819381DE
S1132D900E94032188234CF4CE0187599F4F21E0E0
S1132DA030E0FC013183208369C0CE018B599F4FF1
S1132DB020E03FEF4FE757E4FC016081718182819D
S1132DC093810E94842118160CF046C020E030E064
S1132DD040E251E46F85788989899A890E94892122
S1132DE0DC01CB018E0107591F4FBC01CD010E94AC
S1132DF00821DC01CB01F8019183808324C0CE013A
S1132E0085599F4F29E130E0FC0131832083CE01B5
S1132E1085599F4FFC01808191810197F1F79E01B3
S1132E2025593F4FF90191838083CE0187599F4FE4
S1132E309E0127593F4FF9012081318121503109E9
S1132E40FC0131832083CE0187599F4FFC0180818F
S1132E509181892BA1F62CC08E0107591F4FCE01F9
S1132E608B599F4FFC0160817181828193810E9403
S1132E700821DC01CB01F80191838083CE018359C1
S1132E809F4F9E0127593F4FF90120813181FC0159
S1132E9031832083CE0183599F4FFC01808191812E
S1132EA00197F1F79E0123593F4FF90191838083E4
S1132EB08A818F5F8A838A81853008F40DCA0E94D3
S1132EC0D50980E090E0A0EAB1E48BA39CA3ADA374
S1132ED0BEA38E010F551F4F20E030E04AE753E4B4
S1132EE06BA17CA18DA19EA10E948921DC01CB0153
S1132EF0F80180839183A283B383CE018F559F4FC2
S1132F0020E030E040E85FE3FC0160817181828170
S1132F1093810E94032188234CF4CE018B559F4F4B
S1132F2021E030E0FC013183208369C0CE018F555C
S1132F309F4F20E03FEF4FE757E4FC016081718130
S1132F40828193810E94842118160CF046C020E0EF
S1132F5030E040E251E46BA17CA18DA19EA10E94CE
S1132F608921DC01CB018E010B551F4FBC01CD0122
S1132F700E940821DC01CB01F8019183808324C0E5
S1132F80CE0189559F4F29E130E0FC013183208334
S1132F90CE0189559F4FFC01808191810197F1F702
S1132FA09E0129553F4FF90191838083CE018B55B2
S1132FB09F4F9E012B553F4FF901208131812150B4
S1132FC03109FC0131832083CE018B559F4FFC01D5
S1132FD080819181892BA1F62CC08E010B551F4F46
S1132FE0CE018F559F4FFC01608171818281938155
S1132FF00E940821DC01CB01F80191838083CE017A
S113300087559F4F9E012B553F4FF90120813181F8
S1133010FC0131832083CE0187559F4FFC018081C1
S113302091810197F1F79E0127553F4FF901918353
S1133030808344E151E060E081E00E94AD0980E0DA
S113304090E0A0EAB1E48FA398A7A9A7BAA78E013C
S113305009561F4F20E030E04AE753E46FA178A5FA
S113306089A59AA50E948921DC01CB01F8018083FE
S11330709183A283B383CE0189569F4F20E030E031
S113308040E85FE3FC0160817181828193810E9449
S1133090032188234CF4CE0185569F4F21E030E074
S11330A0FC013183208369C0CE0189569F4F20E003
S11330B03FEF4FE757E4FC01608171818281938186
S11330C00E94842118160CF046C020E030E040E253
S11330D051E46FA178A589A59AA50E948921DC01F4
S11330E0CB018E0105561F4FBC01CD010E94082162
S11330F0DC01CB01F8019183808324C0CE01835687
S11331009F4F29E130E0FC0131832083CE018356B7
S11331109F4FFC01808191810197F1F79E01235615
S11331203F4FF90191838083CE0185569F4F9E01C5
S113313025563F4FF9012081318121503109FC018D
S113314031832083CE0185569F4FFC01808191817C
S1133150892BA1F62CC08E0105561F4FCE0189562E
S11331609F4FFC0160817181828193810E940821BB
S1133170DC01CB01F80191838083CE0181569F4FFE
S11331809E0125563F4FF90120813181FC01318395
S11331902083CE0181569F4FFC018081918101974C
S11331A0F1F79E0121563F4FF9019183808360E03E
S11331B082E00E94790980E090E0A0EAB1E48BA764
S11331C09CA7ADA7BEA78E0103571F4F20E030E098
S11331D04AE753E46BA57CA58DA59EA50E94892191
S11331E0DC01CB01F80180839183A283B383CE01F8
S11331F083579F4F20E030E040E85FE3FC016081AB
S11332007181828193810E94032188234CF4CE0131
S11332108F569F4F21E030E0FC013183208369C049
S1133220CE0183579F4F20E03FEF4FE757E4FC0167
S113323060817181828193810E94842118160CF02F
S113324046C020E030E040E251E46BA57CA58DA5AA
S11332509EA50E948921DC01CB018E010F561F4FD0
S1133260BC01CD010E940821DC01CB01F80191834E
S1133270808324C0CE018D569F4F29E130E0FC01AC
S113328031832083CE018D569F4FFC018081918133
S11332900197F1F79E012D563F4FF90191838083E9
S11332A0CE018F569F4F9E012F563F4FF90120812B
S11332B0318121503109FC0131832083CE018F56A5
S11332C09F4FFC0180819181892BA1F62CC08E0136
S11332D00F561F4FCE0183579F4FFC0160817181B0
S11332E0828193810E940821DC01CB01F801918342
S11332F08083CE018B569F4F9E012F563F4FF9017D
S113330020813181FC0131832083CE018B569F4F74
S1133310FC01808191810197F1F79E012B563F4F6B
S1133320F9019183808389810E946D0780E090E098
S1133330AAE7B5E48F8B988FA98FBA8F8E010D57AA
S11333401F4F20E030E04AE753E46F89788D898D80
S11333509A8D0E948921DC01CB01F801808391833D
S1133360A283B383CE018D579F4F20E030E040E825
S11333705FE3FC0160817181828193810E9403215A
S113338088234CF4CE0189579F4F21E030E0FC01A3
S11333903183208369C0CE018D579F4F20E03FEFDA
S11333A04FE757E4FC0160817181828193810E941F
S11333B0842118160CF046C020E030E040E251E4CD
S11333C06F89788D898D9A8D0E948921DC01CB01CA
S11333D08E0109571F4FBC01CD010E940821DC0159
S11333E0CB01F8019183808324C0CE0187579F4F7E
S11333F029E130E0FC0131832083CE0187579F4FC0
S1133400FC01808191810197F1F79E0127573F4F7D
S1133410F90191838083CE0189579F4F9E012957DB
S11334203F4FF9012081318121503109FC01318361
S11334302083CE0189579F4FFC0180819181892B84
S1133440A1F62CC08E0109571F4FCE018D579F4FF7
S1133450FC0160817181828193810E940821DC01D9
S1133460CB01F80191838083CE0185579F4F9E0144
S113347029573F4FF90120813181FC013183208399
S1133480CE0185579F4FFC01808191810197F1F70F
S11334909E0125573F4FF901918380830E94A21F0B
S11334A00000C155DF4F0FB6F894DEBF0FBECDBF8D
S11334B0DF91CF911F910F9108950F931F93CF9395
S11334C0DF93CDB7DEB7C057D1090FB6F894DEBF8E
S11334D00FBECDBF61E08CE00E94410080E090E02F
S11334E0AAE7B4E489839A83AB83BC838E01095928
S11334F01F4F20E030E04AE753E469817A818B81F1
S11335009C810E948921DC01CB01F8018083918395
S1133510A283B383CE0189599F4F20E030E040E875
S11335205FE3FC0160817181828193810E940321A8
S113353088234CF4CE0185599F4F21E030E0FC01F3
S11335403183208369C0CE0189599F4F20E03FEF2A
S11335504FE757E4FC0160817181828193810E946D
S1133560842118160CF046C020E030E040E251E41B
S113357069817A818B819C810E948921DC01CB0144
S11335808E0105591F4FBC01CD010E940821DC01A9
S1133590CB01F8019183808324C0CE0183599F4FCE
S11335A029E130E0FC0131832083CE0183599F4F10
S11335B0FC01808191810197F1F79E0123593F4FCE
S11335C0F90191838083CE0185599F4F9E0125592E
S11335D03F4FF9012081318121503109FC013183B0
S11335E02083CE0185599F4FFC0180819181892BD5
S11335F0A1F62CC08E0105591F4FCE0189599F4F4A
S1133600FC0160817181828193810E940821DC0127
S1133610CB01F80191838083CE0181599F4F9E0194
S113362025593F4FF90120813181FC0131832083E9
S1133630CE0181599F4FFC01808191810197F1F75F
S11336409E0121593F4FF9019183808360E08CE012
S11336500E94410061E08DE00E94410080E090E022
S1133660AAE7B4E48D839E83AF83B8878E01035A9F
S11336701F4F20E030E04AE753E46D817E818F8163
S113368098850E948921DC01CB01F8018083918314
S1133690A283B383CE01835A9F4F20E030E040E8F9
S11336A05FE3FC0160817181828193810E94032127
S11336B088234CF4CE018F599F4F21E030E0FC0168
S11336C03183208369C0CE01835A9F4F20E03FEFAE
S11336D04FE757E4FC0160817181828193810E94EC
S11336E0842118160CF046C020E030E040E251E49A
S11336F06D817E818F8198850E948921DC01CB01B7
S11337008E010F591F4FBC01CD010E940821DC011D
S1133710CB01F8019183808324C0CE018D599F4F42
S113372029E130E0FC0131832083CE018D599F4F84
S1133730FC01808191810197F1F79E012D593F4F42
S1133740F90191838083CE018F599F4F9E012F5998
S11337503F4FF9012081318121503109FC0131832E
S11337602083CE018F599F4FFC0180819181892B49
S1133770A1F62CC08E010F591F4FCE01835A9F4FC3
S1133780FC0160817181828193810E940821DC01A6
S1133790CB01F80191838083CE018B599F4F9E0109
S11337A02F593F4FF90120813181FC01318320835E
S11337B0CE018B599F4FFC01808191810197F1F7D4
S11337C09E012B593F4FF9019183808360E08DE086
S11337D00E94410061E08EE00E94410080E090E0A0
S11337E0AAE7B4E489879A87AB87BC878E010D5A10
S11337F01F4F20E030E04AE753E469857A858B85E2
S11338009C850E948921DC01CB01F801808391838E
S1133810A283B383CE018D5A9F4F20E030E040E86D
S11338205FE3FC0160817181828193810E940321A5
S113383088234CF4CE01895A9F4F21E030E0FC01EB
S11338403183208369C0CE018D5A9F4F20E03FEF22
S11338504FE757E4FC0160817181828193810E946A
S1133860842118160CF046C020E030E040E251E418
S113387069857A858B859C850E948921DC01CB0131
S11338808E01095A1F4FBC01CD010E940821DC01A1
S1133890CB01F8019183808324C0CE01875A9F4FC6
S11338A029E130E0FC0131832083CE01875A9F4F08
S11338B0FC01808191810197F1F79E01275A3F4FC6
S11338C0F90191838083CE01895A9F4F9E01295A21
S11338D03F4FF9012081318121503109FC013183AD
S11338E02083CE01895A9F4FFC0180819181892BCD
S11338F0A1F62CC08E01095A1F4FCE018D5A9F4F3D
S1133900FC0160817181828193810E940821DC0124
S1133910CB01F80191838083CE01855A9F4F9E018C
S1133920295A3F4FF90120813181FC0131832083E1
S1133930CE01855A9F4FFC01808191810197F1F757
S11339409E01255A3F4FF9019183808360E08EE008
S11339500E94410061E08FE00E94410080E090E01D
S1133960AAE7B4E48D879E87AF87B88B8E01075B87
S11339701F4F20E030E04AE753E46D857E858F8554
S113398098890E948921DC01CB01F801808391830D
S1133990A283B383CE01875B9F4F20E030E040E8F1
S11339A05FE3FC0160817181828193810E94032124
S11339B088234CF4CE01835B9F4F21E030E0FC016F
S11339C03183208369C0CE01875B9F4F20E03FEFA6
S11339D04FE757E4FC0160817181828193810E94E9
S11339E0842118160CF046C020E030E040E251E497
S11339F06D857E858F8598890E948921DC01CB01A4
S1133A008E01035B1F4FBC01CD010E940821DC0124
S1133A10CB01F8019183808324C0CE01815B9F4F49
S1133A2029E130E0FC0131832083CE01815B9F4F8B
S1133A30FC01808191810197F1F79E01215B3F4F49
S1133A40F90191838083CE01835B9F4F9E01235BA9
S1133A503F4FF9012081318121503109FC0131832B
S1133A602083CE01835B9F4FFC0180819181892B50
S1133A70A1F62CC08E01035B1F4FCE01875B9F4FC5
S1133A80FC0160817181828193810E940821DC01A3
S1133A90CB01F80191838083CE018F5A9F4F9E0101
S1133AA0235B3F4FF90120813181FC013183208365
S1133AB0CE018F5A9F4FFC01808191810197F1F7CC
S1133AC09E012F5A3F4FF9019183808360E08FE07C
S1133AD00E94410061E08FE00E94410080E090E09C
S1133AE0AAE7B4E4898B9A8BAB8BBC8B8E01015C07
S1133AF01F4F20E030E04AE753E469897A898B89D3
S1133B009C890E948921DC01CB01F8018083918387
S1133B10A283B383CE01CF9620E030E040E85FE398
S1133B20FC0160817181828193810E940321882339
S1133B304CF4CE018D5B9F4F21E030E0FC013183DA
S1133B40208367C0CE01CF9620E03FEF4FE757E4D4
S1133B50FC0160817181828193810E948421181605
S1133B600CF046C020E030E040E251E469897A89F3
S1133B708B899C890E948921DC01CB018E010D5B1C
S1133B801F4FBC01CD010E940821DC01CB01F801CB
S1133B909183808324C0CE018B5B9F4F29E130E069
S1133BA0FC0131832083CE018B5B9F4FFC0180811C
S1133BB091810197F1F79E012B5B3F4FF9019183AE
S1133BC08083CE018D5B9F4F9E012D5B3F4FF9019A
S1133BD02081318121503109FC0131832083CE01C0
S1133BE08D5B9F4FFC0180819181892BA1F62BC0B5
S1133BF08E010D5B1F4FCE01CF96FC016081718158
S1133C00828193810E940821DC01CB01F801918318
S1133C108083CE01895B9F4F9E012D5B3F4FF9014D
S1133C2020813181FC0131832083CE01895B9F4F48
S1133C30FC01808191810197F1F79E01295B3F4F3F
S1133C40F9019183808360E08FE00E94410061E08C
S1133C508EE00E94410080E090E0AAE7B4E48D8BFE
S1133C609E8BAF8BB88F20E030E04AE753E46D8938
S1133C707E898F89988D0E948921DC01CB018DABCF
S1133C809EABAFABB8AF20E030E040E85FE36DA996
S1133C907EA98FA998AD0E94032188232CF481E08A
S1133CA090E09AAF89AF3FC020E03FEF4FE757E481
S1133CB06DA97EA98FA998AD0E94842118164CF590
S1133CC020E030E040E251E46D897E898F89988D4F
S1133CD00E948921DC01CB01BC01CD010E94082195
S1133CE0DC01CB019AAF89AF0FC089E190E09CAFB2
S1133CF08BAF8BAD9CAD0197F1F79CAF8BAF89ADCA
S1133D009AAD01979AAF89AF89AD9AAD892B69F7BE
S1133D1014C06DA97EA98FA998AD0E940821DC0169
S1133D20CB019AAF89AF89AD9AAD9EAF8DAF8DAD02
S1133D309EAD0197F1F79EAF8DAF60E08EE00E94DB
S1133D40410061E08DE00E94410080E090E0AAE73C
S1133D50B4E4898F9A8FAB8FBC8F20E030E04AE7C0
S1133D6053E4698D7A8D8B8D9C8D0E948921DC01B1
S1133D70CB018BA79CA7ADA7BEA720E030E040E80D
S1133D805FE36BA57CA58DA59EA50E9403218823D6
S1133D902CF481E090E098AB8FA73FC020E03FEF88
S1133DA04FE757E46BA57CA58DA59EA50E948421B1
S1133DB018164CF520E030E040E251E4698D7A8D2C
S1133DC08B8D9C8D0E948921DC01CB01BC01CD012E
S1133DD00E940821DC01CB0198AB8FA70FC089E1B9
S1133DE090E09AAB89AB89A99AA90197F1F79AABAC
S1133DF089AB8FA598A9019798AB8FA78FA598A990
S1133E00892B69F714C06BA57CA58DA59EA50E947E
S1133E100821DC01CB0198AB8FA78FA598A99CAB97
S1133E208BAB8BA99CA90197F1F79CAB8BAB60E0A2
S1133E308DE00E94410061E08CE00E94410080E03E
S1133E4090E0AAE7B4E48D8F9E8FAF8FB8A320E0F3
S1133E5030E04AE753E46D8D7E8D8F8D98A10E94EA
S1133E608921DC01CB0189A39AA3ABA3BCA320E0E5
S1133E7030E040E85FE369A17AA18BA19CA10E9494
S1133E80032188232CF481E090E09EA38DA33FC0FE
S1133E9020E03FEF4FE757E469A17AA18BA19CA1F1
S1133EA00E94842118164CF520E030E040E251E4F1
S1133EB06D8D7E8D8F8D98A10E948921DC01CB01AF
S1133EC0BC01CD010E940821DC01CB019EA38DA37E
S1133ED00FC089E190E098A78FA38FA198A50197BF
S1133EE0F1F798A78FA38DA19EA101979EA38DA3FF
S1133EF08DA19EA1892B69F714C069A17AA18BA118
S1133F009CA10E940821DC01CB019EA38DA38DA15D
S1133F109EA19AA789A789A59AA50197F1F79AA7BF
S1133F2089A760E08CE00E9441000000C059DF4F87
S1133F300FB6F894DEBF0FBECDBFDF91CF911F91B6
S1133F400F910895CF93DF93CDB7DEB76D970FB67A
S1133F50F894DEBF0FBECDBF64E082E00E94790911
S1133F6083E291E00E945A0983E00E946D0782E097
S1133F700E946D0719820FC161E08CE00E9441002C
S1133F8061E08DE00E94410061E08EE00E9441000A
S1133F9061E08FE00E94410061E08BE00E944100FB
S1133FA080E090E0AAE7B4E48A839B83AC83BD837A
S1133FB020E030E04AE753E46A817B818C819D8173
S1133FC00E948921DC01CB018C8B9D8BAE8BBF8B36
S1133FD020E030E040E85FE36C897D898E899F8929
S1133FE00E94032188232CF481E090E0998F888F2C
S1133FF03FC020E03FEF4FE757E46C897D898E890D
S11340009F890E94842118164CF520E030E040E29C
S113401051E46A817B818C819D810E948921DC012C
S1134020CB01BC01CD010E940821DC01CB01998F99
S1134030888F0FC089E190E09B8F8A8F8A8D9B8D3A
S11340400197F1F79B8F8A8F888D998D0197998FAE
S1134050888F888D998D892B69F714C06C897D8927
S11340608E899F890E940821DC01CB01998F888F5A
S1134070888D998D9D8F8C8F8C8D9D8D0197F1F7F7
S11340809D8F8C8F60E08CE00E94410060E08DE0A9
S11340900E94410060E08EE00E94410060E08FE0F9
S11340A00E94410060E08BE00E94410080E090E0CB
S11340B0AAE7B4E48E839F83A887B98720E030E021
S11340C04AE753E46E817F81888599850E9489211E
S11340D0DC01CB018A879B87AC87BD8720E030E079
S11340E040E85FE36A857B858C859D850E9403217A
S11340F088232CF481E090E09F878E873FC020E0E6
S11341003FEF4FE757E46A857B858C859D850E9448
S1134110842118164CF520E030E040E251E46E8131
S11341207F81888599850E948921DC01CB01BC01AE
S1134130CD010E940821DC01CB019F878E870FC02F
S113414089E190E0998B888B888999890197F1F7A7
S1134150998B888B8E859F8501979F878E878E8507
S11341609F85892B69F714C06A857B858C859D851D
S11341700E940821DC01CB019F878E878E859F8555
S11341809B8B8A8B8A899B890197F1F79B8B8A8BFE
S113419089818F5F89838981823008F4EDCE0000A4
S11341A06D960FB6F894DEBF0FBECDBFDF91CF91F1
S11341B00895CF93DF93CDB7DEB70E94D50961E0B0
S11341C081E00E9479098EE291E00E945A094BE352
S11341D051E061E082E00E94AD09000084E10E94A8
S11341E03401882329F48AE00E9434018823B1F33E
S11341F084E10E943401813011F481E001C080E047
S1134200DF91CF9108950E94372108F481E0089549
S11342100E94632188F09F5798F0B92F9927B751CE
S1134220B0F0E1F0660F771F881F991F1AF0BA9556
S1134230C9F714C0B13091F00E947D21B1E0089516
S11342400C947D21672F782F8827B85F39F0B93F08
S1134250CCF3869577956795B395D9F73EF4909509
S11342608095709561957F4F8F4F9F4F0895990F5B
S11342700008550FAA0BE0E8FEEF16161706E8072C
S1134280F907C0F012161306E407F50798F0621B4D
S1134290730B840B950B39F40A2661F0232B242B22
S11342A0252B21F408950A2609F4A140A6958FEF41
S11342B0811D811D089557FD9058440F551F59F0D5
S11342C05F3F71F04795880F97FB991F61F09F3FFF
S11342D079F087950895121613061406551FF2CF28
S11342E04695F1DF08C0161617061806991FF1CF78
S11342F086957105610508940895E894BB2766279F
S11343007727CB0197F908950E94372108F48FEF9E
S113431008950E949C210C940D220E94FF2138F0E4
S11343200E94062220F0952311F00C94F6210C949F
S1134330FC2111240C947E210E945B2170F3959F33
S1134340C1F3950F50E0551F629FF001729FBB2788
S1134350F00DB11D639FAA27F00DB11DAA1F649F24
S11343606627B00DA11D661F829F2227B00DA11DD7
S1134370621F739FB00DA11D621F839FA00D611D5D
S1134380221F749F3327A00D611D231F849F600D7E
S1134390211D822F762F6A2F11249F5750409AF0A7
S11343A0F1F088234AF0EE0FFF1FBB1F661F771F33
S11343B0881F91505040A9F79E3F510580F00C94FE
S11343C0F6210C947E215F3FE4F3983ED4F3869566
S11343D077956795B795F795E7959F5FC1F7FE2B9E
S11343E0880F911D9695879597F9089597F99F677A
S11343F080E870E060E008959FEF80EC0895002469
S11344000A941616170618060906089500240A9435
S113441012161306140605060895092E0394000CBB
S113442011F4882352F0BB0F40F4BF2B11F460FF4A
S113443004C06F5F7F4F8F4F9F4F0895F894FFCF55
S113444042303A5965732042313A4E6F0030212090
S11344503D2030004B484F4E542053413742414B8E
S1134460203F004F6D20656C20446F6E6961203FD2
S1134470200053756E6E794E31372031363030431B
S1134480433F003139323737204D414A455354595F
S11344903F20006D00740083009200A3000001011E
S11344A0000000001B00001F111100001B00001180
S11344B01F0000060F1F1E1C1810000C1E1F0F07E4
S11344C003015468616E6B20596F750057454C4366
S11344D04F4D45202100436F727265637420416E15
S11344E073776572200057726F6E6720416E737721
S11344F065722000596F75722053636F726520696D
S11345007320005448414E4B20594F552000506CA5
S1134510617920416761696E203F0042303A5965F4
S10B4520732042313A4E6F0092
S9030000FC
