:100000000C942A000C943F000C943F000C943F0089
:100010000C943F000C943F000C943F000C943F0064
:100020000C943F000C943F000C943F000C943F0054
:100030000C943F000C943F000C943F000C943F0044
:100040000C943F000C943F000C943F000C943F0034
:100050000C943F0011241FBECFE5D8E0DEBFCDBF1A
:1000600011E0A0E6B0E0ECEEF6E102C005900D92E2
:10007000A43AB107D9F70E946F0B0C94740B0C943F
:100080000000CF93C5E061E08CE00E948B0861E046
:100090008DE00E948B0861E08EE00E948B0861E099
:1000A0008FE00E948B082FEF83ED90E3215080407A
:1000B0009040E1F700C0000060E08CE00E948B08F7
:1000C00060E08DE00E948B0860E08EE00E948B086B
:1000D00060E08FE00E948B082FEF81EE94E02150CA
:1000E00080409040E1F700C00000C15061F6CF9120
:1000F0000895FF920F931F93CF93DF93CDB7DEB791
:10010000C054D1400FB6F894DEBF0FBECDBF88E01B
:10011000E0E6F0E0DE01119601900D928A95E1F79C
:1001200088E0E8E6F0E0DE01199601900D928A95EC
:10013000E1F760E08AE00E94510960E084E10E94FA
:10014000510961E08BE00E94510961E08AE00E9460
:100150008B0861E084E10E948B0861E08CE00E94E2
:10016000510961E08DE00E94510961E08EE00E943A
:10017000510961E08FE00E94510988E0E0E7F0E07A
:10018000DE01519601900D928A95E1F7FE01799674
:1001900088E0DF011D928A95E9F780E1E3E9F1E06B
:1001A000DE01919601900D928A95E1F780E1E0E8F9
:1001B000F0E0DE01D19601900D928A95E1F78DE095
:1001C000E1E9F0E0DE01AF5BBF4F01900D928A954F
:1001D000E1F7FE01E25BFF4F83E0DF01282F1D9274
:1001E0002A95E9F79DE0E1EAF0E0DE01AF5ABF4F62
:1001F00001900D929A95E1F7E1E5F0E0EC0FFD1F1B
:100200003D96DF01282F1D922A95E9F795E0E1EB55
:10021000F0E0DE01AF59BF4F01900D929A95E1F7E2
:10022000E1E6F0E0EC0FFD1F35969BE0DF011D924B
:100230009A95E9F79EE0E1ECF0E0DE01AF58BF4FA0
:1002400001900D929A95E1F7C158DF4F19821882FB
:10025000CF57D0409BE0E1EDF0E0DE01AF57BF4F5C
:1002600001900D929A95E1F795E0E1E8F0E0EC0F4E
:10027000FD1F3B96DF01292F1D922A95E9F72FE0FC
:10028000E1EEF0E0DE01AF56BF4F01900D922A95EE
:10029000E1F7C056DF4F1882C05AD04020E1E1EFAD
:1002A000F0E0DE01AF55BF4F01900D922A95E1F7C6
:1002B0002EE0E2E0F1E0DE01AF54BF4F01900D927D
:1002C0002A95E1F7C154DF4F19821882CF5BD040E5
:1002D00029E0E2E1F1E0DE01AF53BF4F01900D9262
:1002E0002A95E1F7E1ECF0E0EC0FFD1F399627E0ED
:1002F000DF011D922A95E9F72CE0E2E2F1E0DE0150
:10030000AF52BF4F01900D922A95E1F7E1EDF0E079
:10031000EC0FFD1F3C9624E0DF011D922A95E9F7C2
:100320002BE0E2E3F1E0DE01AF51BF4F01900D920F
:100330002A95E1F7E1EEF0E0EC0FFD1F3B96DF01BF
:100340001D929A95E9F79AE0E2E4F1E0DE01AF5000
:10035000BF4F01900D929A95E1F796E0E1EFF0E042
:10036000EC0FFD1F3A96DF01292F1D922A95E9F720
:100370002AE0E2E5F1E0DE01AF5FBE4F01900D92B1
:100380002A95E1F7E1E0F1E0EC0FFD1F3A96DF017D
:100390001D929A95E9F790E1E2E6F1E0DE01AF5EA9
:1003A000BE4F01900D929A95E1F79DE0E3E7F1E0F1
:1003B000DE01AF5DBE4F01900D929A95E1F7E1E24B
:1003C000F1E0EC0FFD1F3D96DF011D928A95E9F7E4
:1003D00087E0E3E8F1E0DE01AF5CBE4F01900D92F3
:1003E0008A95E1F7E1E3F1E0EC0FFD1F379689E034
:1003F000DF011D928A95E9F764E080E00E94EB0A34
:10040000CE0141960E941F0BBFEF23ED80E3B15058
:1004100020408040E1F700C000000E941B0BCE018D
:1004200081960E941F0B9FEFA3EDB0E39150A04077
:10043000B040E1F700C000000E941B0B11E0F12C5E
:1004400001C01F5F8FEF810F823009F4F0C130F4DB
:10045000882359F0813009F424C15CC4833009F445
:10046000B5C2843009F481C355C4CE01C1960E943F
:100470001F0BAE014F5B5F4F60E081E00E94350BC8
:100480008AE00E941009811105C084E10E941009D0
:100490008823B1F38AE00E941009882309F452C02E
:1004A0000E941B0B06E020E040E060E4CE010196D4
:1004B0000E94400B21E040E060E4CE0101960E94E2
:1004C000400B05E020E040E060E4CE0101960E9490
:1004D000400B21E040E060E4CE0101960E94400B19
:1004E00007E020E040E060E4CE0101960E94400B6E
:1004F00021E040E060E4CE0101960E94400B08E05C
:1005000020E040E060E4CE0101960E94400B21E033
:1005100040E060E4CE0101960E94400B2FEF83ED96
:1005200090E3215080409040E1F700C00000AFEF21
:10053000B3ED20E3A150B0402040E1F700C000003F
:10054000F394ACC084E10E941009882309F4A6C08A
:100550000E941B0B06E020E041E068E4CE01099612
:100560000E94400B21E041E068E4CE0109960E9420
:10057000400B05E020E041E068E4CE0109960E94CE
:10058000400B21E041E068E4CE0109960E94400B57
:1005900007E020E041E068E4CE0109960E94400BAC
:1005A00021E041E068E4CE0109960E94400B08E09A
:1005B00020E041E068E4CE0109960E94400B21E072
:1005C00041E068E4CE0109960E94400B61E08BE0B7
:1005D0000E948B088FEF91EEA4E081509040A040E4
:1005E000E1F700C0000060E08BE00E948B08BFEFE5
:1005F00021EE84E0B15020408040E1F700C00000CF
:1006000061E08BE00E948B089FEFA1EEB4E0915077
:10061000A040B040E1F700C0000060E08BE00E9425
:100620008B082FEF83ED90E3215080409040E1F75D
:1006300000C0000061E08BE00E948B08AFEFB1EEDC
:1006400024E0A150B0402040E1F700C0000060E08D
:100650008BE00E948B088FEF91EEA4E081509040D8
:10066000A040E1F700C0000061E08BE00E948B0831
:10067000BFEF21EE84E0B15020408040E1F700C0A0
:10068000000060E08BE00E948B089FEFA3EDB0E3D9
:100690009150A040B040E1F700C000000E941B0B49
:1006A000D0CECE018F5A9F4F0E941F0BAE014F59E3
:1006B0005F4F60E081E00E94350B8AE00E941009E4
:1006C000811105C084E10E9410098823B1F384E1FF
:1006D0000E941009882309F449C00E941B0B06E000
:1006E00020E040E060E4CE0101960E94400B21E052
:1006F00040E060E4CE0101960E94400B05E020E05E
:1007000040E060E4CE0101960E94400B21E040E011
:1007100060E4CE0101960E94400B07E020E040E03B
:1007200060E4CE0101960E94400B21E040E060E4CD
:10073000CE0101960E94400B08E020E040E060E41A
:10074000CE0101960E94400B21E040E060E4CE0122
:1007500001960E94400B2FEF83ED90E321508040E3
:100760009040E1F700C00000F3945EC08AE00E9470
:100770001009882309F458C00E941B0B06E020E0F2
:1007800041E068E4CE0109960E94400B21E041E07F
:1007900068E4CE0109960E94400B05E020E041E0AC
:1007A00068E4CE0109960E94400B21E041E068E434
:1007B000CE0109960E94400B07E020E041E068E48A
:1007C000CE0109960E94400B21E041E068E4CE0191
:1007D00009960E94400B08E020E041E068E4CE0169
:1007E00009960E94400B21E041E068E4CE010996A1
:1007F0000E94400B61E08BE00E948B08AFEFB3EDED
:1008000020E3A150B0402040E1F700C000008FEF8E
:1008100093EDA0E381509040A040E1F700C00000BC
:1008200060E08BE00E948B080E941B0B0ACECE0179
:100830008F589F4F0E941F0BAE014F575F4F60E0D4
:1008400081E00E94350B8AE00E941009811105C0E9
:1008500084E10E9410098823B1F384E10E94100909
:10086000882309F452C00E941B0B06E020E040E000
:1008700060E4CE0101960E94400B21E040E060E47C
:10088000CE0101960E94400B05E020E040E060E4CC
:10089000CE0101960E94400B21E040E060E4CE01D1
:1008A00001960E94400B07E020E040E060E4CE01AA
:1008B00001960E94400B21E040E060E4CE010196E9
:1008C0000E94400B08E020E040E060E4CE01019689
:1008D0000E94400B21E040E060E4CE0101960E94BE
:1008E000400BBFEF23ED80E3B15020408040E1F7A3
:1008F00000C000009FEFA3EDB0E39150A040B040D6
:10090000E1F700C00000F3945EC08AE00E94100985
:10091000882309F458C00E941B0B06E020E041E048
:1009200068E4CE0109960E94400B21E041E068E4B2
:10093000CE0109960E94400B05E020E041E068E40A
:10094000CE0109960E94400B21E041E068E4CE010F
:1009500009960E94400B07E020E041E068E4CE01E8
:1009600009960E94400B21E041E068E4CE0109961F
:100970000E94400B08E020E041E068E4CE010996C7
:100980000E94400B21E041E068E4CE0109960E94FC
:10099000400B61E08BE00E948B082FEF83ED90E32A
:1009A000215080409040E1F700C00000AFEFB3ED70
:1009B00020E3A150B0402040E1F700C0000060E01B
:1009C0008BE00E948B080E941B0B3BCDCE018F5603
:1009D0009F4F0E941F0BAE014F555F4F60E081E0BB
:1009E0000E94350B8AE00E941009811105C084E144
:1009F0000E9410098823B1F38AE00E94100988231D
:100A000009F452C00E941B0B06E020E040E060E4C5
:100A1000CE0101960E94400B21E040E060E4CE014F
:100A200001960E94400B05E020E040E060E4CE012A
:100A300001960E94400B21E040E060E4CE01019667
:100A40000E94400B07E020E040E060E4CE01019608
:100A50000E94400B21E040E060E4CE0101960E943C
:100A6000400B08E020E040E060E4CE0101960E94E7
:100A7000400B21E040E060E4CE0101960E94400B73
:100A80008FEF93EDA0E381509040A040E1F700C0CC
:100A90000000BFEF23ED80E3B15020408040E1F73C
:100AA00000C00000F3945EC084E10E941009882316
:100AB00009F458C00E941B0B06E020E041E068E406
:100AC000CE0109960E94400B21E041E068E4CE018E
:100AD00009960E94400B05E020E041E068E4CE0169
:100AE00009960E94400B21E041E068E4CE0109969E
:100AF0000E94400B07E020E041E068E4CE01099647
:100B00000E94400B21E041E068E4CE0109960E947A
:100B1000400B08E020E041E068E4CE0109960E9425
:100B2000400B21E041E068E4CE0109960E94400BB1
:100B300061E08BE00E948B089FEFA3EDB0E3915042
:100B4000A040B040E1F700C000002FEF83ED90E33C
:100B5000215080409040E1F700C0000060E08BE051
:100B60000E948B080E941B0B6CCCCE018F549F4FB0
:100B70000E941F0BAE014F535F4F60E081E00E9467
:100B8000350B8AE00E941009811105C084E10E94A2
:100B900010098823B1F3AFE3BCE91197F1F700C066
:100BA000000084E10E941009882309F452C00E94C9
:100BB0001B0B06E020E040E060E4CE0101960E94BD
:100BC000400B21E040E060E4CE0101960E94400B22
:100BD00005E020E040E060E4CE0101960E94400B79
:100BE00021E040E060E4CE0101960E94400B07E066
:100BF00020E040E060E4CE0101960E94400B21E03D
:100C000040E060E4CE0101960E94400B08E020E045
:100C100040E060E4CE0101960E94400B21E040E0FC
:100C200060E4CE0101960E94400BBFEF23ED80E30C
:100C3000B15020408040E1F700C000009FEFA3EDDD
:100C4000B0E39150A040B040E1F700C00000F39441
:100C50005EC08AE00E941009882309F458C00E94EF
:100C60001B0B06E020E041E068E4CE0109960E94FB
:100C7000400B21E041E068E4CE0109960E94400B60
:100C800005E020E041E068E4CE0109960E94400BB7
:100C900021E041E068E4CE0109960E94400B07E0A4
:100CA00020E041E068E4CE0109960E94400B21E07B
:100CB00041E068E4CE0109960E94400B08E020E084
:100CC00041E068E4CE0109960E94400B21E041E03A
:100CD00068E4CE0109960E94400B61E08BE00E941F
:100CE0008B082FEF83ED90E3215080409040E1F797
:100CF00000C00000AFEFB3ED20E3A150B0402040B2
:100D0000E1F700C0000060E08BE00E948B080E94C9
:100D10001B0B03C0153008F494CB83E0F81609F4DC
:100D200076C08F1538F091E0F91669F0A2E0FA1656
:100D3000E1F186C1B4E0FB1609F4C5C025E0F21666
:100D400009F45BC17DC1CE018F529F4F0E941F0BE2
:100D50006CE080E00E94EB0A81E30E94750A66E085
:100D600081E00E94EB0ACE018F5F9E4F0E941F0B15
:100D700061E08BE00E948B088FEF93EDA0E3815040
:100D80009040A040E1F700C00000BFEF23ED80E3FA
:100D9000B15020408040E1F700C0000060E08BE0EF
:100DA0000E948B080E941B0B7CC1CE018F529F4F6B
:100DB0000E941F0B6CE080E00E94EB0A82E30E941D
:100DC000750A66E081E00E94EB0ACE018F5F9E4FBC
:100DD0000E941F0B61E08BE00E948B089FEFA3ED48
:100DE000B0E39150A040B040E1F700C000002FEF09
:100DF00083ED90E3215080409040E1F700C0000077
:100E000060E08BE00E948B080E941B0B4AC1CE0160
:100E10008F529F4F0E941F0B68E081E00E94EB0AF7
:100E200083E30E94750A61E08CE00E948B08AFEFBB
:100E3000B1EE24E0A150B0402040E1F700C0000036
:100E400060E08CE00E948B0861E08CE00E948B08DF
:100E50008FEF91EEA4E081509040A040E1F700C0F8
:100E6000000060E08CE00E948B0861E08CE00E9452
:100E70008B08BFEF23ED80E3B15020408040E1F7C5
:100E800000C0000060E08CE00E948B0861E08CE014
:100E90000E948B089FEFA1EEB4E09150A040B040BB
:100EA000E1F700C0000060E08CE00E948B082FEFAB
:100EB00083ED90E3215080409040E1F700C00000B6
:100EC0000E941B0BEEC0CE018F529F4F0E941F0B42
:100ED0006CE080E00E94EB0A84E30E94750A65E002
:100EE00081E00E94EB0ACE018F509F4F0E941F0BA2
:100EF00061E08CE00E948B08AFE3BCE91197F1F749
:100F000000C0000060E08CE00E948B0861E08DE092
:100F10000E948B088FE39CE90197F1F700C0000065
:100F200060E08DE00E948B0861E08EE00E948B08FB
:100F3000AFE3BCE91197F1F700C0000060E08EE07C
:100F40000E948B0861E08CE00E948B088FE39CE993
:100F50000197F1F700C0000060E08CE00E948B0870
:100F60009FEFA3EDB0E39150A040B040E1F700C087
:100F7000000061E08DE00E948B088FE39CE90197FF
:100F8000F1F700C0000060E08DE00E948B0861E096
:100F90008EE00E948B08AFE3BCE91197F1F700C027
:100FA000000060E08EE00E948B0861E08CE00E940F
:100FB0008B088FE39CE90197F1F700C0000060E027
:100FC0008CE00E948B0861E08DE00E948B08AFE30B
:100FD000BCE91197F1F700C0000060E08DE00E94CD
:100FE0008B08BFEF23ED80E3B15020408040E1F754
:100FF00000C000000E941B0B54C0CE018F529F4FB7
:101000000E941F0B6CE080E00E94EB0A85E30E94C7
:10101000750A65E081E00E94EB0ACE018F519F4F77
:101020000E941F0B0E9441009FEFA3EDB0E391507F
:10103000A040B040E1F700C000000E941B0B31C08F
:10104000CE018F529F4F0E941F0B6CE080E00E94E8
:10105000EB0A82E30E94750A66E081E00E94EB0AD7
:10106000CE018F5F9E4F0E941F0B61E08BE00E94BC
:101070008B082FEF83ED90E3215080409040E1F703
:1010800000C00000AFEFB3ED20E3A150B04020401E
:10109000E1F700C0000060E08BE00E948B080E9436
:1010A0001B0BCE018F5E9E4F0E941F0B60E081E004
:1010B0000E94EB0ACE018F5D9E4F0E941F0B84E1C0
:1010C0000E941009811105C084E10E941009882343
:1010D000B1F38AE00E941009882341F00E941B0BA3
:1010E000CE018F5C9E4F0E941F0B06C084E10E94C0
:1010F000100981110E941B0B0E941B0BC05CDE4F6C
:101100000FB6F894DEBF0FBECDBFDF91CF911F9118
:101110000F91FF9008958830E8F4613069F44BB383
:1011200021E030E0B90102C0660F771F8A95E2F72F
:10113000CB01842B8BBB08954BB321E030E0B90188
:1011400002C0660F771F8A95E2F7CB018095842352
:101150008BBB089598EF980F9830F0F4613069F4E4
:1011600048B321E030E0B90102C0660F771F9A95BD
:10117000E2F7CB01842B88BB089548B3885021E067
:1011800030E0B90102C0660F771F8A95E2F7CB0104
:101190008095842388BB089590EF980F9830F0F4E1
:1011A000613069F445B321E030E0B90102C0660F57
:1011B000771F9A95E2F7CB01842B85BB089545B341
:1011C000805121E030E0B90102C0660F771F8A9597
:1011D000E2F7CB018095842385BB089598EE980FA4
:1011E0009830E8F4613069F442B321E030E0B901AD
:1011F00002C0660F771F9A95E2F7CB01842B82BB62
:10120000089542B3885121E030E0B90102C0660F71
:10121000771F8A95E2F7CB018095842382BB0895DE
:10122000982F883060F449B321E030E0B90102C062
:10123000660F771F8A95E2F7CB018423089588EF24
:10124000890F883060F446B321E030E0B90102C074
:10125000660F771F8A95E2F7CB018423089580EF0C
:10126000890F883060F443B321E030E0B90102C057
:10127000660F771F8A95E2F7CB018423089588EEE5
:10128000890F883060F440B321E030E0B90102C03A
:10129000660F771F8A95E2F7CB018423089580E0DB
:1012A00008958830E8F4613069F44AB321E030E011
:1012B000B90102C0660F771F8A95E2F7CB01842B34
:1012C0008ABB08954AB321E030E0B90102C0660F3D
:1012D000771F8A95E2F7CB01809584238ABB089516
:1012E00098EF980F9830F0F4613069F447B321E03B
:1012F00030E0B90102C0660F771F9A95E2F7CB0183
:10130000842B87BB089547B3885021E030E0B901B2
:1013100002C0660F771F8A95E2F7CB018095842380
:1013200087BB089590EF980F9830F0F4613069F41E
:1013300044B321E030E0B90102C0660F771F9A95EF
:10134000E2F7CB01842B84BB089544B3805121E0A4
:1013500030E0B90102C0660F771F8A95E2F7CB0132
:101360008095842384BB089598EE980F9830E8F414
:10137000613069F441B321E030E0B90102C0660F89
:10138000771F9A95E2F7CB01842B81BB089541B377
:10139000885121E030E0B90102C0660F771F8A95BD
:1013A000E2F7CB018095842381BB0895CF93C82FAA
:1013B00060E081E00E948B0860E082E00E948B0880
:1013C0008FE99FE00197F1F700C0000061E083E042
:1013D0000E948B088FE99FE00197F1F700C00000A1
:1013E000C4FB662760F984E00E948B08C5FB662772
:1013F00060F985E00E948B08C6FB662760F986E0ED
:101400000E948B086C2F661F6627661F87E00E946C
:101410008B088FE99FE00197F1F700C0000060E0C2
:1014200083E00E948B088FE99FE00197F1F700C0ED
:10143000000061E083E00E948B088FE99FE0019744
:10144000F1F700C000006C2F617084E00E948B08EF
:10145000C1FB662760F985E00E948B08C2FB662706
:1014600060F986E00E948B08C3FB662760F987E07D
:101470000E948B088FE99FE00197F1F700C0000000
:1014800060E083E00E948B088FE99FE00197F1F70D
:1014900000C00000CF91089561E081E00E945109F1
:1014A00061E082E00E94510961E083E00E945109FD
:1014B00061E084E00E94510961E085E00E945109E9
:1014C00061E086E00E94510961E087E00E945109D5
:1014D00082E00E94D60988E20E94D6098CE00E9430
:1014E000D60981E00E94D6090895CF93C82F61E004
:1014F00081E00E948B0860E082E00E948B088FE907
:101500009FE00197F1F700C0000061E083E00E94D6
:101510008B088FE99FE00197F1F700C00000C4FB42
:10152000662760F984E00E948B08C5FB662760F996
:1015300085E00E948B08C6FB662760F986E00E9462
:101540008B086C2F661F6627661F87E00E948B083A
:101550008FE99FE00197F1F700C0000060E083E0B1
:101560000E948B088FE99FE00197F1F700C000000F
:1015700061E083E00E948B088FE99FE00197F1F71B
:1015800000C000006C2F617084E00E948B08C1FBDA
:10159000662760F985E00E948B08C2FB662760F928
:1015A00086E00E948B08C3FB662760F987E00E94F3
:1015B0008B088FE99FE00197F1F700C0000060E021
:1015C00083E00E948B088FE99FE00197F1F700C04C
:1015D0000000CF910895CF93DF93D62F81110DC0D6
:1015E00080E80E94D609DD2319F1C0E084E10E9461
:1015F000D609CF5FDC13FACF1BC0813069F480ECD1
:101600000E94D609DD23A1F0C0E084E10E94D60942
:10161000CF5FDC13FACF0CC080E80E94D609DD232F
:1016200039F0C0E084E10E94D609CF5FDC13FACF25
:10163000DF91CF91089581E00E94D60908950F931C
:101640001F93CF93FC018081882359F08F01C0E064
:101650000E94750ACF5FF801EC0FF11D80818111A6
:10166000F7CFCF911F910F910895CF93DF93EA01A8
:101670000E94EB0ACE010E941F0BDF91CF910895CB
:10168000DF92EF92FF920F931F93CF93DF937C0132
:10169000862F142FD22E0E94D609E70188E0E80E8B
:1016A000F11C89910E94750A8FE39CE90197F1F77B
:1016B00000C00000CE15DF05A1F780E80E94D60922
:1016C000602F8D2D0E94EB0A812F0E94750ADF91F9
:1016D000CF911F910F91FF90EF90DF9008950E949E
:0C16E0004C0A0E947900FDCFF894FFCF67
:1016EC00000A0000111F0E00000A00000E1F11005E
:1016FC0057656C636F6D6500000000000000000012
:10170C004768616E61206361706974616C206973F4
:10171C000061646469732061626162613F00000072
:10172C000035202B2038202A2039203D20000000B5
:10173C0000203737200000000000000000000000EF
:10174C000053616C6168206973204661357200003A
:10175C000020456C2061726162203F000000000097
:10176C0000667269656E64732052616368656C0013
:10177C00007369737465722069733A4A616E6963A8
:10178C006500416D722044696162206167652000CB
:10179C000000206973203537203F00000000000056
:1017AC000000596F75722053636F72653A00000028
:1017BC00000059412047454E554953200000000078
:1017CC00000057454C4C20444F4E45000000000093
:1017DC0000005941204C4F4F53455200000000006F
:1017EC00000057616E6E6120506C617920616761F9
:1017FC00696E0070726573732030206E6F2031003B
:10180C000000005468616E6B730000000000000063
:10181C000000005374617274206368616C6C656EB7
:04182C0067650000EC
:00000001FF
